:020000040800F2
:10000000B80A0020C101000899420008153700080D
:1000100095420008E90700085D4F00080000000055
:100020000000000000000000000000004B44000839
:10003000F30A000800000000494400084D4400088D
:10004000DB010008DB010008DB010008DB01000820
:10005000DB010008DB010008DB010008DB01000810
:10006000DB010008DB010008DB010008DB01000800
:10007000DB010008DB010008DB010008DB010008F0
:10008000DB010008DB010008DB0100085D08000857
:1000900031080008DB010008DB010008DB01000873
:1000A000DB010008DB010008DB010008DB010008C0
:1000B000DB010008DB010008DB010008DB010008B0
:1000C000DB010008DB010008DB010008DB010008A0
:1000D000DB010008DB010008E54E0008DB01000839
:1000E000DB010008DB010008DB010008DB01000880
:1000F000DB010008DB010008DB010008DB01000870
:10010000DB010008DB010008DB010008DB0100085F
:10011000A9490008DB010008A9450008DB01000827
:10012000DB010008DB010008050A0008DB0100080C
:10013000DB010008DB010008DB010008DB0100082F
:10014000DB010008DB010008DB010008DB0100081F
:10015000DB010008DB010008DB010008F54E0008A8
:10016000DB010008DB010008DB010008DB010008FF
:10017000DB010008DB010008DB01000800000000D3
:10018000DB010008DB010008DB010008DB010008DF
:10019000DB010008DB010008DB010008DB010008CF
:1001A0000000000000000000DB010008DFF80CD0B8
:1001B00000F090FA0048004701550008B80A0020F6
:1001C0000648804706480047FEE7FEE7FEE7FEE7F1
:1001D000FEE7FEE7FEE7FEE7FEE7FEE7454500082F
:1001E000AD0100082DE9F05F0546002092469B46D0
:1001F00088460646814640241BE02846414647463D
:10020000224600F0E7F953465A46C01A914110D3EE
:1002100011461846224600F0CEF92D1A67EB010868
:100220004F4622460120002100F0C5F917EB0009D6
:100230004E41201EA4F10104DFDC484631462A4627
:100240004346BDE8F09F2DE9FE4F804681EA03005A
:10025000C00F0C46009021F0004123F00045B8EBA0
:100260000200A94105D24046214690461C460B4655
:10027000024623F00040104347D0270DC7F30A0081
:10028000C3F30A510290401A019040286BDAC3F37D
:10029000130040F4801B0098924620B10023D2EB5B
:1002A000030A63EB0B0B01985946C0F1400250461C
:1002B00000F081F906460D4650465946019A00F075
:1002C00099F910EB08006141002487EA115284EA91
:1002D000E7731A4340D0009A62B3019A012A4FEAA9
:1002E000075215DC001B61EB02014FF0004202EAED
:1002F0000752CDE90042001C41F5801132462B46E1
:1003000000F099F903B0BDE8F08F40462146F9E7C7
:10031000001B61EB0201001C41F5801300185B41DA
:100320002018A2F5001747EB030140EAD570B61973
:100330006D4111E06D084FEA360645EAC0754FEA97
:100340000752001B61EB0201001C41F580114908B6
:100350004FEA30000019514132462B4603B0BDE848
:10036000F04F00F059B90098012240000023D0EB73
:10037000020263EBE073009821464FEAE074B8EBA9
:10038000000061EB0401E9E783F000435BE781F0E3
:10039000004158E72DE9FE4F81EA030404F00044D0
:1003A00021F0004100944FF0000B23F0004350EA8D
:1003B00001045ED052EA03045BD0C3F30A54C1F3D4
:1003C0000A552C44A4F2F3340194A0FB0254C1F367
:1003D000130141F48011C3F3130343F4801301FBB1
:1003E000024400FB034E840A970A44EA815447EA18
:1003F0008357A4FB076802958D0A05FB07854FEA22
:10040000932C04FB0C542705029D4FEA065847EA3B
:100410001637B5EB08056EEB070C870E920E47EA10
:10042000811742EA8312A7FB0201B6EB0B0164EBD2
:1004300000042B0D43EA0C335E1844EB1C50DA46E3
:100440005146E7FB0201C5F313044FEA0B3343EABD
:1004500014534FEA0432019C43EA0603A4F10C044E
:100460000294009CCDE900B400F0E5F803B0BDE8CB
:10047000F08F00200146F9E72DE9F04D81EA0304F1
:1004800004F0004B21F0004514464FF0000A23F021
:10049000004150EA050220D054EA01021DD0C5F304
:1004A0000A570246C5F31303C1F31300C1F30A56FA
:1004B00040F4801543F48013A7EB0608101BD646C2
:1004C00008F2FD3873EB050002D308F1010801E0E2
:1004D00092185B41B8F1000F03DA00200146BDE835
:1004E000F08D00204FF48011064684460EE0171B65
:1004F00073EB050705D3121B63EB050306434CEAB8
:10050000010C49084FEA300092185B4150EA01079C
:10051000EDD152EA030012D082EA040083EA050119
:10052000084305D0101BAB4106D20122002306E090
:1005300000224FF0004302E06FF0010253101AEB6B
:1005400006004CEB085110EB0A0041EB0B01BDE833
:10055000F04D00F061B80EB5C10F80EAE0700844BC
:10056000CA07002140F233438DE80E000A460B46CD
:1005700000F061F803B000BD70B5C1F30A5201F09C
:1005800000450024C1F3130140F2FF3341F4801110
:100590009A4201DA002070BD40F233439A42A2F23F
:1005A000334203DC524200F015F800E090402C4347
:1005B000F1D0404270BD202A04DB203A00FA02F15B
:1005C000002070479140C2F1200320FA03F3194341
:1005D00090407047202A04DB203A21FA02F00021E3
:1005E000704721FA02F3D040C2F120029140084343
:1005F00019467047202A06DBCB17203A41FA02F051
:1006000043EAE07306E041FA02F3D040C2F120026F
:10061000914008431946704710B5141E73F1000449
:1006200008DA401C41F1000192185B411A4301D1E4
:1006300020F0010010BD2DE9F04D92469B4611B10E
:10064000B1FA81F202E0B0FA80F220329046FFF770
:10065000B2FF04460F4640EA0A0041EA0B01534646
:100660005A46084313D0114653EA010019D0C8F185
:1006700040025046FFF7AEFF05460E46504659462B
:100680004246FFF798FF084305D0012004E02046CA
:100690003946BDE8F08D0020054346EAE0762C435C
:1006A00037430A986305E40AA0EB08000022FD0A1C
:1006B00044EA47540A3002D500200146E9E7010523
:1006C00010196941DDE9084500196941BDE8F04D9F
:1006D000A2E70000064C074D06E0E06840F0010389
:1006E00094E8070098471034AC42F6D3FFF762FD58
:1006F000A0560008C056000800B500219FED282A2A
:10070000DFED281AB1EE041AFFEE000A9FED260A6B
:10071000264803F085FE00219FED252ADFED251AEE
:100720009FED251ADFED240A9FED240A244803F0EB
:1007300077FE00219FED232ADFED231AB9EE0C1A74
:10074000DFED1D0A9FED210A214803F069FE00211B
:100750009FED172ADFED1C1A9FED171ADFED160A21
:10076000BEEE000A1B4803F05BFE002214E002EB21
:10077000820101EBC201184B03EB810001219FEDC7
:10078000172ADFED171A9FED0C1ADFED160AB1EEEE
:10079000040A03F045FE521C032AE8DD00BD0000F8
:1007A00000401C4600803B4500008CC280040020B5
:1007B00000409C450000FA44000000009A99993ED0
:1007C0004C04002000803B4600007A440000344284
:1007D000E8040020B40400201C05002000007A4634
:1007E0000000FA458FC2F53C00BFFEE700B58BB0B4
:1007F00000200790012008900020019002900390B3
:1008000004900590012009900E200A900020069087
:1008100001A9064800F08CFB0221044800F0DCFA34
:10082000024800F002FF0BB000BD00007400002081
:1008300010B5074B074A0021074800F00CFC044A9A
:100840000449054800F012F8034800F0C8FC10BD48
:1008500000000020C80200207400002010B50248EB
:1008600000F0BDFC10BD00007400002010B5034670
:100870000868A0F2012006281AD2DFE800F0031A67
:10088000314C67915078147840EA04205A4C20800B
:10089000D078947840EA042000B2574C60805079B8
:1008A000147940EA042000B2534CA0809079E08093
:1008B000A0E05078147840EA04204F4CA086D0780D
:1008C000947840EA042004B24B48C48650791479E5
:1008D00040EA042004B2484804879479448789E0B8
:1008E0005078147840EA0420434CA4F86800D0788B
:1008F000947840EA042004B23F48A0F86A40507956
:10090000147940EA042004B23B48A0F86C40947982
:10091000A0F86E406EE05078147840EA0420364C1F
:10092000A4F89C00D078947840EA042004B23248BD
:10093000A0F89E405079147940EA042004B22E4871
:10094000A0F8A0409479A0F8A24053E05078147821
:1009500040EA0420294C2080D078947840EA042092
:1009600000B2264CA0805079147940EA042000B2ED
:10097000224CE08020460088B0F5805F03DA2046F4
:10098000008800B260801D480088B0F5805F06DDF9
:100990001A480088A0F5005000B2184C608029E089
:1009A0005078147840EA0420154C2080D078947850
:1009B00040EA042000B2124CA0805079147940EA39
:1009C000042000B20E4CE08020460088B0F5805F25
:1009D00003DA2046008800B2608009480088B0F53C
:1009E000805F06DD06480088A0F5005000B2044C88
:1009F000608000BF00BF10BD0C030020EA03002090
:100A0000DC03002010B5024800F05AFE10BD0000C3
:100A1000500200200146087810381823B0FBF3F28A
:100A20000848805CC865032A05D908686FF3090087
:100A3000001D886503E008686FF309008865886D0C
:100A400070470000FC550008014600208A6A8B6947
:100A5000CBB932B1012A0DD0022A03D0032A10D11A
:100A60000EE000BFCB6A03F08073B3F1807F00D14A
:100A7000012007E0CB6AB3F1C07F00D1012001E083
:100A800000E000BF34E08B69B3F5005F1AD132B1EA
:100A9000012A07D0022A03D0032A11D10AE000BF9D
:100AA00001200EE0CB6A03F08073B3F1807F00D1A8
:100AB000012006E0CB6AB3F1C07F00D1012000E045
:100AC00000BF15E032B1012A05D0022A04D0032A62
:100AD0000CD103E000BF00BF012008E0CB6A03F0A7
:100AE0008073B3F1807F00D1012000E000BF00BF20
:100AF0007047704710B5002201B909E0012901D102
:100B00000A0205E0022901D10A0201E04FF4407215
:100B10000B2800D9001D0E4B1B6823F440730C4CAE
:100B2000236023461B681343236023461B6823F07E
:100B3000F803236023461B68022444EAC0042343CD
:100B4000034C236023461B6843F48033236010BDAD
:100B5000103C02401C48006800F40070B0B11A4814
:100B6000006820F400701849086000BF084600685B
:100B700040F4006008600846006820F400600860E7
:100B800000BF0846006840F4007008600E48006826
:100B900000F48060B0B10C48006820F480600A491D
:100BA000086000BF0846006840F4805008600846AE
:100BB000006820F48050086000BF0846006840F4D8
:100BC0008060086070470000003C0240134A1268D1
:100BD00022F44072114B1A60032906D11A4612689A
:100BE000DB131A430D4B1A600EE0012906D10B4AA4
:100BF000126842F00402094B1A6005E0074A1268C5
:100C000042F40042054B1A60044A12684FF48033E4
:100C100043EA00231A43014B1A607047103C02401C
:100C2000074A126822F44072054B1A601A4612688D
:100C30001A601A46126842F001021A600170704789
:100C4000103C024010B50949096821F44071074C75
:100C500021602146096841F44071216021460968FC
:100C600041F0010121600260436010BD103C024070
:100C7000084A126822F44072064B1A601A4612683B
:100C800042F480721A601A46126842F001021A6039
:100C900001807047103C0240084A126822F44072FA
:100CA000064B1A601A46126842F400721A601A461D
:100CB000126842F001021A6001607047103C024065
:100CC0002A48006800F0100040B12948C06940F08F
:100CD00010002749C8611020244908602348006893
:100CE00000F0200040B12248C06940F008002049CF
:100CF000C86120201D4908601C48006800F04000C1
:100D000040B11B48C06940F004001949C861402047
:100D1000164908601548006800F0800040B114488A
:100D2000C06940F002001249C86180200F49086084
:100D30000E48006800F4807048B10D48C06940F06A
:100D400001000B49C8614FF48070084908600748EA
:100D5000006800F0020040B10548C06940F0200082
:100D60000349C86102200149086070470C3C0240F9
:100D70009806002070B50446002500201449C8617B
:100D800001F024F8054609E0601C38B124B101F0F7
:100D90001DF8401BA04201D9032070BD0D4800681A
:100DA00000F480300028EFD10A48006800F001000C
:100DB00010B10120074908600648006800F4F97086
:100DC00018B1FFF77DFF0120E7E70020E5E700000D
:100DD000980600200C3C0240024692F820000128B0
:100DE00003D092F82000022806D110684069084319
:100DF0001368586100207047506A40F480205062A8
:100E00000120F8E770B504460D46A86800B900E077
:100E100000BF94F82000012803D094F82000022895
:100E20007FD12068806800F0806050B920688068B9
:100E300000F0006028B92068806800F08050002829
:100E400069D020688068C0F3016101208840186083
:100E5000A86850B92E88E86840EA4656206800F530
:100E6000C07000EB011006600BE0D5E9016040EABC
:100E7000C600EE683043266806F5C07606EB01161C
:100E800030602E69206800F5C07000EB01104660EC
:100E9000287D01280DD1206800F5C07000EB0110FD
:100EA000406840F48076206800F5C07000EB0110C7
:100EB0004660D0790006967940EA0640567940EAC5
:100EC000062610790643206800F5C07000EB01107B
:100ED000C660D0780006967840EA0640567840EA28
:100EE000062016783043266806F5C07606EB011614
:100EF000B060206800F5C07000EB0110006840F0A1
:100F00000106206800F5C07000EB011006600020AB
:100F100070BD06E0FFE7606A40F4001060620120E7
:100F2000F6E7606A40F4802060620120F0E700008C
:100F300070B504460A460023216894F82000012871
:100F400003D094F8200002287CD1414901F50071BA
:100F5000086840F001000860086820F47C500860D0
:100F60000868556A40EA05200860157D012000FAEE
:100F700005F3C8699843C861A1F50071D069C8B983
:100F8000D1F80C029843C1F80C02908880B2958980
:100F900040EA054501F51070566940F83650108852
:100FA00080B2158940EA054501F51070566900EBDD
:100FB000C6004560D069012819D1D1F80C02184348
:100FC000C1F80C02908880B2158840EA054501F509
:100FD0001070566940F83650908980B2158940EA01
:100FE000054501F51070566900EBC6004560906933
:100FF00028B9D1F804029843C1F8040204E0D1F8FA
:1010000004021843C1F80402106928B9D1F8140287
:101010009843C1F8140204E0D1F814021843C1F84F
:101020001402106A012804D1D1F81C021843C1F837
:101030001C02D1F8000220F00100C1F800020020DB
:1010400070BDFFE7606A40F4802060620120F7E72E
:1010500000640040704730B5044694F82000012831
:1010600003D094F8200002287DD151B92068C068CF
:1010700000F0030090B9606A40F400106062012043
:1010800030BD01290AD12068006900F0030028B9A9
:10109000606A40F4001060620120F1E7206800F50A
:1010A000D87000EB0110006800F0040090609068B8
:1010B00040B9206800F5D87000EB01100068400DC1
:1010C000106007E0206800F5D87000EB01100068A0
:1010D000C0085060206800F5D87000EB011000686F
:1010E00000F002004008D060206800F5D87000EBE6
:1010F0000110406800F00F001061206800F5D87002
:1011000000EB0110406800F47F40000A9061206805
:1011100000F5D87000EB01104068000C50612068A9
:1011200000F5D87000EB011080681870206800F599
:10113000D87000EB0110806800F47F40000A5870FE
:10114000206800F5D87000EB0110806800F47F0083
:10115000000C9870206800F5D87000EB01108068D2
:10116000000ED87000E034E0206800F5D87000EB85
:101170000110C0681871206800F5D87000EB0110EC
:10118000C06800F47F40000A5871206800F5D870EC
:1011900000EB0110C06800F47F00000C987120681B
:1011A00000F5D87000EB0110C068000ED87131B99D
:1011B0002068C06840F020002568E86007E0012949
:1011C00005D12068006940F02000256828610020D2
:1011D00056E7606A40F480206062012050E72DE904
:1011E000F05F04460025206846692068D0F8049026
:1011F000206887682068D0F80CA02068D0F810B06C
:101200002068D0F8188006F00100002855D007F0BB
:101210000100C0B101202168886007F0020018B108
:10122000204600F033FA0EE007F0040010B145F458
:10123000006508E007F0080010B145F4805502E0B1
:10124000204600F022FA07F48070C8B14FF4807095
:101250002168886007F4007018B1204600F018FA81
:101260000EE007F4806010B145F4005508E007F483
:10127000006010B145F4804502E0204600F007FA16
:1012800007F48030C8B14FF480302168886007F4DB
:10129000003018B1204600F0FDF90EE007F4802080
:1012A00010B145F4004508E007F4002010B145F402
:1012B000803502E0204600F0ECF906F0080038B175
:1012C0000AF0100020B145F4007510202168C860B4
:1012D00006F0040040B10AF0080028B10820216897
:1012E000C860204600F09CF906F0020038B1206882
:1012F000C06800F0030010B1204600F092F906F03B
:10130000400038B10BF0100020B145F4806510208A
:101310002168086106F0200040B10BF0080028B1F8
:10132000082021680861204600F07CF906F01000D2
:1013300038B12068006900F0030010B1204600F0C9
:1013400072F906F4003040B109F0100028B1102005
:1013500021684860204600F067F906F4803040B10B
:1013600009F0080028B1082021684860204600F0F4
:1013700092F906F4004088B309F0040078B306F44B
:10138000807020B108F0010008B145F0010506F4B5
:10139000007020B108F0020008B145F0020506F423
:1013A000806020B108F0040008B145F0040506F49F
:1013B0000060A0B108F0700088B108F0700040280B
:1013C00017D006DC10280BD020280CD0302819D1DB
:1013D0000CE0502810D0602814D110E01DE019E076
:1013E00045F008050FE045F010050CE045F020053C
:1013F00009E045F0400506E045F0800503E045F4CE
:10140000807500E000BF00BF2068806920F0700098
:10141000216888610420216848602DB1606A2843F2
:1014200060622046FFF716FEBDE8F09F70B50446E7
:1014300000250CB9012070BD94F8200010B9204699
:1014400000F0B0F82068006820F002002168086011
:1014500000F0BCFC05460DE000F0B8FC401B0A287B
:1014600008D9606A40F400306062052084F82000EA
:101470000120E0E72068406800F002000028EBD17E
:101480002068006840F001002168086000F09EFCC0
:1014900005460DE000F09AFC401B0A2808D9606A56
:1014A00040F400306062052084F820000120C2E78B
:1014B0002068406800F001000028EBD0207E012861
:1014C00006D12068006840F080002168086005E0CF
:1014D0002068006820F0800021680860607E012894
:1014E00006D12068006840F040002168086005E0EF
:1014F0002068006820F0400021680860A07E012874
:1015000006D12068006840F020002168086005E0EE
:101510002068006820F0200021680860E07E012833
:1015200006D12068006820F010002168086005E0FE
:101530002068006840F0100021680860207F0128C2
:1015400006D12068006840F008002168086005E0C6
:101550002068006820F0080021680860607F01288A
:1015600006D12068006840F004002168086005E0AA
:101570002068006820F0040021680860D4E90201B6
:10158000084321690843616908436168491E0843AB
:101590002168C86100206062012084F820000020DA
:1015A00049E7000010B586B004461A492068884211
:1015B0002DD100BF002000901748006840F0007057
:1015C000154908600846006800F00070009000BFF0
:1015D00000BF03200190022002900020039003200E
:1015E00004900920059001A90C4800F0DBFA0022C4
:1015F0001146132000F0E8FC132000F0D8FC002274
:101600000121142000F0E0FC142000F0D0FC06B012
:1016100010BD00000064004040380240000C024051
:101620007047704770477047704770B50446002593
:1016300094F82000012822D1022084F8200020689C
:10164000006820F001002168086000F0BFFB05463B
:101650000DE000F0BBFB401B0A2808D9606A40F48B
:1016600000306062052084F82000012070BD2068F1
:10167000406800F001000028EBD16062F6E7606A84
:1016800040F4002060620120F0E770477047704727
:101690007047704770477047014691F8350002283F
:1016A00003D08020486501207047052081F835006F
:1016B0000868006820F001000A6810600020F3E765
:1016C000F8B50446002000908C4800684FF416518D
:1016D000B0FBF1F7A56D2E6894F85C1008208840E7
:1016E000304098B12068006800F0040070B12068B4
:1016F000006820F004002168086094F85C1008205D
:101700008840A860606D40F00100606594F85C104E
:1017100001208840304068B12068406900F08000B6
:1017200040B194F85C1001208840A860606D40F0E2
:101730000200606594F85C1004208840304068B175
:101740002068006800F0020040B194F85C100420AA
:101750008840A860606D40F00400606594F85C10FB
:1017600010208840304078B32068006800F00800FE
:1017700050B394F85C1010208840A860206800687E
:1017800000F4802080B12068006800F4002028B9AF
:10179000206CC8B12046216C884715E0A06C98B138
:1017A0002046A16C88470FE02068006800F4807034
:1017B00028B92068006820F0080021680860206CC3
:1017C00010B12046216C884794F85C102020884096
:1017D0003040002865D02068006800F01000002824
:1017E0005FD094F85C1020208840A86094F8350001
:1017F000052828D12068006820F0160021680860BC
:101800002068406920F0800021684861206C08B998
:10181000A06C28B12068006820F0080021680860EA
:1018200094F85C103F208840A86000BF002084F836
:10183000340000BF012084F83500206D10B120462F
:10184000216D8847F8BD2068006800F4802080B1D1
:101850002068006800F4002028B9606C10B12046B0
:10186000616C88471DE0E06BD8B12046E16B88478A
:1018700017E02068006800F4807068B9206800688C
:1018800020F010002168086000BF002084F83400B8
:1018900000BF012084F83500E06B10B12046E16BF9
:1018A0008847606D38B3606D00F00100F0B105202D
:1018B00084F835002068006820F001002168086085
:1018C00000BF0098401C0090B84200D905E0206895
:1018D000006800F001000028F3D100BF00BF002025
:1018E00084F8340000BF012084F83500E06C10B1AA
:1018F0002046E16C884700BFA4E7000008000020F4
:101900002DE9F0410446002500F060FA074614B9BD
:101910000120BDE8F081606A00B100BF00BF002077
:1019200084F8340000BF022084F835002068006885
:1019300020F00100216808600AE000F047FAC01BAF
:10194000052805D920206065032084F83500E0E7EC
:101950002068006800F001000028EED120680568CA
:1019600021480540D4E901010843E16808432169A1
:10197000084361690843A1690843E1690843216A92
:1019800008430543606A042803D1D4E90B010843E6
:101990000543206805602068456925F00705606AF1
:1019A0000543606A04280DD1A06A0543E06A48B186
:1019B0002046FFF749F828B140206065012084F8EF
:1019C0003500A6E7206845612046FFF723F8064664
:1019D00094F85C103F208840B060002060650120D2
:1019E00084F83500002094E73F8010F070B504467D
:1019F00000F0ECF906462546681C10B10448007852
:101A0000054400BF00F0E2F9801BA842FAD370BD84
:101A1000700000202DE9F04104460E460127002504
:101A200000BF2648007E012802D10220BDE8F081D7
:101A300001202249087600BF4CF25030FFF79AF996
:101A40000746002F32D1401E30602068012810D197
:101A5000207C6168FFF7BAF84CF25030FFF78AF942
:101A600007461748006848F2040188431449086093
:101A70001AE0A56812E0217C2846FFF73BF84CF2FB
:101A80005030FFF777F907460D48006820F0FA005C
:101A90000B4908600FB1356005E06D1CD4E90210F8
:101AA0000844A842E7D800BFFFF754F800BF002061
:101AB0000249087600BF3846B8E7000098060020C3
:101AC000103C02400348006840F0004001490860B3
:101AD00000207047103C02402DE9F04106460F46B9
:101AE00014461D464FF0010800BF1F48007E012824
:101AF00002D10220BDE8F08101201B49087600BF19
:101B00004CF25030FFF736F98046B8F1000F23D180
:101B100026B9E1B23846FFF783F812E0012E04D16E
:101B2000A1B23846FFF7A4F80BE0022E04D12146FB
:101B30003846FFF7B1F804E022462B463846FFF757
:101B400081F84CF25030FFF715F9804607480068DD
:101B500020F001000549086000BF00200249087616
:101B600000BF4046C6E7000098060020103C024037
:101B700000200949096801F0004159B10749064AA6
:101B80000C3A1160064911600349096801F00041EF
:101B900001B1012070470000103C0240230167455D
:101BA000AB89EFCDF8B502460B4600250024002096
:101BB0000021E6E0012606FA01F51E6806EA0504A2
:101BC000AC4273D15E68022E02D05E68122E13D131
:101BD000CF0802F1200656F827004E07F70E0F2611
:101BE000BE40B0434F07FF0E1E69BE403043CF08D2
:101BF00002F1200646F8270010684F000326BE4079
:101C0000B0431E7906F003064F00BE40304310601B
:101C10005E68012E08D05E68022E05D05E68112E27
:101C200002D05E68122E13D190684F000326BE408A
:101C3000B0434F00DE68BE403043906050680126DC
:101C40008E40B0431E79C6F300168E40304350607C
:101C5000D0684F000326BE40B0434F009E68BE4090
:101C60003043D0605E6806F08056B6F1805FA8D140
:101C700000BF00260096454E366846F48046434F26
:101C80003E603E46366806F48046009600BF00BFC0
:101C90003F4E8F0856F827008E07370F0F26BE409D
:101CA000B0433C4EB24202D100262EE068E03A4EEC
:101CB000B24201D1012628E0384EB24201D10226BB
:101CC00023E0374EB24201D103261EE0354EB24228
:101CD00001D1042619E0344EB24201D1052614E0A8
:101CE000324EB24201D106260FE0314EB24201D14E
:101CF00007260AE02F4EB24201D1082605E02E4EFB
:101D0000B24201D1092600E00A268F073F0FBE40EC
:101D100030431F4E8F0846F82700284E3068A043F6
:101D20005E6806F48036B6F5803F00D12043234E2E
:101D30003060361D3068A0435E6806F40036B6F5A4
:101D4000003F00D120431D4E361D3060361D3068E7
:101D5000A0435E6806F48016B6F5801F00D12043CC
:101D6000164E08363060361D3068A0435E6806F4B3
:101D70000016B6F5001F00D12043104E0C3630601F
:101D8000491C1029FFF416AFF8BD0000443802408A
:101D900008380140000002400004024000080240F0
:101DA000000C0240001002400014024000180240E3
:101DB000001C02400020024000240240003C014080
:101DC0000AB1816101E00B0483617047014800683A
:101DD0007047000068000020034800680349097844
:101DE0000844014908607047680000207000002026
:101DF00010B50D48006840F400700B4908600846B3
:101E0000006840F4806008600846006840F4807014
:101E10000860032000F016F9002000F007F800F039
:101E20002BF8002010BD0000003C024070B50446B5
:101E30000E4800784FF47A71B1FBF0F00C49096854
:101E4000B1FBF0F5284600F0CEFC08B1012070BDD2
:101E5000102C07D200222146501E00F0B5F805488C
:101E6000046001E00120F2E70020F0E770000020AC
:101E7000080000206C00002008B500BF0020009082
:101E80002348006840F48040214908600846006803
:101E900000F48040009000BF00BF00BF0020009011
:101EA000081F006840F08050091F0860084600685D
:101EB00000F08050009000BF00BF032000F0C2F887
:101EC000002211466FF00B0000F07EF80022114650
:101ED0006FF00A0000F078F8002211466FF0090058
:101EE00000F072F800221146501F00F06DF8002239
:101EF0001146101F00F068F800221146901E00F0F5
:101F000063F800221146501E00F05EF808BD000084
:101F10004438024070B504460D4616460CB90120FF
:101F200070BD94F8390028B9002084F838002046A4
:101F300001F03EF8242084F839002068C06820F4BD
:101F400000502168C860204602F0AEFD206800699C
:101F500020F49040216808612068406920F02A0040
:101F6000216848612068006920F00F00216808613D
:101F7000206800692843216808612068C06820F44F
:101F800000602168C8602068C06830432168C8606C
:101F90002068C06840F400502168C8600020E063F9
:101FA000202084F8390084F83A000020B8E700BF08
:101FB00000F01F02012191404209920002F1E0224B
:101FC000C2F8001100BF70472DE9F05F80460D4652
:101FD0001646002702F062F9074639462A4633467C
:101FE00001F00700C0F1070ABAF1040F02D94FF05F
:101FF000040A01E0C0F1070AD14600F1040ABAF16F
:10200000070F02D24FF0000A01E0A0F1030AD44604
:102010004FF0010A0AFA09FAAAF1010A0AEA020AC9
:102020000AFA0CFA4FF0010B0BFA0CFBABF1010BA7
:102030000BEA030B4AEA0B042146404602F036F94C
:10204000BDE8F09F00BF00F00702064B19684FF68D
:10205000FF031940044B0B4343EA0221014B196073
:1020600000BF70470CED00E00000FA0538B5002411
:1020700000BF002000901D48006840F080501B49C0
:1020800008600846006800F08050009000BF00BF64
:10209000012017490864FFF799FE044607E0FFF79F
:1020A00095FE001BB0F57A7F01D9032038BD114899
:1020B000406800F48030B0F5803FF0D101200C4939
:1020C0004864FFF783FE044607E0FFF77FFE001B2E
:1020D000B0F57A7F01D90320E8E70648406800F4AC
:1020E0000030B0F5003FF0D10020DFE7403802407B
:1020F00000000E420070004070B504460D460CB959
:10210000012070BD5848006800F00F00A84209D2B5
:1021100055490D700846006800F00F00A84201D034
:102120000120EEE7207800F0020002281DD120787F
:1021300000F00400042805D14C48006840F4E05049
:102140004A490860207800F00800082805D147486F
:10215000006840F46040454908604448006820F049
:10216000F000A168084341490860207800F00100B0
:10217000A8B36068012807D13C4808380068C0F35C
:102180004040B8B90120BCE76068022802D060680E
:10219000032807D1354808380068C0F3406048B9C3
:1021A0000120AEE7314808380068C0F3400008B9A4
:1021B0000120A6E72D48006820F00300616808436D
:1021C0002A490860FFF702FE064609E0FFF7FEFD18
:1021D000801B41F28831884202D9032091E707E051
:1021E0002248006800F00C006168B0EB810FEDD16F
:1021F0001D48006800F00F00A84209D91A490D7067
:102200000846006800F00F00A84201D0012078E7DE
:10221000207800F00400042807D11448006820F456
:10222000E050E168084311490860207800F0080098
:10223000082808D10D48006820F46040216940EA70
:10224000C1000A49086000F03DF808490968C1F377
:102250000311074A515CC840064908600020FFF797
:10226000E5FD00204DE70000003C02400838024038
:10227000E45500080800002001480068704700008D
:102280000800002000B5FFF7F7FF04490968C1F313
:102290008221034A515CC84000BD0000083802405A
:1022A000F455000800B5FFF7E7FF04490968C1F3DA
:1022B0004231034A515CC84000BD0000083802406A
:1022C000F45500082DE9F047002400250026A1461A
:1022D0002548006800F00C0020B1042805D008282B
:1022E0003AD105E0DFF8849039E0DFF8849036E0F9
:1022F0001D48001F006800F03F041B48001F0068D5
:1023000000F4800078B11A481749091F0968C1F321
:102310008811A0FB01700146224600233846FDF7D4
:1023200061FF05460EE011480F49091F0968C1F316
:102330008811A0FB01700146224600233846FDF7B4
:1023400051FF05460848001F0068C0F30140401CCB
:102350004600B5FBF6F902E0DFF8109000BF00BFC1
:102360004846BDE8F0870000083802400024F40029
:10237000001BB700F8B504460CB90120F8BD207861
:1023800000F00100002874D0F948006800F00C004B
:1023900004280DD0F648006800F00C00082813D17E
:1023A000F348001F006800F48000B0F5800F0BD1E7
:1023B000EF4808380068C0F34040002859D06068F2
:1023C000002856D10120D9E700BF6068B0F5803FF2
:1023D00008D1E7480838006840F48030E4490839FB
:1023E00008601EE06068B0F5A02F0DD1E048083805
:1023F000006840F48020DE4908390860084600681B
:1024000040F4803008600CE0D9480838006820F4B7
:102410008030D749083908600846006820F48020D9
:10242000086000BF606890B1FFF7D0FC054606E089
:10243000FFF7CCFC401B642801D903209EE7CC4861
:1024400008380068C0F340400028F1D011E0FFF7E1
:10245000BDFC054606E0FFF7B9FC401B642801D926
:1024600003208BE7C24808380068C0F340400028CA
:10247000F1D1207800F0020002285FD1BC4800684A
:1024800000F00C0058B1BA48006800F00C000828B1
:102490001CD1B748001F006800F48000B0B9B448F0
:1024A00008380068C0F3400020B1E068012801D07E
:1024B000012063E7AE480838006820F0F800216981
:1024C00040EAC100AA490839086037E0E06800B373
:1024D0000120A8490860FFF779FC054606E0FFF7F0
:1024E00075FC401B022801D9032047E7A0480838A3
:1024F0000068C0F340000028F1D09D48083800680B
:1025000020F0F800216940EAC100994908390860C3
:1025100014E0002097490860FFF758FC054606E0E4
:10252000FFF754FC401B022801D9032026E79048FE
:1025300008380068C0F340000028F1D1207800F08E
:10254000080008282CD16069A8B101208A490860D8
:10255000FFF73CFC054606E0FFF738FC401B02286D
:1025600001D903200AE782486C300068C0F34000BC
:102570000028F1D014E000207F490860FFF726FC16
:10258000054606E0FFF722FC401B022801D9032084
:10259000F4E677486C300068C0F340000028F1D1C1
:1025A000207800F00400042870D1002670483830EC
:1025B000006800F0805090B900BF002000906C4887
:1025C0003830006840F0805069493831086008466A
:1025D000006800F08050009000BF00BF01266748EF
:1025E000006800F48070B0B96448006840F48070FE
:1025F00062490860FFF7EAFB054606E0FFF7E6FBE5
:10260000401B022801D90320B8E65C48006800F4AA
:1026100080700028F2D000BFA068012808D154487B
:102620006830006840F001005149683108601DE0E1
:10263000A06805280DD14E486830006840F00400BD
:102640004B49683108600846006840F001000860A6
:102650000CE047486830006820F0010044496831C8
:1026600008600846006820F00400086000BFA06809
:10267000A8B1FFF7ABFB054609E0FFF7A7FB401B3E
:1026800041F28831884202D9032077E626E03848B3
:1026900068300068C0F340000028EED013E0FFF778
:1026A00095FB054608E0FFF791FB401B41F288319E
:1026B000884201D9032061E62D4868300068C0F3E4
:1026C00040000028EFD1012E07D12948383000689A
:1026D00020F0805026493831086000BFA069B8B3A7
:1026E0002348006800F00C0008285ED0A06902288A
:1026F00046D100201F490866FFF768FB054606E043
:10270000FFF764FB401B022801D9032036E6184876
:1027100008380068C0F340600028F1D1D4E907010F
:102720000843616A40EA81110122A06AC2EB5000AD
:1027300041EA00412C20005D41EA00600C49091F7C
:10274000086001200B490866FFF740FB054607E0DB
:102750002DE0FFF73BFB401B022801D903200DE6CB
:10276000034808380068C0F340600028F1D01EE03C
:102770000838024000004742800E47420070004087
:1027800000200C490866FFF721FB054606E0FFF72D
:102790001DFB401B022801D90320EFE50648006815
:1027A000C0F340600028F2D101E00120E6E50020FE
:1027B000E4E500000000474200380240042808D148
:1027C0004FF0E021096941F004014FF0E02211616E
:1027D00007E04FF0E021096921F004014FF0E02209
:1027E00011617047704770B504462546681EB0F108
:1027F000807F01D301200FE0681E4FF0E021486187
:102800000F214FF0FF3001F051FD00204FF0E0218B
:10281000886107200861002070BD10B5FFF7E2FF56
:1028200010BD70477047024600BF92F8380001287B
:1028300001D102207047012082F8380000BF022039
:1028400082F839001068406820F070001368586002
:10285000106840680B6818431368586010688068F7
:1028600020F0800013689860106880684B681843F7
:1028700013689860012082F8390000BF002082F8B8
:10288000380000BF00BFD5E710B504460CB90120E1
:1028900010BD94F8390028B9002084F8380020468B
:1028A00000F00CF8022084F83900211D206801F0A6
:1028B00085FE012084F839000020E9E708B51E4AAA
:1028C000016891420FD100BF002100911B490968A6
:1028D00041F00401194A11601146096801F0040130
:1028E000009100BF27E0164A016891420FD100BF56
:1028F000002100911149096841F010010F4A11604F
:102900001146096801F01001009100BF13E00D4A63
:10291000016891420FD100BF002100910749096869
:1029200041F04001054A11601146096801F040017B
:10293000009100BF00BF08BD0008004040380240C1
:1029400000100040001800402DE9F04104460D46FB
:10295000002600BF94F83800012802D10220BDE80B
:10296000F081012084F8380000BF022084F839008B
:102970002068866826F0770626F47F462068866001
:10298000286850283BD00CDC202860D004DC0028CC
:1029900053D0102865D155E030285DD0402860D153
:1029A00041E0602835D070280DD0B0F5805F03D0AD
:1029B000B0F5005F55D115E02068806820F0070071
:1029C000216888604EE0D5E902136A68206801F04A
:1029D00067FE2068866826F0770646F0770620684E
:1029E00086603FE0D5E902136A68206801F058FE6E
:1029F0002068806840F480402168886032E0EA689E
:102A00006968206801F042FF5021206801F054FEFF
:102A100028E0EA686968206801F04DFF60212068BD
:102A200001F04AFE1EE0EA686968206801F02EFFA6
:102A30004021206801F040FE14E00021206801F0F0
:102A40003BFE0FE01021206801F036FE0AE0202155
:102A5000206801F031FE05E03021206801F02CFEF5
:102A600000E000BF00BF012084F8390000BF002053
:102A700084F8380000BF00BF71E7704710B5044606
:102A800020680069C0F34000D8B12068C068C0F376
:102A90004000B0B16FF0020021680861012020768B
:102AA0002068806900F0030018B12046FFF7E5FFB9
:102AB00005E0204600F0E0F8204600F07DF9002017
:102AC000207620680069C0F38000D8B12068C06813
:102AD000C0F38000B0B16FF00400216808610220EB
:102AE00020762068806900F4407018B12046FFF716
:102AF000C4FF05E0204600F0BFF8204600F05CF976
:102B00000020207620680069C0F3C000D8B120689A
:102B1000C068C0F3C000B0B16FF008002168086160
:102B2000042020762068C06900F0030018B1204618
:102B3000FFF7A3FF05E0204600F09EF8204600F0D6
:102B40003BF90020207620680069C0F30010D8B15E
:102B50002068C068C0F30010B0B16FF010002168A9
:102B60000861082020762068C06900F4407018B120
:102B70002046FFF782FF05E0204600F07DF8204662
:102B800000F01AF9002020762068006900F00100AA
:102B900058B12068C06800F0010030B16FF001004A
:102BA00021680861204600F008F920680069C0F338
:102BB000C01058B12068C068C0F3C01030B16FF0C9
:102BC0008000216808612046FFF72BFE206800691D
:102BD000C0F3801058B12068C068C0F3801030B1D5
:102BE0006FF0400021680861204600F0E7F8206897
:102BF0000069C0F3401058B12068C068C0F34010AD
:102C000030B16FF02000216808612046FFF70AFE0E
:102C100010BD000010B586B00446134920688842F4
:102C20000DD18014019002200290002003900490A6
:102C30000220059001A90D48FEF7B4FF11E00C49F0
:102C4000206888420DD14FF410700190022002904C
:102C50000020039004900920059001A90548FEF783
:102C6000A1FF06B010BD000000080040000C0240AB
:102C700000180040001C0240704770B504460D4625
:102C8000164600BF94F83800012801D1022070BD1B
:102C9000012084F8380000BF022084F8390036B1E2
:102CA000042E1BD0082E31D00C2E5ED145E02946D3
:102CB000206801F00BFD2068806940F00800216861
:102CC00088612068806920F004002168886120689C
:102CD0008069296908432168886147E0294620689E
:102CE00001F02CFD2068806940F400602168886153
:102CF0002068806920F4806021688861206880698C
:102D0000296940EA0120216888612FE0294620686E
:102D100001F050FD2068C06940F008002168C861DA
:102D20002068C06920F004002168C8612068C0697B
:102D3000296908432168C86118E02946206801F024
:102D400075FD2068C06940F400602168C861206892
:102D5000C06920F480602168C8612068C069296961
:102D600040EA01202168C86100E000BF00BF0120E7
:102D700084F8390000BF002084F8380000BF00BF8D
:102D800085E710B504460CB9012010BD94F8390050
:102D900028B9002084F83800204600F00CF8022002
:102DA00084F83900211D206801F008FC012084F816
:102DB00039000020E9E7704770477047704700000E
:102DC00008B501680968C1F3C00171B100BF0021F5
:102DD000009101680968009101684968009100BF8D
:102DE00000BF01684968014A117008BD4900002010
:102DF0002DE9F0470446206805682068C668206809
:102E000047694FF00008C14605F00F08B8F1000F00
:102E10000AD105F0200038B106F0200020B120468C
:102E200001F0F4FDBDE8F087B8F1000F6DD007F0B8
:102E3000010018B906F49070002866D005F0010072
:102E400030B106F4807018B1E06B40F00100E0632F
:102E500005F0040030B107F0010018B1E06B40F05C
:102E60000200E06305F0020030B107F0010018B184
:102E7000E06B40F00400E06305F0080030B107F0BB
:102E8000010018B1E06B40F00800E063E06B68B34C
:102E900005F0200028B106F0200010B1204601F016
:102EA000B5FD20684069C0F38019E06B00F00800B0
:102EB00010B9B9F1000F22D0204601F087FD20683B
:102EC000406900F04000B0B12068406920F0400047
:102ED00021684861606B50B11748616B0865606B91
:102EE000FEF7DAFB10B1606B016D88470CE02046FD
:102EF000FFF766FF08E02046FFF762FF04E0204688
:102F0000FFF75EFF0020E0638CE705F0800030B142
:102F100006F0800018B1204601F07AFF82E705F044
:102F2000400030B106F0400018B1204601F05EFDCF
:102F300078E700BF76E70000B949000810B50446FD
:102F40000CB9012010BDA06900B100E000BF94F8E9
:102F5000390028B9002084F83800204600F028F80D
:102F6000242084F839002068C06820F400502168CB
:102F7000C860204601F098FD2068006920F4904068
:102F8000216808612068406920F02A0021684861B2
:102F90002068C06840F400502168C8600020E063E9
:102FA000202084F8390084F83A000020CAE70000A5
:102FB00010B586B0044669492068884226D100BF12
:102FC000002000906648006840F4002064490860D2
:102FD0000846006800F40020009000BF00BF0320F6
:102FE0000190022002900120039003200490082009
:102FF000059001A95B48FEF7D5FD0022052134208C
:10300000FEF7E2FF3420FEF7D2FFA4E05649206825
:10301000884243D100BF002000905148001D006845
:1030200040F010004E49091D08600846006800F095
:103030001000009000BF00BFC0200190022002904D
:1030400000200390032004900720059001A9474821
:10305000FEF7A8FD4648474908604FF00060486009
:10306000002144488160C1604FF48061016100210A
:10307000416181614FF48071C1614FF4403101625F
:1030800000214162FEF73CFC18B1C3213AA001F0D7
:1030900067FF00BF3748606384635CE03A4920689B
:1030A000884233D100BF002000902D48006840F4D2
:1030B00000302B4908600846006800F4003000909A
:1030C00000BF00BF04200190022002900390032063
:1030D00004900720059001A92248FEF763FD08200F
:1030E000019002200290002003900320049007200A
:1030F000059001A91B48FEF755FD0022012126205D
:10310000FEF762FF2620FEF752FF24E01F492068E9
:10311000884220D100BF002000901148001D0068A7
:1031200040F020000E49091D08600846006800F0C4
:103130002000009000BF00BF4FF4844001900220A7
:10314000029000200390032004900820059001A91C
:103150000F48FEF727FD06B010BD0000004C0040F0
:1031600040380240000002400010014000040240CC
:1031700040640240500200202E2E2F5372632F75A0
:10318000736172742E63000000440040001401401B
:103190000018024010B52DED068B0446FB4920684F
:1031A000884273D1FA484078092817D2DFE800F046
:1031B0000517293F556F8399B200F54800782628F6
:1031C00003D10120F249487002E00020F049487024
:1031D000EF480078EE494978EE4A50546CE1EC48EB
:1031E0000078252803D10220E949487002E0002038
:1031F000E7494870E6480078E5494978E54A50547F
:103200005AE14B20E249087308460078000200B2F8
:1032100088800846007B09780844DD49087303204C
:103220004870084600784978DA4A505444E1D84852
:103230008088D7490978084400B2D5498880084673
:10324000007B09780844D249087304204870084676
:1032500000784978CF4A50542EE1CD4800782D2887
:1032600005D1CB488088404200B2C9498880C8480F
:10327000007BC74909780844C54908730520487090
:10328000084600784978C34A505415E115E1C04812
:103290000078000200B2BE49C8800846007B097869
:1032A0000844BB49087306204870084600784978EE
:1032B000B84A505400E1B648C088B5490978084476
:1032C00000B2B349C8800846007B09780844B04979
:1032D000087307204870084600784978AD4A505472
:1032E000EAE0AB4800782D2805D1A948C0884042C3
:1032F00000B2A749C880A648007BA54909780844C0
:10330000A349087308204870084600784978A14A04
:103310005054D1E09E48007B9D49097888427DD178
:103320009B4800789B4948725220994988704FF415
:103330007A730122891C984800F080F99748007A36
:1033400001286CD19648007801287AD19049B1F9CA
:103350000600FDF700F941EC1A0B9FED920B53ECC0
:10336000102BFDF717F841EC190BB0EE490AF0EEFF
:10337000690A01F011FEB0EE408AF0EE608A9FED1E
:103380008B0B53EC102B51EC180BFDF703F8894A0B
:1033900003C28949B1F90200FDF7DDF841EC190BD0
:1033A000844890ED000B53EC102B51EC190BFCF7FB
:1033B0004AFF41EC180BFDF7DFF800B27F490880A7
:1033C0007349B1F90400FDF7C6F841EC1A0B9FED03
:1033D000750B53EC102BFCF7DDFF41EC190BB0EE35
:1033E000490AF0EE690A01F0D7FDB0EE408AF0EE2E
:1033F000608A9FED730B53EC102B51EC180BFCF70C
:10340000C9FF6C4A03C27049B1F90200FDF7A3F885
:1034100041EC190B674890ED000B02E03BE039E00E
:103420000FE053EC102B51EC190BFCF7ADFF41EC06
:10343000180BFDF7A1F800B2644908800020584934
:1034400008706148B0F902006049B1F90010401AF3
:1034500010F11E0F2CDD5C48B0F902005B49B1F998
:103460000010401A1E2823DA5348B0F902005349CD
:10347000B1F90010401A10F1640F19DD4E48B0F98F
:1034800002004E49B1F90010401A642810DA0120F8
:10349000434908700CE000203D498880C8805720CF
:1034A00088704FF47A730122891C3B4800F0C6F8FB
:1034B00000203749487000BFBAE04549206888427B
:1034C000FAD04449206888425ED14348817D007823
:1034D00000F07F024048401C8154401E007800F0FC
:1034E0007F0030B93C484078242802D0BDEC068BE0
:1034F00010BD39480078401C3749087008460078EC
:1035000000F07F00082840D10846407D897D884230
:103510007ED1002006E03049491CC21C895C2F4A3C
:103520001154401C0428F6DB2B488078642857D0BF
:10353000692815D0702867D127488069274909680C
:1035400081612548C0782D2809D12348806990EDF4
:10355000060AB1EE400A2048806980ED060A53E071
:103560001D4880691D490968C1611B48C0782D2824
:1035700009D11948806990ED070AB1EE400A164852
:10358000806980ED070A3FE052E04AE000440040D5
:103590002204002010060020D0010020F6020020A6
:1035A000480000200135B56CAD2F623F6666666647
:1035B00066608F4050000020DC03002034000020B3
:1035C0003333333333609440EA0300203600002065
:1035D00000140140004C0040300400205B0000203B
:1035E000144880691449096801621248C0782D287E
:1035F00009D11048806990ED080AB1EE400A0D48E3
:10360000806980ED080A00BF00BF0020094900E082
:1036100002E0487508700BE0002006494875087004
:1036200006E00448407D0349897D08440149487506
:1036300000BF5BE7300400205B0000202DE9F84369
:1036400004460D4616461F464FF0000994F839000F
:1036500020285CD105B116B90120BDE8F88300BF70
:1036600094F83800012801D10220F6E7012084F8FF
:10367000380000BF0020E063212084F83900FEF705
:10368000A5FB8146A684E6842BE0E08C401EE08406
:10369000A068B0F5805F16D14B46002280212046FD
:1036A000009701F0E9FB08B10320D6E7A846B8F877
:1036B0000000C0F3080021684860206908B9AD1C0B
:1036C0000FE06D1C0DE04B46002280212046009744
:1036D00001F0D2FB08B10320BFE715F8010B216808
:1036E0004860E08C0028D0D14B4600224021204683
:1036F000009701F0C1FB08B10320AEE7202084F859
:10370000390000BF002084F8380000BFA5E7022080
:10371000A3E7704700BFFEE710B500200F4908601F
:103720000F48006820F440700D49086008460068A2
:1037300040F48070086000200A49C1F8900202201D
:1037400001F056FE012005490860022001F050FEFC
:1037500000200449C1F8940210BD000094024242C6
:103760000010024000004242012003490860034962
:10377000C1F89002704700009402424200004242A9
:1037800010B500200F4908600F48006820F4407011
:103790000D4908600846006840F480700860012008
:1037A0000A49C1F89002022001F022FE01200549D9
:1037B0000860022001F01CFE00200449C1F89402B8
:1037C00010BD00009402424200100240000042423C
:1037D00070B5054600241648006820F4407014496E
:1037E0000860084600680860002616E000201149BD
:1037F0000860022001F0FCFD01200F49C1F894028D
:103800006006040E0B488438006808B1601CC4B21E
:10381000012001F0EDFD701CC6B2082EE6DB15B9E3
:10382000FFF7AEFF01E0FFF777FF204670BD000015
:1038300000100240940242420000424270B5044629
:103840001548006820F44070134908600846006875
:1038500040F480700860002010490860002517E0DF
:10386000E0090E49091F08606006040E022001F0FD
:10387000BFFD01200A49C1F89402022001F0B8FD01
:10388000002006490860022001F0B2FD681CC5B2A4
:10389000082DE5DB70BD000000100240940242429A
:1038A0000000424210B50F48006820F440700D49F6
:1038B00008600846006840F48070086001200A49EA
:1038C00008600A49C1F89402042001F091FD00202B
:1038D00005490860042001F08BFD00200349C1F870
:1038E000940210BD00100240900242420000424289
:1038F00010B50F48006820F440700D490860084674
:10390000006840F48070086000200A4908600A4995
:10391000C1F89002042001F06BFD01200549086008
:103920000549C1F89002042001F062FD10BD0000BD
:1039300000100240940242420000424210B50024AE
:103940001348006820F44070114908600846006878
:10395000086001200F49086001F04AFD01200E496E
:10396000C1F8940201F044FD07E0601CC4B2FA2CD7
:1039700003DDFFF7BDFF012010BD06488038006859
:103980000028F2D10349091D086000BFF4E70000D8
:1039900000100240900242420000424210B5284A04
:1039A000911E881E00F0F5F8254A243A911E881EC3
:1039B00000F0C7F822483438018EB0F84200081AE7
:1039C00001B21F4834380186418EB0F84400081A0D
:1039D00001B21B4834384186818EB0F84600081A7F
:1039E00001B2174834388186B0F9300000EE100A71
:1039F000B8EEC00ADFED130A80EE201A1048343802
:103A000080ED091AB0F9320000EE100AB8EEC00AD3
:103A1000DFED0C0A80EE201A0948343880ED0A1ACE
:103A2000B0F9340000EE100AB8EEC00ADFED050A66
:103A300080EE201A0248343880ED0B1A10BD0000C9
:103A400050060020333383412DE9F0411427002430
:103A50000025002616E01A4A911E881E00F099F8EB
:103A600017483438B0F93000044415483438B0F9F8
:103A70003200054412483438B0F93400064464205A
:103A800001F0AAFC381EA7F10107E4D1142094FB31
:103A9000F0F001B20A483438A0F84210142095FB27
:103AA000F0F001B206483438A0F84410142096FB18
:103AB000F0F001B202483438A0F84610BDE8F081B9
:103AC0005006002010B5FFF74FFE80216B2000F05C
:103AD0002CF96420FDF78AFF00216B2000F025F906
:103AE000032000F0DDF8002000F0D2F84FF47A70E7
:103AF00000F0FEF80021382000F017F900216A20BC
:103B000000F013F97021232000F00FF980213720F5
:103B100000F00BF9752000F064F80446682C0CD115
:103B200001216B2000F001F900216C2000F0FDF86C
:103B30004FF47A7000F0DCF801E0012010BD0020A5
:103B4000FCE72DE9FC4104460D4616466B4606226D
:103B50003B21682000F062F80746BFB99DF80100DC
:103B60009DF8001040EA012000B220809DF803007B
:103B70009DF8021040EA012000B228809DF805005F
:103B80009DF8041040EA012000B230803846BDE8BC
:103B9000FC812DE9FC4104460D4616466B46062283
:103BA0004321682000F03AF80746BFB99DF80100AC
:103BB0009DF8001040EA012000B220809DF803002B
:103BC0009DF8021040EA012000B228809DF805000F
:103BD0009DF8041040EA012000B230803846BDE86C
:103BE000FC8170B50446FFF75DFED020FFF726FE8E
:103BF000FFF7A4FE2046FFF721FEFFF79FFEFFF729
:103C000051FED120FFF71AFEFFF798FE0020FFF7C4
:103C1000DFFD0546FFF76CFE284670BD2DE9F0413B
:103C200006460F4614461D46FFF73CFE002141EABA
:103C30004601C8B2FFF702FEFFF780FE20B1FFF792
:103C400057FE0120BDE8F0813846FFF7F7FDFFF78A
:103C500075FEFFF727FE012101EB4601C8B2FFF711
:103C6000EDFDFFF76BFE0DE0012C04D10020FFF706
:103C7000AFFD287003E00120FFF7AAFD2870601E49
:103C8000C4B26D1C002CEFD1FFF732FE0020D9E743
:103C900010B50446E006010E1C2000F046F810BDE9
:103CA00010B50446E006010E1B2000F03EF810BDE2
:103CB00070B504460025FF2C00DB14E0BC2C01DBB2
:103CC000012510E0622C01DB02250CE02A2C01DB2F
:103CD000032508E0142C01DB042504E00A2C01DB99
:103CE000052500E0062529461A2000F01EF870BDC3
:103CF00070B50446B4F57A7F01DD4FF47A74042C74
:103D000000DA04244FF47A7090FBF4F0401EC5B240
:103D10002946192000F009F80546264604EBD6711D
:103D2000C1F34F00FFF7C4FF70BD70B505460C46E8
:103D3000FFF7B8FDD020FFF781FDFFF7FFFD18B1B9
:103D4000FFF7D6FD012070BD2846FFF777FDFFF78E
:103D5000F5FD2046FFF772FDFFF7F0FD18B1FFF704
:103D6000C7FD0120EFE7FFF7C3FD0020EBE70000F0
:103D700010B50F480F4908600520486000210D4824
:103D80008160C1604FF4003101614901416101214D
:103D90000176002141768176C17601770121417754
:103DA000FDF744FB18B1452103A001F0D9F810BD7F
:103DB00000640040740000202E2E2F5372632F6386
:103DC000616E2E630000000008B500BF0020009067
:103DD0000648006840F4800004490860084600680E
:103DE00000F48000009000BF00BF08BD30380240E2
:103DF00000B587B000BF002001905648006840F031
:103E00004000544908600846006800F040000190F6
:103E100000BF00BF00BF002001900846006840F0CE
:103E2000020008600846006800F00200019000BF30
:103E300000BF00BF002001900846006840F010005D
:103E400008600846006800F01000019000BF00BF45
:103E500000BF002001900846006840F0080008609C
:103E60000846006800F00800019000BF00BF00BFD6
:103E7000002001900846006840F0200008600846D5
:103E8000006800F02000019000BF00BF00BF0020CC
:103E900001900846006840F080000860084600680D
:103EA00000F08000019000BF00BF00BF0020019023
:103EB0000846006840F0010008600846006800F00D
:103EC0000100019000BF00BF00224FF400512248C2
:103ED000FDF776FF002210212048FDF771FF002238
:103EE000B0211F48FDF76CFF002244F201011D487C
:103EF000FDF766FF4FF40050029001200390002070
:103F00000490059002A91448FDF74CFE1020029081
:103F10000120039000200490059002A90F48FDF7AE
:103F200041FEB020029001200390002004900590F3
:103F300002A90B48FDF736FE44F201000290012071
:103F4000039000200490059002A90648FDF72AFE80
:103F500007B000BD303802400018024000040240A3
:103F6000001002400014024010B5002211463A2011
:103F7000FEF72AF83A20FEF71AF80022022136202E
:103F8000FEF722F83620FEF712F80022042147201F
:103F9000FEF71AF84720FEF70AF810BD00B58BB0FF
:103FA0002448254908605920486000212248816042
:103FB00040F6C311C16000210161FEF765FC18B134
:103FC00085211EA000F0CCFF4FF48050079007A978
:103FD0001948FEF7B9FC18B18B2118A000F0C0FFFA
:103FE0001548FEF7CEFE18B1902114A000F0B8FFDE
:103FF000602000904FF47A700190002002900490AD
:10400000002269460C48FEF738FE18B199210BA032
:1040100000F0A6FF042269460748FEF72EFE18B1FD
:104020009E2106A000F09CFF0348FEF7F3FD0BB0B5
:1040300000BD000000180040140100202E2E2F5358
:1040400072632F74696D2E630000000000B58DB09F
:10405000254826490860592048600021234881608E
:1040600040F2CF71C16000210161FEF70DFC18B173
:1040700041211FA000F074FF4FF48050099009A95E
:104080001A48FEF761FC18B1472119A000F068FF3B
:104090001648FEF776FE18B14C2115A000F060FF1F
:1040A00000200790089007A91048FEF7BCFB18B144
:1040B00053210FA000F054FF602000904FF4FA70DD
:1040C0000190002002900490002269460748FEF704
:1040D000D4FD18B15C2106A000F042FF0348FEF7B2
:1040E00099FD0DB000BD0000000800409C000020BC
:1040F0002E2E2F5372632F74696D2E630000000003
:104100001CB50F480F4908605920486000210D4830
:10411000816040F2E731C160FEF7B6FB18B16D2156
:1041200009A000F01DFF002000900190694605489D
:10413000FEF779FB18B1742103A000F011FF1CBD3C
:1041400000100040D80000202E2E2F5372632F74D1
:10415000696D2E630000000010B50C480C49086022
:104160004FF4E1304860002109488160C16001617D
:104170000C21416100218161C161FEF7DFFE18B1B0
:10418000462104A000F0ECFE10BD0000004C0040F1
:10419000500100202E2E2F5372632F75736172749D
:1041A0002E63000010B50C480C4908600C484860AC
:1041B00000210A488160C16001610C214161002138
:1041C0008161C16100221146FDF7A4FE18B1592199
:1041D00004A000F0C5FE10BD0010014090010020B9
:1041E000A08601002E2E2F5372632F757361727497
:1041F0002E63000010B50D480D4908604FF4E13002
:10420000486000210A488160C16001610C21416160
:1042100000218161C16100221146FDF77BFE18B1CA
:104220006C2104A000F09CFE10BD00000044004082
:10423000D00100202E2E2F5372632F75736172747C
:104240002E63000010B50D480D4908604FF4E130B1
:10425000486000210A488160C16001610C21416110
:1042600000218161C16100221146FDF753FE18B1A2
:104270007F2104A000F074FE10BD00000014014076
:10428000100200202E2E2F5372632F7573617274EB
:104290002E63000000BFFEE7704700000248006880
:1042A000C0F30220704700000CED00E010B50028BC
:1042B00007DA0A07140E054A00F00F031B1FD45437
:1042C00003E00A07130E024A135410BD18ED00E074
:1042D00000E400E090F83010E9BB90ED030A80EDB7
:1042E000040A90ED000AD0ED010A30EE600A80ED7C
:1042F000030A90ED020AD0ED030A90ED071A00EED2
:10430000810A80ED020A90ED020AD0ED090AB4EEAE
:10431000E00AF1EE10FA04DD90ED090A80ED020AE0
:1043200010E090ED020AD0ED090AF1EE600AB4EE59
:10433000E00AF1EE10FA05D290ED090AB1EE400A5A
:1043400080ED020A90ED020AD0ED030A90ED061A04
:1043500000EE810A00E00CE0D0ED030A90ED041AB3
:1043600070EEC10A90ED081A00EE810A80ED0A0A8B
:1043700035E090ED040A80ED050A90ED030A80ED2A
:10438000040A90ED000AD0ED010A30EE600A80EDDB
:10439000030A90ED030AD0ED040A30EE600AD0ED76
:1043A000060A20EE200AD0ED030A90ED071A00EE6F
:1043B000810AD0ED030A90ED041AF0EE001A41EEE6
:1043C000C10A90ED051A70EE810A90ED081A00EE10
:1043D000810AD0ED0A0A30EE200A80ED0A0A90ED3B
:1043E0000A0AD0ED0B0AB4EEE00AF1EE10FA04DD91
:1043F00090ED0B0A80ED0A0A10E090ED0A0AD0ED6C
:104400000B0AF1EE600AB4EEE00AF1EE10FA05D202
:1044100090ED0B0AB1EE400A80ED0A0A70470000E9
:1044200080ED060AC0ED070A80ED081ADFED052AC7
:10443000C0ED022AC0ED091A80ED0B2A80F8301079
:1044400070470000000000007047704710B5FDF78E
:10445000C3FCFEF7E2F910BD10B592B000BF00201A
:1044600000903248006840F08050304908600846AB
:10447000006800F08050009000BF00BF00BF002027
:1044800000902B48006840F44040294908600846E5
:10449000006800F44040009000BF00BF012006907B
:1044A0000004079002200C9041050D9106210E9109
:1044B000B4210F91022110910421119106A8FDF75A
:1044C00059FF18B1B4211BA000F04AFDFDF7CEFD45
:1044D00018B1BB2117A000F043FD0F20019002206E
:1044E0000290002003904FF4A05004904FF48050AD
:1044F0000590052101A8FDF7FFFD18B1C9210DA008
:1045000000F02EFDFDF7B8FE4FF47A71B0FBF1F428
:104510002046FEF768F90420FEF750F90022114604
:10452000501EFDF751FD12B010BD00004038024092
:10453000007000402E2E2F5372632F6D61696E2E16
:10454000630000001448006840F4700012490860DD
:104550001248006840F001001049086000200F492F
:10456000083108600D4800680D4908400B49086093
:104570000C48091D0860081F006820F48020091FEE
:104580000860002005490C3108604FF000600249C6
:10459000803908607047000088ED00E00038024074
:1045A000FFFFF6FE1030002410B500F09BF9024822
:1045B000FEF764FA10BD0000D80000200022026857
:1045C0002C4B98420ED0B0F1804F0BD02A4B984222
:1045D00008D02A4B984205D0294B984202D0294B4B
:1045E000984201D1012300E000231BB122F07002A8
:1045F0004B681A431F4B984220D0B0F1804F1DD01A
:104600001D4B98421AD01D4B984217D01C4B984214
:1046100014D01C4B984211D01B4B98420ED01B4B10
:1046200098420BD01A4B984208D01A4B984205D0AA
:10463000194B984202D0194B984201D1012300E056
:1046400000231BB122F44072CB681A4302608B68CE
:10465000C3620B688362074B984202D0094B9842B1
:1046600001D1012300E000230BB10B690363012397
:104670004361704700000140000400400008004012
:10468000000C004000040140004001400044014093
:104690000048014000180040001C0040002000407D
:1046A00030B50C460021816821F47F4142EA0325A0
:1046B00025432943816030BD0A460021816821F0ED
:1046C000700142F0070319438160704730B5002440
:1046D00000220023056A25F001050562026A43688D
:1046E000846924F0700424F003040D682C4322F044
:1046F00002028D682A430F4DA84202D00E4DA842F7
:1047000001D1012500E000256DB122F00802CD683D
:104710002A4322F0040223F4807323F400734D69CA
:104720002B438D692B43436084614D68456302626E
:1047300030BD0000000001400004014030B50024FD
:1047400000220023056A25F010050562026A43680D
:10475000846924F4E04424F440740D6844EA052498
:1047600022F020028D6842EA0512104DA84202D0C4
:104770000F4DA84201D1012500E0002585B122F0AE
:104780008002CD6842EA051222F0400223F48063E1
:1047900023F400634D6943EA85038D6943EA850389
:1047A000436084614D688563026230BD0000014052
:1047B0000004014030B5002400220023056A25F4DE
:1047C00080750562026A4368C46924F0700424F0AD
:1047D00003040D682C4322F400728D6842EA05221E
:1047E000104DA84202D0104DA84201D1012500E091
:1047F000002585B122F40062CD6842EA052222F448
:10480000806223F4805323F400534D6943EA051377
:104810008D6943EA05134360C4614D68C563026254
:1048200030BD0000000001400004014030B500220E
:1048300000230024056A25F480550562036A446854
:10484000C26922F4E04222F440720D6842EA052275
:1048500023F400538D6843EA05330A4DA84202D081
:10486000094DA84201D1012500E0002525B124F41D
:1048700080444D6944EA85144460C2614D68056412
:10488000036230BD000001400004014030B50B461A
:10489000144600210022026A056A25F0010505621E
:1048A000816921F0F00141EA041122F00A021A4361
:1048B0008161026230BD30B50B46144600210022F2
:1048C000056A25F0100505628169026A21F47041CC
:1048D00041EA043122F0A00242EA0312816102623D
:1048E00030BD000010B50120294908602948008822
:1048F000401C28490880FFF751F826480088092104
:1049000090FBF1F201FB1200E0B92348B0F902007C
:1049100000EE100AB8EEC00A204880ED010A9FEDB3
:10492000200A80ED000AFFF7D5FC1C4991ED0A0A28
:10493000BDEEC00A10EE101A08B200231A4619463E
:1049400000F0E0FA154890ED020A164880ED000AE2
:104950001148B0F9020000EE100AB8EEC00A114882
:1049600080ED010A0D4890ED0A0A0E4880ED020A1A
:10497000102100F009FE07480088B0F57A7F02DBBD
:1049800000200449088000200149086010BD000093
:10499000B8824242440000200C0300201C05002085
:1049A0000000FA44EC05002010B50248FEF720FA9A
:1049B00010BD00005001002070B50546AC6B002012
:1049C000E085E0842046FEF7FBF970BD0168C96808
:1049D00021F490710268D1600168496921F00101F8
:1049E00002685161202180F83A10704710B50446E2
:1049F0002068C06820F040002168C860202084F84A
:104A000039002046FEF785FE002010BD70B5044633
:104A100094F83A00222844D1A068B0F5805F13D101
:104A2000A56A206940B920684068C0F30800288062
:104A3000A06A801CA06219E020684068C0B228808B
:104A4000A06A401CA06211E0206938B92068406863
:104A5000C1B2A26A501CA062117007E020684068D1
:104A600000F07F01A26A501CA0621170E08D401E10
:104A700080B2E08598B92068C06820F49070216801
:104A8000C8602068406920F001002168486120204A
:104A900084F83A002046FEF77DFB002070BD002020
:104AA000FCE70220FAE700002DE9F041044600256A
:104AB0002068056925F44055E068054320680561D4
:104AC0002068C56849F20C6085432169A0680843E5
:104AD00061690843E169084305432068C5602068AF
:104AE000456925F44075A069054320684561E06982
:104AF000B0F5004F7ED1C4492068884203D0C34935
:104B0000206888425DD1FDF7CDFB00EBC00101EBD1
:104B1000001061684900B0FBF1F06421B0FBF1F0D6
:104B20000601FDF7BFFB00EBC00101EB001061685F
:104B30004900B0FBF1F7FDF7B5FB00EBC00101EB5D
:104B4000001061684900B0FBF1F06421B0FBF1F0A6
:104B500000EBC00101EB0010A7EB8000322101EB5C
:104B6000C0006421B0FBF1F000F0F80006EB400655
:104B7000FDF798FB00EBC00101EB001061684900F4
:104B8000B0FBF1F7FDF78EFB00EBC00101EB00106D
:104B900061684900B0FBF1F06421B0FBF1F000EB7B
:104BA000C00101EB0010A7EB8000322101EBC00037
:104BB0006421B0FBF1F000F0070030442168886008
:104BC00020E1FDF75FFB00EBC00101EB0010616825
:104BD0004900B0FBF1F06421B0FBF1F00601FDF7F4
:104BE00051FB00EBC00101EB001061684900B0FB14
:104BF000F1F700E045E0FDF745FB00EBC00101EBFC
:104C0000001061684900B0FBF1F06421B0FBF1F0E5
:104C100000EBC00101EB0010A7EB8000322101EB9B
:104C2000C0006421B0FBF1F000F0F80006EB400694
:104C3000FDF728FB00EBC00101EB001061684900A3
:104C4000B0FBF1F7FDF71EFB00EBC00101EB00101C
:104C500061684900B0FBF1F06421B0FBF1F000EBBA
:104C6000C00101EB0010A7EB8000322101EBC00076
:104C70006421B0FBF1F000F0070030442168886047
:104C8000C0E061492068884203D0604920688842BA
:104C90005CD1FDF707FB00EBC00101EB0010616880
:104CA0008900B0FBF1F6FDF7FDFA00EBC00101EB66
:104CB000001061688900B0FBF1F06421B0FBF1F0F5
:104CC00000EBC00101EB0010A6EB8000322101EBEC
:104CD00000106421B0FBF1F000F0F006FDF7E2FAFD
:104CE00000EBC00101EB001061688900B0FBF1F03E
:104CF0006421B0FBF1F006EB0016FDF7D3FA00EBF0
:104D0000C00101EB001061688900B0FBF1F7FDF70D
:104D1000C9FA00EBC00101EB001061688900B0FB2B
:104D2000F1F06421B0FBF1F000EBC00101EB0010E9
:104D3000A7EB8000322101EB00106421B0FBF1F001
:104D400000F00F003044216888605BE0FDF79AFABC
:104D500000EBC00101EB001061688900B0FBF1F6C7
:104D6000FDF790FA00EBC00101EB001061688900CB
:104D7000B0FBF1F06421B0FBF1F000EBC00101EBFE
:104D80000010A6EB8000322101EB00106421B0FB83
:104D9000F1F000F0F006FDF775FA00EBC00101EB51
:104DA000001061688900B0FBF1F06421B0FBF1F004
:104DB00006EB0016FDF766FA00EBC00101EB0010F0
:104DC00061688900B0FBF1F7FDF75CFA00EBC00108
:104DD00001EB001061688900B0FBF1F06421B0FBC9
:104DE000F1F000EBC00101EB0010A7EB80003221D5
:104DF00001EB00106421B0FBF1F000F00F00304433
:104E000021688860BDE8F081001001400014014075
:104E1000014691F8390021282CD18868B0F5805FCF
:104E20000FD10A6A1088C0F308000B68586008693F
:104E300018B9086A801C086209E0086A401C086208
:104E400005E00B6A581C086218780B685860C88C1B
:104E5000401E80B2C88458B90868C06820F080003D
:104E60000B68D8600868C06840F040000B68D860E4
:104E7000002070470220FCE72DE9F04104460D4672
:104E800017469846069E21E0701CF8B12EB1FCF73B
:104E90009DFFA0EB0800B04218D92068C06820F43C
:104EA000D0702168C8602068406920F00100216846
:104EB0004861202084F8390084F83A0000BF0020BF
:104EC00084F8380000BF0320BDE8F0812068006846
:104ED0002840A84201D1012000E00020B842D3D0F0
:104EE0000020F1E710B50248FDF782FF10BD000079
:104EF000D001002010B50248FDF77AFF10BD000078
:104F0000100200202DE9F04107460C4615461E46CA
:104F10004FF400700D49086000208860C8600820C8
:104F20000861380A0A4908704F70200A8870CC70EE
:104F3000280A08714D71300A8871CE71054B0A46F6
:104F400002490548FBF75EFFBDE8F081B002002092
:104F5000140000201C0000207400002000BFFEE7A9
:104F600000BFFEE703B401984100009850EAC12059
:104F700018BF04204A0D18BF40F0010040F2FF7234
:104F8000B2EB515F08BF40F00200012808BF0520C6
:104F900002B070470000000070B59B482DED020B79
:104FA0002DED068B079D25F00044A04218DC9748A4
:104FB000844202DC0AD1069840B19DED060BBDEC9F
:104FC000068B02B0BDE8704000F0CEB9002DCCBF1A
:104FD0009FED8F0B9FED900BBDEC068B02B070BD6B
:104FE0008F48A04215DD8F48A042D8BF4FF0FF3454
:104FF00058DD9DED060B51EC100BFFF7B3FF0428B5
:1050000008BF00F0BDF99DED060BBDEC068B02B0AC
:1050100070BD9DED060B51EC100B00F00DFACDE9C3
:10502000060181489FED828BA0423CDD8248A04270
:105030001FDD00249FED82AB9DED060B53EC1A2B78
:1050400051EC100BFBF7FFF89DED060B41EC190B33
:1050500053EC1A2B51EC100BFBF79CF953EC182B6B
:10506000FBF792F953EC192BFBF706FACDE9060191
:1050700049E09DED060B012453EC182B51EC100B6D
:10508000FBF7E1F89DED060B41EC190B53EC182BE7
:1050900051EC100BFBF778F953EC192BFBF7ECF9FB
:1050A000CDE906012FE06848A0421FDD02249FEDF4
:1050B000689B9DED060B53EC192B51EC100BFBF785
:1050C00069F953EC182BFBF7BEF89DED060B41EC8C
:1050D000180B53EC192B51EC100BFBF755F953EC53
:1050E000182BFBF7C9F9CDE906010CE09DED060B85
:1050F000032453EC102B9FED580B51EC100BFBF7D6
:10510000BBF9CDE906019DED060B53EC102B51ECDC
:10511000100BFBF73FF941EC180B53EC182BFBF786
:1051200039F941EC190B4E480621B0EE490AF0EE70
:10513000690A784400F09CF853EC182B51EC100BE2
:10514000FBF728F941EC180B4648B0EE490AF0EE9F
:10515000690A0521784400F08BF853EC192B51ECC7
:10516000100BFBF717F941EC100B51EC180B53EC3B
:10517000102B002C0EDAFBF766F89DED061B53ECA6
:10518000112BFBF707F99DED061B53EC112BFBF7D9
:10519000FEF835E0FBF757F89DED061B53EC112B9D
:1051A000FBF7F8F841EC100B2F48784400EBC400F3
:1051B00090ED001B51EC100B53EC112BFBF7E4F8B6
:1051C0009DED061B53EC112BFBF7DEF841EC100BA9
:1051D0002648784400EBC40090ED001B51EC100B06
:1051E00053EC112BFBF7D3F841EC100B002DA2BFB1
:1051F000BDEC068B02B070BD51EC100B81F000418C
:1052000041EC100B01E70000000010440000F07FAB
:10521000182D4454FB21F93F182D4454FB21F9BFAC
:105220000000DC3F0000203E0000F33F00000000D3
:10523000000000000000F03F0000E63F000000001A
:10524000000000000000004000800340000000005B
:10525000000000000000F83F000000000000F0BF68
:105260003A050000F00400007A0400003204000057
:1052700070B504462DED028B4D1E00EBC500B0EE5F
:10528000408AF0EE608A90ED000B35F0060017D0F2
:1052900053EC182B51EC100BFBF77CF841EC100B86
:1052A0006D1E04EBC50090ED001B51EC100B53EC90
:1052B000112BFAF7C8FF41EC100B35F00600E7D1CF
:1052C000022D36D0042D1CD0062D1CBFBDEC028B48
:1052D00070BD53EC182B51EC100BFBF75BF894ED01
:1052E0000A1B53EC112BFAF7AEFF53EC182BFBF70C
:1052F00051F894ED081B53EC112BFAF7A4FF41EC85
:10530000100B53EC182B51EC100BFBF743F894EDFA
:10531000061B53EC112BFAF796FF53EC182BFBF7F7
:1053200039F894ED040B53EC102BFAF78CFF41EC99
:10533000100B53EC182B51EC100BFBF72BF894EDE2
:10534000021B53EC112BFAF77EFF53EC182BFBF7E3
:1053500021F894ED001B53EC112BFAF774FFBDEC10
:10536000028B41EC100B70BD10B553EC102B51ECBF
:10537000100BFAF768FF41EC100B10BD00000000A5
:105380009FED050B10B553EC102B51EC100BFBF7F8
:1053900001F841EC100B10BD0000000000000010EF
:1053A00002E008C8121F08C1002AFAD170477047EE
:1053B000002001E001C1121F002AFBD1704700004C
:1053C0000120034908600349C1F89C0270470000AE
:1053D000B88242420000424230B50446002504E053
:1053E0004FF47A7000F004F86D1CA542F8D330BD7C
:1053F00070B5034600224FF0E02675690D4E3678F1
:1054000003FB06F44FF0E026B16910E04FF0E02610
:10541000B06988420BD0884202D20E1A324402E0B0
:105420002E1A0E4432440146A24200D300E0EDE7BA
:1054300000BF70BD6400002082B0CDE9000121F002
:10544000004001909DED000B02B051EC100B704735
:1054500030B503460C461546002206E0184600F01B
:1054600007F844F822001B1D521CAA42F6DB30BD8F
:1054700001460868704700002DE9F04186B00446F7
:105480000E464FF00008002000901C4D002705F04C
:10549000030010B106B0BDE8F081FCF769FB002005
:1054A0000190172003900120049002200590694686
:1054B00001A8FCF7AFFA10B1FCF704FBEAE74CF2E5
:1054C0005030FBF757FC8046B8F1000F11D1002790
:1054D0000CE0D4F800C06246002329460220FCF705
:1054E000FBFA00B1D6E72D1D241D7F1C701EB842AB
:1054F000EFD2FCF7E7FA00BFCCE7000000001E087F
:1055000088B0FCF775FCFEF7A7FFFEF771FCFEF70D
:105510005BFCFEF72DFCFEF799FDFEF7F1FDFEF7B3
:105520003DFDFEF719FEFEF73DFEFEF78BFEFEF792
:1055300061FEFEF719FD124B0FCBCDE90623CDE935
:105540000401042104A8FFF797FF002000900190B8
:1055500002900390042269460A48FFF779FFFBF79F
:10556000CBF84FF4FA60FCF741FAFBF73FF9FEF78E
:10557000A9FAFEF769FAFFF723FF00BFFEE7000074
:10558000D455000800001E087CB504460D460EA048
:10559000006801900DA00068009041F2883302225B
:1055A00001A90B48FEF74AF8AAB241F28833214616
:1055B0000748FEF743F841F288330222694604485F
:1055C000FEF73CF87CBD000003FC0000FC0300007B
:1055D00050010020FFFFFFFFFFFFFFFFFFFFFFFF66
:1055E000FFFFFFFF000000000000000001020304B5
:1055F0000607080900000000010203040006101657
:1056000000061016000000004FBB610567ACDD3FCF
:10561000182D4454FB21E93F9BF681D20B73EF3FD9
:10562000182D4454FB21F93FE2652F227F2B7A3C51
:10563000075C143326A6813CBDCBF07A8807703C0A
:10564000075C143326A6913CC4EB98999999C9BF7D
:10565000711623FEC671BCBF6D9A74AFF2B0B3BFB2
:105660009AFDDE522DDEADBF2F6C6A2C44B4A2BF72
:105670000D5555555555D53FFF8300922449C23FDE
:105680006E204CC5CD45B73F513DD0A0660DB13F12
:10569000EB0D76244B7BA93F11DA22E33AAD903F24
:1056A000C05600080000002074000000A05300084D
:1056B0003457000874000020440A0000B05300086A
:1056C00000000000000000000024F40000000000C2
:1056D00000000000000000000000000000000000CA
:1056E00000000000000000000000000000000000BA
:1056F00000000000000000000000000000000000AA
:105700000000000000000000010000000000000098
:105710000000000000000000000000000000000089
:105720000000000000000000000000001000000069
:045730000100000074
:04000005080001AD41
:00000001FF
