:020000040800F2
:10000000680C0020C1010008D1440008A339000891
:10001000CD4400081D090008FD5200080000000042
:10002000000000000000000000000000A7460008DB
:10003000F30D000800000000A5460008A9460008CE
:10004000DB010008DB010008DB010008DB01000820
:10005000DB010008DB010008DB010008DB01000810
:10006000DB010008DB010008DB010008DB01000800
:10007000DB010008DB010008DB010008DB010008F0
:10008000DB010008DB010008DB0100089109000822
:1000900065090008DB010008DB010008DB0100083E
:1000A000DB010008DB010008DB010008DB010008C0
:1000B000DB010008DB010008DB010008DB010008B0
:1000C000DB010008DB010008DB010008DB010008A0
:1000D000DB010008DB01000851520008DB010008C9
:1000E000DB010008DB010008DB010008DB01000880
:1000F000DB010008DB010008DB010008DB01000870
:10010000DB010008DB010008DB010008DB0100085F
:100110005D4C0008DB01000809480008DB0100080D
:10012000DB010008DB010008D50C0008DB0100083A
:10013000DB010008DB010008DB010008DB0100082F
:10014000DB010008DB010008DB010008DB0100081F
:10015000DB010008DB010008DB0100089152000808
:10016000DB010008DB010008DB010008DB010008FF
:10017000DB010008DB010008DB01000800000000D3
:10018000DB010008DB010008DB010008DB010008DF
:10019000DB010008DB010008DB010008DB010008CF
:1001A0000000000000000000DB010008DFF80CD0B8
:1001B00000F008FB00480047BD5F0008680C002005
:1001C0000648804706480047FEE7FEE7FEE7FEE7F1
:1001D000FEE7FEE7FEE7FEE7FEE7FEE7A5470008CD
:1001E000AD0100082DE9F05F0546002092469B46D0
:1001F00088460646814640241BE02846414647463D
:10020000224600F028FA53465A46C01A914110D3AC
:1002100011461846224600F00FFA2D1A67EB010826
:100220004F4622460120002100F006FA17EB000994
:100230004E41201EA4F10104DFDC484631462A4627
:100240004346BDE8F09F2DE9FE4F804681EA03005A
:10025000C00F0C46009021F0004123F00045B8EBA0
:100260000200A94105D24046214690461C460B4655
:10027000024623F00040104347D0270DC7F30A0081
:10028000C3F30A510290401A019040286BDAC3F37D
:10029000130040F4801B0098924620B10023D2EB5B
:1002A000030A63EB0B0B01985946C0F1400250461C
:1002B00000F0C2F906460D4650465946019A00F034
:1002C000DAF910EB08006141002487EA115284EA50
:1002D000E7731A4340D0009A62B3019A012A4FEAA9
:1002E000075215DC001B61EB02014FF0004202EAED
:1002F0000752CDE90042001C41F5801132462B46E1
:1003000000F011FA03B0BDE8F08F40462146F9E74E
:10031000001B61EB0201001C41F5801300185B41DA
:100320002018A2F5001747EB030140EAD570B61973
:100330006D4111E06D084FEA360645EAC0754FEA97
:100340000752001B61EB0201001C41F580114908B6
:100350004FEA30000019514132462B4603B0BDE848
:10036000F04F00F0D1B90098012240000023D0EBFB
:10037000020263EBE073009821464FEAE074B8EBA9
:10038000000061EB0401E9E783F000435BE781F0E3
:10039000004158E72DE9FE4F81EA030404F00044D0
:1003A00021F0004100944FF0000B23F0004350EA8D
:1003B00001045ED052EA03045BD0C3F30A54C1F3D4
:1003C0000A552C44A4F2F3340194A0FB0254C1F367
:1003D000130141F48011C3F3130343F4801301FBB1
:1003E000024400FB034E840A970A44EA815447EA18
:1003F0008357A4FB076802958D0A05FB07854FEA22
:10040000932C04FB0C542705029D4FEA065847EA3B
:100410001637B5EB08056EEB070C870E920E47EA10
:10042000811742EA8312A7FB0201B6EB0B0164EBD2
:1004300000042B0D43EA0C335E1844EB1C50DA46E3
:100440005146E7FB0201C5F313044FEA0B3343EABD
:1004500014534FEA0432019C43EA0603A4F10C044E
:100460000294009CCDE900B400F05DF903B0BDE852
:10047000F08F00200146F9E72DE9F04D81EA0304F1
:1004800004F0004B21F0004514464FF0000A23F021
:10049000004150EA050220D054EA01021DD0C5F304
:1004A0000A570246C5F31303C1F31300C1F30A56FA
:1004B00040F4801543F48013A7EB0608101BD646C2
:1004C00008F2FD3873EB050002D308F1010801E0E2
:1004D00092185B41B8F1000F03DA00200146BDE835
:1004E000F08D00204FF48011064684460EE0171B65
:1004F00073EB050705D3121B63EB050306434CEAB8
:10050000010C49084FEA300092185B4150EA01079C
:10051000EDD152EA030012D082EA040083EA050119
:10052000084305D0101BAB4106D20122002306E090
:1005300000224FF0004302E06FF0010253101AEB6B
:1005400006004CEB085110EB0A0041EB0B01BDE833
:10055000F04D00F0D9B80EB5C10F80EAE070084444
:10056000CA07002140F233438DE80E000A460B46CD
:1005700000F0D9F803B000BD00F0004230F00040B8
:100580000AD0C10D01F56071C0F3160042EA0151B5
:10059000C208400711437047002001467047000021
:1005A00030B5041E71F1000404DB4FF000444042FA
:1005B00064EB0101141E73F1000405DB1C464FF0CF
:1005C0000043524263EB04038B4208BF824230BDBA
:1005D00030B5041E71F1000404DB4FF000444042CA
:1005E00064EB0101141E73F1000405DB1C464FF09F
:1005F0000043524263EB0403994208BF904230BD6E
:1006000001F0004330B421F0004150EA010206D06D
:100610000A0DA2F56072C1F31301002A02DC30BC9E
:1006200000207047440F44EAC104C100E01830BC08
:1006300000EBC25000F031B8202A04DB203A00FA67
:1006400002F1002070479140C2F1200320FA03F329
:10065000194390407047202A04DB203A21FA02F027
:100660000021704721FA02F3D040C2F120029140EC
:10067000084319467047202A06DBCB17203A41FA77
:1006800002F043EAE07306E041FA02F3D040C2F11F
:10069000200291400843194670470029A8BF7047BF
:1006A000401C490008BF20F00100704710B4B0FAA8
:1006B00080FC00FA0CF050EA010404BF10BC704743
:1006C00049B1CCF1200421FA04F411FA0CF118BF5D
:1006D000012121430843A3EB0C01CB1D4FEA00612C
:1006E0004FEA102042BF002010BC704700EBC350FF
:1006F00010440029A4BF10BC7047401C490008BF2B
:1007000020F0010010BC704710B5141E73F10004F6
:1007100008DA401C41F1000192185B411A4301D1F3
:1007200020F0010010BD2DE9F04D92469B4611B11D
:10073000B1FA81F202E0B0FA80F220329046FFF77F
:100740007BFF04460F4640EA0A0041EA0B0153468C
:100750005A46084313D0114653EA010019D0C8F194
:1007600040025046FFF777FF05460E465046594671
:100770004246FFF761FF084305D0012004E0204610
:100780003946BDE8F08D0020054346EAE0762C436B
:1007900037430A986305E40AA0EB08000022FD0A2B
:1007A00044EA47540A3002D500200146E9E7010532
:1007B00010196941DDE9084500196941BDE8F04DAE
:1007C000A2E70000064C074D06E0E06840F0010398
:1007D00094E8070098471034AC42F6D3FFF7EAFCE0
:1007E000506600087066000800B50121DFED342A6C
:1007F0009FED342ADFED321A9FED321ADFED320A17
:10080000B0EE000A314803F037FF0021DFED302A57
:100810009FED2C2AF1EE041AB3EE041ADFED2D0A37
:10082000B2EE000A2C4803F027FF0121DFED2B2A4E
:100830009FED242ADFED2A1ABFEE081ADFED290A00
:100840009FED290A294803F017FF0021DFED282A30
:100850009FED1C2ADFED271AB9EE041ADFED1D0A01
:10086000BAEE020A244803F007FF0121DFED232A34
:100870009FED142ADFED221A9FED131ADFED210AF6
:10088000B7EE080A204803F0F7FE002214E0C2EB9E
:10089000C2011E4B03EBC1000121DFED1D2A9FEDBC
:1008A000092ADFED1C1A9FED071ADFED1B0AB1EED6
:1008B000040A03F0E1FE521C042AE8DB00BD00003C
:1008C00000007A4500000000CDCCCC3D140600208D
:1008D00000401C46000000808C04002000803B4546
:1008E00000C0DA45CDCC4CBD333333BF54040020B7
:1008F00000803B4600004842FC04002000409C452C
:1009000000007A440AD7233CC404002034050020A8
:1009100000007A460000FA458FC2F53C00BFFEE7B2
:1009200000B58BB0002007900120089000200190B6
:100930000290039004900590012009900E200A90E7
:100940000020069001A9064800F072FC022104482C
:1009500000F0C2FB024800F0E8FF0BB000BD000051
:10096000E000002010B5074B074A0021074800F0BF
:10097000F2FC044A0449054800F012F8034800F06C
:10098000AEFD10BD0000002034030020E000002078
:1009900010B5024800F0A3FD10BD0000E0000020EB
:1009A00010B503460868A0F2012007287ED2DFE8D0
:1009B00000F0041B324D6894BE005078147840EA71
:1009C0000420634C2080D078947840EA042000B260
:1009D0005F4C60805079147940EA042000B25C4C8E
:1009E000A0809079E080B1E05078147840EA04204B
:1009F000574CA086D078947840EA042004B254483A
:100A0000C4865079147940EA042004B2504804871F
:100A1000947944879AE05078147840EA04204C4C4A
:100A2000A4F86800D078947840EA042004B24848DA
:100A3000A0F86A405079147940EA042004B244488E
:100A4000A0F86C409479A0F86E407FE0507814785C
:100A500040EA04203E4CA4F89C00D078947840EA08
:100A6000042004B23A48A0F89E405079147940EA34
:100A7000042004B23648A0F8A0409479A0F8A2401F
:100A800064E05078147840EA0420324C2080D0781A
:100A9000947840EA042000B22E4CA080507914795A
:100AA00040EA042000B22B4CE08000E04DE02046FC
:100AB0000088B0F5805F03DA2046008800B26080CD
:100AC00024480088B0F5805F06DD22480088A0F544
:100AD000005000B21F4C608038E05078147840EA33
:100AE00004201D4C2080D078947840EA042000B285
:100AF000194CA0805079147940EA042000B2164CB9
:100B0000E08020460088B0F5805F03DA2046008848
:100B100000B2608010480088B0F5805F06DD0E48A6
:100B20000088A0F5005000B20B4C60800EE05078B9
:100B3000147840EA0420094C2080D078947840EA68
:100B4000042000B2054C608000E000BF00BF10BD73
:100B500050030020200400202E0400203C0400202C
:100B600070B52DED068B0446042517E0681E04F1D0
:100B7000300101EBC00090ED000B084600EBC50012
:100B800080ED000B681E283901EBC00090ED000BD2
:100B9000084600EBC50080ED000B6D1E002DE5DC66
:100BA00094ED000B84ED020B94ED022BB0EE420AA3
:100BB000F0EE620A314890ED002BB0EE421AF0EEF2
:100BC000621A53EC102B51EC110BFFF7E3FBC4E955
:100BD0000C01012548E004F1300000EBC50090ED68
:100BE000002BB0EE420AF0EE620A254800EBC50089
:100BF00090ED002BB0EE421AF0EE621A53EC102B7F
:100C000051EC110BFFF7C6FB41EC180B04F1080087
:100C100000EBC50090ED002BB0EE420AF0EE620A48
:100C2000164800EBC50090ED002BB0EE421AF0EE36
:100C3000621A53EC102B51EC110BFFF7ABFB41EC9C
:100C40001A0B94ED0C1BB0EE410AF0EE610A53EC66
:100C5000102BFFF7F8FA41EC190B53EC182BFFF7A8
:100C600093FBC4E90C016D1C052DB4DB94ED0C0B5A
:100C700084ED160BBDEC068B70BD000080000020DB
:100C8000A800002070B506460C46154640F2FF103D
:100C90000C49086000208860C86008200861300A9C
:100CA000094908704E70200A8870CC70280A0871B3
:100CB0004D71064B0A460349054800F023FA04F03B
:100CC00075FE70BD1C030020140000201C000020D5
:100CD000E000002010B5034800F072FE05F098FB1C
:100CE00010BD0000BC02002001460878103818230F
:100CF000B0FBF3F20848805CC865032A05D9086890
:100D00006FF30900001D886503E008686FF30900B0
:100D10008865886D70470000AE65000801460020B8
:100D20008A6A8B69CBB932B1012A0DD0022A03D06D
:100D3000032A10D10EE000BFCB6A03F08073B3F139
:100D4000807F00D1012007E0CB6AB3F1C07F00D1E2
:100D5000012001E000E000BF34E08B69B3F5005FE3
:100D60001AD132B1012A07D0022A03D0032A11D1A5
:100D70000AE000BF01200EE0CB6A03F08073B3F1FC
:100D8000807F00D1012006E0CB6AB3F1C07F00D1A3
:100D9000012000E000BF15E032B1012A05D0022A8F
:100DA00004D0032A0CD103E000BF00BF012008E0FB
:100DB000CB6A03F08073B3F1807F00D1012000E0A3
:100DC00000BF00BF704730B50468246824F4802455
:100DD00005682C60046863608468402C04D1046852
:100DE000A2600468E16003E00468A1600468E26056
:100DF00030BD704710B5002201B909E0012901D1C9
:100E00000A0205E0022901D10A0201E04FF4407212
:100E10000B2800D9001D0E4B1B6823F440730C4CAB
:100E2000236023461B681343236023461B6823F07B
:100E3000F803236023461B68022444EAC0042343CA
:100E4000034C236023461B6843F48033236010BDAA
:100E5000103C02401C48006800F40070B0B11A4811
:100E6000006820F400701849086000BF0846006858
:100E700040F4006008600846006820F400600860E4
:100E800000BF0846006840F4007008600E48006823
:100E900000F48060B0B10C48006820F480600A491A
:100EA000086000BF0846006840F4805008600846AB
:100EB000006820F48050086000BF0846006840F4D5
:100EC0008060086070470000003C0240134A1268CE
:100ED00022F44072114B1A60032906D11A46126897
:100EE000DB131A430D4B1A600EE0012906D10B4AA1
:100EF000126842F00402094B1A6005E0074A1268C2
:100F000042F40042054B1A60044A12684FF48033E1
:100F100043EA00231A43014B1A607047103C024019
:100F2000074A126822F44072054B1A601A4612688A
:100F30001A601A46126842F001021A600170704786
:100F4000103C024010B50949096821F44071074C72
:100F500021602146096841F44071216021460968F9
:100F600041F0010121600260436010BD103C02406D
:100F7000084A126822F44072064B1A601A46126838
:100F800042F480721A601A46126842F001021A6036
:100F900001807047103C0240084A126822F44072F7
:100FA000064B1A601A46126842F400721A601A461A
:100FB000126842F001021A6001607047103C024062
:100FC0002A48006800F0100040B12948C06940F08C
:100FD00010002749C8611020244908602348006890
:100FE00000F0200040B12248C06940F008002049CC
:100FF000C86120201D4908601C48006800F04000BE
:1010000040B11B48C06940F004001949C861402044
:10101000164908601548006800F0800040B1144887
:10102000C06940F002001249C86180200F49086081
:101030000E48006800F4807048B10D48C06940F067
:1010400001000B49C8614FF48070084908600748E7
:10105000006800F0020040B10548C06940F020007F
:101060000349C86102200149086070470C3C0240F6
:101070004408002070B50446002500201449C861CA
:1010800001F074F8054609E0601C38B124B101F0A4
:101090006DF8401BA04201D9032070BD0D480068C7
:1010A00000F480300028EFD10A48006800F0010009
:1010B00010B10120074908600648006800F4F97083
:1010C00018B1FFF77DFF0120E7E70020E5E700000A
:1010D000440800200C3C0240024692F820000128FF
:1010E00003D092F82000022806D110684069084316
:1010F0001368586100207047506A40F480205062A5
:101100000120F8E770B504460D46A86800B900E074
:1011100000BF94F82000012803D094F82000022892
:101120007FD12068806800F0806050B920688068B6
:1011300000F0006028B92068806800F08050002826
:1011400069D020688068C0F3016101208840186080
:10115000A86850B92E88E86840EA4656206800F52D
:10116000C07000EB011006600BE0D5E9016040EAB9
:10117000C600EE683043266806F5C07606EB011619
:1011800030602E69206800F5C07000EB01104660E9
:10119000287D01280DD1206800F5C07000EB0110FA
:1011A000406840F48076206800F5C07000EB0110C4
:1011B0004660D0790006967940EA0640567940EAC2
:1011C000062610790643206800F5C07000EB011078
:1011D000C660D0780006967840EA0640567840EA25
:1011E000062016783043266806F5C07606EB011611
:1011F000B060206800F5C07000EB0110006840F09E
:101200000106206800F5C07000EB011006600020A8
:1012100070BD06E0FFE7606A40F4001060620120E4
:10122000F6E7606A40F4802060620120F0E7000089
:1012300070B504460A460023216894F8200001286E
:1012400003D094F8200002287CD1414901F50071B7
:10125000086840F001000860086820F47C500860CD
:101260000868556A40EA05200860157D012000FAEB
:1012700005F3C8699843C861A1F50071D069C8B980
:10128000D1F80C029843C1F80C02908880B295897D
:1012900040EA054501F51070566940F8365010884F
:1012A00080B2158940EA054501F51070566900EBDA
:1012B000C6004560D069012819D1D1F80C02184345
:1012C000C1F80C02908880B2158840EA054501F506
:1012D0001070566940F83650908980B2158940EAFE
:1012E000054501F51070566900EBC6004560906930
:1012F00028B9D1F804029843C1F8040204E0D1F8F7
:1013000004021843C1F80402106928B9D1F8140284
:101310009843C1F8140204E0D1F814021843C1F84C
:101320001402106A012804D1D1F81C021843C1F834
:101330001C02D1F8000220F00100C1F800020020D8
:1013400070BDFFE7606A40F4802060620120F7E72B
:1013500000640040704730B5044694F8200001282E
:1013600003D094F8200002287DD151B92068C068CC
:1013700000F0030090B9606A40F400106062012040
:1013800030BD01290AD12068006900F0030028B9A6
:10139000606A40F4001060620120F1E7206800F507
:1013A000D87000EB0110006800F0040090609068B5
:1013B00040B9206800F5D87000EB01100068400DBE
:1013C000106007E0206800F5D87000EB011000689D
:1013D000C0085060206800F5D87000EB011000686C
:1013E00000F002004008D060206800F5D87000EBE3
:1013F0000110406800F00F001061206800F5D870FF
:1014000000EB0110406800F47F40000A9061206802
:1014100000F5D87000EB01104068000C50612068A6
:1014200000F5D87000EB011080681870206800F596
:10143000D87000EB0110806800F47F40000A5870FB
:10144000206800F5D87000EB0110806800F47F0080
:10145000000C9870206800F5D87000EB01108068CF
:10146000000ED87000E034E0206800F5D87000EB82
:101470000110C0681871206800F5D87000EB0110E9
:10148000C06800F47F40000A5871206800F5D870E9
:1014900000EB0110C06800F47F00000C9871206818
:1014A00000F5D87000EB0110C068000ED87131B99A
:1014B0002068C06840F020002568E86007E0012946
:1014C00005D12068006940F02000256828610020CF
:1014D00056E7606A40F480206062012050E72DE901
:1014E000F05F04460025206846692068D0F8049023
:1014F000206887682068D0F80CA02068D0F810B069
:101500002068D0F8188006F00100002855D007F0B8
:101510000100C0B101202168886007F0020018B105
:10152000204600F033FA0EE007F0040010B145F455
:10153000006508E007F0080010B145F4805502E0AE
:10154000204600F022FA07F48070C8B14FF4807092
:101550002168886007F4007018B1204600F018FA7E
:101560000EE007F4806010B145F4005508E007F480
:10157000006010B145F4804502E0204600F007FA13
:1015800007F48030C8B14FF480302168886007F4D8
:10159000003018B1204600F0FDF90EE007F480207D
:1015A00010B145F4004508E007F4002010B145F4FF
:1015B000803502E0204600F0ECF906F0080038B172
:1015C0000AF0100020B145F4007510202168C860B1
:1015D00006F0040040B10AF0080028B10820216894
:1015E000C860204600F09CF906F0020038B120687F
:1015F000C06800F0030010B1204600F092F906F038
:10160000400038B10BF0100020B145F48065102087
:101610002168086106F0200040B10BF0080028B1F5
:10162000082021680861204600F07CF906F01000CF
:1016300038B12068006900F0030010B1204600F0C6
:1016400072F906F4003040B109F0100028B1102002
:1016500021684860204600F067F906F4803040B108
:1016600009F0080028B1082021684860204600F0F1
:1016700092F906F4004088B309F0040078B306F448
:10168000807020B108F0010008B145F0010506F4B2
:10169000007020B108F0020008B145F0020506F420
:1016A000806020B108F0040008B145F0040506F49C
:1016B0000060A0B108F0700088B108F07000402808
:1016C00017D006DC10280BD020280CD0302819D1D8
:1016D0000CE0502810D0602814D110E01DE019E073
:1016E00045F008050FE045F010050CE045F0200539
:1016F00009E045F0400506E045F0800503E045F4CB
:10170000807500E000BF00BF2068806920F0700095
:10171000216888610420216848602DB1606A2843EF
:1017200060622046FFF716FEBDE8F09F70B50446E4
:1017300000250CB9012070BD94F8200010B9204696
:1017400000F0B0F82068006820F00200216808600E
:1017500000F00CFD05460DE000F008FD401B0A28D6
:1017600008D9606A40F400306062052084F82000E7
:101770000120E0E72068406800F002000028EBD17B
:101780002068006840F001002168086000F0EEFC6D
:1017900005460DE000F0EAFC401B0A2808D9606A03
:1017A00040F400306062052084F820000120C2E788
:1017B0002068406800F001000028EBD0207E01285E
:1017C00006D12068006840F080002168086005E0CC
:1017D0002068006820F0800021680860607E012891
:1017E00006D12068006840F040002168086005E0EC
:1017F0002068006820F0400021680860A07E012871
:1018000006D12068006840F020002168086005E0EB
:101810002068006820F0200021680860E07E012830
:1018200006D12068006820F010002168086005E0FB
:101830002068006840F0100021680860207F0128BF
:1018400006D12068006840F008002168086005E0C3
:101850002068006820F0080021680860607F012887
:1018600006D12068006840F004002168086005E0A7
:101870002068006820F0040021680860D4E90201B3
:10188000084321690843616908436168491E0843A8
:101890002168C86100206062012084F820000020D7
:1018A00049E7000010B586B004461A49206888420E
:1018B0002DD100BF002000901748006840F0007054
:1018C000154908600846006800F00070009000BFED
:1018D00000BF03200190022002900020039003200B
:1018E00004900920059001A90C4800F02BFB002270
:1018F0001146132000F03BFD132000F028FD0022CC
:101900000121142000F033FD142000F020FD06B06A
:1019100010BD00000064004040380240000C02404E
:101920007047704770477047704770B50446002590
:1019300094F82000012822D1022084F82000206899
:10194000006820F001002168086000F00FFC0546E7
:101950000DE000F00BFC401B0A2808D9606A40F437
:1019600000306062052084F82000012070BD2068EE
:10197000406800F001000028EBD16062F6E7606A81
:1019800040F4002060620120F0E770477047704724
:101990007047704770477047014691F8350002283C
:1019A00003D08020486501207047052081F835006C
:1019B0000868006820F001000A6810600020F3E762
:1019C000F8B50446002000908C4800684FF416518A
:1019D000B0FBF1F7A56D2E6894F85C1008208840E4
:1019E000304098B12068006800F0040070B12068B1
:1019F000006820F004002168086094F85C1008205A
:101A00008840A860606D40F00100606594F85C104B
:101A100001208840304068B12068406900F08000B3
:101A200040B194F85C1001208840A860606D40F0DF
:101A30000200606594F85C1004208840304068B172
:101A40002068006800F0020040B194F85C100420A7
:101A50008840A860606D40F00400606594F85C10F8
:101A600010208840304078B32068006800F00800FB
:101A700050B394F85C1010208840A860206800687B
:101A800000F4802080B12068006800F4002028B9AC
:101A9000206CC8B12046216C884715E0A06C98B135
:101AA0002046A16C88470FE02068006800F4807031
:101AB00028B92068006820F0080021680860206CC0
:101AC00010B12046216C884794F85C102020884093
:101AD0003040002865D02068006800F01000002821
:101AE0005FD094F85C1020208840A86094F83500FE
:101AF000052828D12068006820F0160021680860B9
:101B00002068406920F0800021684861206C08B995
:101B1000A06C28B12068006820F0080021680860E7
:101B200094F85C103F208840A86000BF002084F833
:101B3000340000BF012084F83500206D10B120462C
:101B4000216D8847F8BD2068006800F4802080B1CE
:101B50002068006800F4002028B9606C10B12046AD
:101B6000616C88471DE0E06BD8B12046E16B884787
:101B700017E02068006800F4807068B92068006889
:101B800020F010002168086000BF002084F83400B5
:101B900000BF012084F83500E06B10B12046E16BF6
:101BA0008847606D38B3606D00F00100F0B105202A
:101BB00084F835002068006820F001002168086082
:101BC00000BF0098401C0090B84200D905E0206892
:101BD000006800F001000028F3D100BF00BF002022
:101BE00084F8340000BF012084F83500E06C10B1A7
:101BF0002046E16C884700BFA4E7000008000020F1
:101C00002DE9F0410446002500F0B0FA074614B96A
:101C10000120BDE8F081606A00B100BF00BF002074
:101C200084F8340000BF022084F835002068006882
:101C300020F00100216808600AE000F097FAC01B5C
:101C4000052805D920206065032084F83500E0E7E9
:101C50002068006800F001000028EED120680568C7
:101C600021480540D4E901010843E168084321699E
:101C7000084361690843A1690843E1690843216A8F
:101C800008430543606A042803D1D4E90B010843E3
:101C90000543206805602068456925F00705606AEE
:101CA0000543606A04280DD1A06A0543E06A48B183
:101CB0002046FFF733F828B140206065012084F802
:101CC0003500A6E7206845612046FFF70DF8064677
:101CD00094F85C103F208840B060002060650120CF
:101CE00084F83500002094E73F8010F02DE9F0479C
:101CF00004460D4616461F464FF00008D4F858908B
:101D000000BF94F83400012802D10220BDE8F0871A
:101D1000012084F8340000BF94F8350001282BD14D
:101D2000022084F83500002060653B463246294693
:101D30002046FFF748F894F85C103F208840C9F827
:101D400008002068006840F01600216808602068DC
:101D5000406940F0800021684861206C28B120680B
:101D6000006840F00800216808602068006840F0C2
:101D700001002168086006E000BF002084F83400FC
:101D800000BF4FF002084046C0E7000070B50446AF
:101D900000F0ECF906462546681C10B104480078AE
:101DA000054400BF00F0E2F9801BA842FAD370BDE1
:101DB000DC0000202DE9F04104460E4601270025F5
:101DC00000BF2648007E012802D10220BDE8F08134
:101DD00001202249087600BF4CF25030FFF74AF943
:101DE0000746002F32D1401E30602068012810D1F4
:101DF000207C6168FFF76AF84CF25030FFF73AF93F
:101E000007461748006848F20401884314490860EF
:101E10001AE0A56812E0217C2846FEF7EBFF4CF2A1
:101E20005030FFF727F907460D48006820F0FA0008
:101E30000B4908600FB1356005E06D1CD4E9021054
:101E40000844A842E7D800BFFFF704F800BF00200D
:101E50000249087600BF3846B8E700004408002071
:101E6000103C02400348006840F00040014908600F
:101E700000207047103C02402DE9F04106460F4615
:101E800014461D464FF0010800BF1F48007E012880
:101E900002D10220BDE8F08101201B49087600BF75
:101EA0004CF25030FFF7E6F88046B8F1000F23D12E
:101EB00026B9E1B23846FFF733F812E0012E04D11B
:101EC000A1B23846FFF754F80BE0022E04D12146A8
:101ED0003846FFF761F804E022462B463846FFF704
:101EE00031F84CF25030FFF7C5F8804607480068DB
:101EF00020F001000549086000BF00200249087673
:101F000000BF4046C6E7000044080020103C0240E5
:101F100000200949096801F0004159B10749064A02
:101F20000C3A1160064911600349096801F000414B
:101F300001B1012070470000103C024023016745B9
:101F4000AB89EFCDF8B502460B46002500240020F2
:101F50000021E6E0012606FA01F51E6806EA0504FE
:101F6000AC4273D15E68022E02D05E68122E13D18D
:101F7000CF0802F1200656F827004E07F70E0F266D
:101F8000BE40B0434F07FF0E1E69BE403043CF082E
:101F900002F1200646F8270010684F000326BE40D5
:101FA000B0431E7906F003064F00BE403043106078
:101FB0005E68012E08D05E68022E05D05E68112E84
:101FC00002D05E68122E13D190684F000326BE40E7
:101FD000B0434F00DE68BE40304390605068012639
:101FE0008E40B0431E79C6F300168E4030435060D9
:101FF000D0684F000326BE40B0434F009E68BE40ED
:102000003043D0605E6806F08056B6F1805FA8D19C
:1020100000BF00260096454E366846F48046434F82
:102020003E603E46366806F48046009600BF00BF1C
:102030003F4E8F0856F827008E07370F0F26BE40F9
:10204000B0433C4EB24202D100262EE068E03A4E48
:10205000B24201D1012628E0384EB24201D1022617
:1020600023E0374EB24201D103261EE0354EB24284
:1020700001D1042619E0344EB24201D1052614E004
:10208000324EB24201D106260FE0314EB24201D1AA
:1020900007260AE02F4EB24201D1082605E02E4E57
:1020A000B24201D1092600E00A268F073F0FBE4049
:1020B00030431F4E8F0846F82700284E3068A04353
:1020C0005E6806F48036B6F5803F00D12043234E8B
:1020D0003060361D3068A0435E6806F40036B6F501
:1020E000003F00D120431D4E361D3060361D306844
:1020F000A0435E6806F48016B6F5801F00D1204329
:10210000164E08363060361D3068A0435E6806F40F
:102110000016B6F5001F00D12043104E0C3630607B
:10212000491C1029FFF416AFF8BD000044380240E6
:10213000083801400000024000040240000802404C
:10214000000C02400010024000140240001802403F
:10215000001C02400020024000240240003C0140DC
:102160000AB1816101E00B04836170470148006896
:1021700070470000D4000020034800680349097834
:102180000844014908607047D4000020DC000020AA
:1021900010B50D48006840F400700B49086008460F
:1021A000006840F4806008600846006840F4807071
:1021B0000860032000F01AF9002000F007F800F092
:1021C0002BF8002010BD0000003C024070B5044612
:1021D0000E4800784FF47A71B1FBF0F00C490968B1
:1021E000B1FBF0F5284600F0D2FC08B1012070BD2B
:1021F000102C07D200222146501E00F0B8F80548E6
:10220000046001E00120F2E70020F0E7DC0000209C
:1022100008000020D800002008B500BF0020009072
:102220002348006840F4804021490860084600685F
:1022300000F48040009000BF00BF00BF002000906D
:10224000081F006840F08050091F086008460068B9
:1022500000F08050009000BF00BF032000F0C6F8DF
:10226000002211466FF00B0000F081F800221146A9
:102270006FF00A0000F07BF8002211466FF00900B1
:1022800000F075F800221146501F00F070F800228F
:102290001146101F00F06BF800221146901E00F04E
:1022A00066F800221146501E00F061F808BD0000DB
:1022B0004438024070B504460D4616460CB901205C
:1022C00070BD94F8390028B9002084F83800204601
:1022D00001F080F8242084F839002068C06820F4D8
:1022E00000502168C860204602F094FD2068006913
:1022F00020F49040216808612068406920F02A009D
:10230000216848612068006920F00F002168086199
:10231000206800692843216808612068C06820F4AB
:1023200000602168C8602068C06830432168C860C8
:102330002068C06840F400502168C8600020E06355
:10234000202084F8390084F83A000020B8E70146DC
:102350000846002809DB00F01F0301229A404309C8
:102360009B0003F1E023C3F8002100BF70472DE973
:10237000F05F80460D461646002702F0DBFF074659
:1023800039462A46334601F00700C0F1070ABAF180
:10239000040F02D94FF0040A01E0C0F1070AD14648
:1023A00000F1040ABAF1070F02D24FF0000A01E06F
:1023B000A0F1030AD4464FF0010A0AFA09FAAAF179
:1023C000010A0AEA020A0AFA0CFA4FF0010B0BFAA8
:1023D0000CFBABF1010B0BEA030B4AEA0B042146A1
:1023E000404602F0AFFFBDE8F09F000000BF00F0E4
:1023F0000702064B19684FF6FF031940044B0B43C5
:1024000043EA0221014B196000BF70470CED00E068
:102410000000FA0538B5002400BF002000901D48D8
:10242000006840F080501B4908600846006800F0D2
:102430008050009000BF00BF012017490864FFF7DB
:1024400095FE044607E0FFF791FE001BB0F57A7F8A
:1024500001D9032038BD1148406800F48030B0F540
:10246000803FF0D101200C494864FFF77FFE04460D
:1024700007E0FFF77BFE001BB0F57A7F01D9032050
:10248000E8E70648406800F40030B0F5003FF0D1BE
:102490000020DFE74038024000000E42007000409C
:1024A00070B504460D460CB9012070BD584800684F
:1024B00000F00F00A84209D255490D700846006887
:1024C00000F00F00A84201D00120EEE7207800F0D4
:1024D000020002281DD1207800F00400042805D154
:1024E0004C48006840F4E0504A490860207800F009
:1024F0000800082805D14748006840F46040454975
:1025000008604448006820F0F000A1680843414991
:102510000860207800F00100A8B36068012807D1A6
:102520003C4808380068C0F34040B8B90120BCE717
:102530006068022802D06068032807D1354808384F
:102540000068C0F3406048B90120AEE73148083860
:102550000068C0F3400008B90120A6E72D480068D4
:1025600020F00300616808432A490860FFF7FEFD78
:10257000064609E0FFF7FAFD801B41F288318842E8
:1025800002D9032091E707E02248006800F00C0020
:102590006168B0EB810FEDD11D48006800F00F00BD
:1025A000A84209D91A490D700846006800F00F00CA
:1025B000A84201D0012078E7207800F00400042828
:1025C00007D11448006820F4E050E168084311493D
:1025D0000860207800F00800082808D10D4800683D
:1025E00020F46040216940EAC1000A49086000F017
:1025F0003DF808490968C1F30311074A515CC84016
:10260000064908600020FFF7E1FD00204DE70000CB
:10261000003C02400838024096650008080000208F
:1026200001480068704700000800002000B5FFF76F
:10263000F7FF04490968C1F38221034A515CC8408D
:1026400000BD000008380240A665000800B5FFF78D
:10265000E7FF04490968C1F34231034A515CC840AD
:1026600000BD000008380240A66500082DE9F047CB
:10267000002400250026A1462548006800F00C0033
:1026800020B1042805D008283AD105E0DFF884906D
:1026900039E0DFF8849036E01D48001F006800F044
:1026A0003F041B48001F006800F4800078B11A48FE
:1026B0001749091F0968C1F38811A0FB0170014681
:1026C000224600233846FDF78DFD05460EE01148F1
:1026D0000F49091F0968C1F38811A0FB0170014669
:1026E000224600233846FDF77DFD05460848001FB9
:1026F0000068C0F30140401C4600B5FBF6F902E05B
:10270000DFF8109000BF00BF4846BDE8F08700002A
:10271000083802400024F400001BB700F8B5044656
:102720000CB90120F8BD207800F00100002874D019
:10273000F948006800F00C0004280DD0F648006845
:1027400000F00C00082813D1F348001F006800F4C3
:102750008000B0F5800F0BD1EF4808380068C0F357
:102760004040002859D06068002856D10120D9E7A0
:1027700000BF6068B0F5803F08D1E74808380068BE
:1027800040F48030E449083908601EE06068B0F524
:10279000A02F0DD1E0480838006840F48020DE49C1
:1027A000083908600846006840F4803008600CE092
:1027B000D9480838006820F48030D74908390860C3
:1027C0000846006820F48020086000BF606890B16F
:1027D000FFF7CCFC054606E0FFF7C8FC401B642869
:1027E00001D903209EE7CC4808380068C0F3404078
:1027F0000028F1D011E0FFF7B9FC054606E0FFF72D
:10280000B5FC401B642801D903208BE7C248083877
:102810000068C0F340400028F1D1207800F00200A9
:1028200002285FD1BC48006800F00C0058B1BA48DB
:10283000006800F00C0008281CD1B748001F006891
:1028400000F48000B0B9B44808380068C0F3400014
:1028500020B1E068012801D0012063E7AE480838C4
:10286000006820F0F800216940EAC100AA4908394F
:10287000086037E0E06800B30120A8490860FFF76E
:1028800075FC054606E0FFF771FC401B022801D9E4
:10289000032047E7A04808380068C0F3400000283C
:1028A000F1D09D480838006820F0F800216940EA1E
:1028B000C10099490839086014E000209749086070
:1028C000FFF754FC054606E0FFF750FC401B0228CA
:1028D00001D9032026E7904808380068C0F340007B
:1028E0000028F1D1207800F0080008282CD1606978
:1028F000A8B101208A490860FFF738FC054606E0C8
:10290000FFF734FC401B022801D903200AE7824864
:102910006C300068C0F340000028F1D014E00020C3
:102920007F490860FFF722FC054606E0FFF71EFC22
:10293000401B022801D90320F4E677486C30006878
:10294000C0F340000028F1D1207800F004000428F2
:1029500070D1002670483830006800F0805090B97F
:1029600000BF002000906C483830006840F0805074
:102970006949383108600846006800F080500090CE
:1029800000BF00BF01266748006800F48070B0B93E
:102990006448006840F4807062490860FFF7E6FB15
:1029A000054606E0FFF7E2FB401B022801D90320A1
:1029B000B8E65C48006800F480700028F2D000BFE0
:1029C000A068012808D154486830006840F0010030
:1029D0005149683108601DE0A06805280DD14E48B6
:1029E0006830006840F004004B49683108600846D0
:1029F000006840F0010008600CE04748683000685B
:102A000020F001004449683108600846006820F061
:102A10000400086000BFA068A8B1FFF7A7FB054647
:102A200009E0FFF7A3FB401B41F28831884202D93D
:102A3000032077E626E0384868300068C0F340009D
:102A40000028EED013E0FFF791FB054608E0FFF702
:102A50008DFB401B41F28831884201D9032061E699
:102A60002D4868300068C0F340000028EFD1012EE7
:102A700007D129483830006820F080502649383185
:102A8000086000BFA069B8B32348006800F00C00DC
:102A900008285ED0A069022846D100201F49086698
:102AA000FFF764FB054606E0FFF760FB401B0228CA
:102AB00001D9032036E6184808380068C0F34060A2
:102AC0000028F1D1D4E907010843616A40EA811185
:102AD0000122A06AC2EB500041EA00412C20005DB7
:102AE00041EA00600C49091F086001200B49086693
:102AF000FFF73CFB054607E02DE0FFF737FB401BE7
:102B0000022801D903200DE6034808380068C0F305
:102B100040600028F1D01EE0083802400000474223
:102B2000800E47420070004000200C490866FFF705
:102B30001DFB054606E0FFF719FB401B022801D9E3
:102B40000320EFE506480068C0F340600028F2D19A
:102B500001E00120E6E50020E4E500000000474236
:102B600000380240042808D14FF0E021096941F003
:102B700004014FF0E022116107E04FF0E021096904
:102B800021F004014FF0E02211617047704770B5E9
:102B900004462546681EB0F1807F01D301200FE076
:102BA000681E4FF0E02148610F214FF0FF3002F026
:102BB000C9FB00204FF0E021886107200861002058
:102BC00070BD10B5FFF7E2FF10BD704770470246B9
:102BD00000BF92F83800012801D10220704701207F
:102BE00082F8380000BF022082F83900106840687F
:102BF00020F0700013685860106840680B68184334
:102C0000136858601068806820F08000136898602E
:102C1000106880684B68184313689860012082F838
:102C2000390000BF002082F8380000BF00BFD5E7A0
:102C300010B504460CB9012010BD94F8390028B92C
:102C4000002084F83800204600F00CF8022084F8B8
:102C50003900211D206801F0E1FD012084F83900D0
:102C60000020E9E708B51E4A016891420FD100BF74
:102C7000002100911B49096841F00401194A1160C3
:102C80001146096801F00401009100BF27E0164ACF
:102C9000016891420FD100BF0021009111490968DC
:102CA00041F010010F4A11601146096801F010014E
:102CB000009100BF13E00D4A016891420FD100BF9F
:102CC000002100910749096841F04001054A11605F
:102CD0001146096801F04001009100BF00BF08BD26
:102CE000000800404038024000100040001800403A
:102CF00001460868C06840F001000A68D0600868B2
:102D0000006840F001000A681060002070472DE95B
:102D1000F04104460D46002600BF94F83800012813
:102D200002D10220BDE8F081012084F8380000BF04
:102D3000022084F839002068866826F0770626F499
:102D40007F4620688660286850283BD00CDC20280D
:102D500060D004DC002853D0102865D155E030281D
:102D60005DD0402860D141E0602835D070280DD07A
:102D7000B0F5805F03D0B0F5005F55D115E0206855
:102D8000806820F00700216888604EE0D5E90213D2
:102D90006A68206801F0C2FD2068866826F0770620
:102DA00046F07706206886603FE0D5E902136A683E
:102DB000206801F0B3FD2068806840F480402168FD
:102DC000886032E0EA686968206801F09DFE502161
:102DD000206801F0AFFD28E0EA686968206801F02A
:102DE000A8FE6021206801F0A5FD1EE0EA68696880
:102DF000206801F089FE4021206801F09BFD14E06D
:102E00000021206801F096FD0FE01021206801F0FC
:102E100091FD0AE02021206801F08CFD05E03021C1
:102E2000206801F087FD00E000BF00BF012084F8AA
:102E3000390000BF002084F8380000BF00BF71E7F0
:102E4000704710B5044620680069C0F34000D8B14F
:102E50002068C068C0F34000B0B16FF00200216884
:102E60000861012020762068806900F0030018B115
:102E70002046FFF7E5FF05E0204600F0DFF820469A
:102E800000F07CF90020207620680069C0F3800003
:102E9000D8B12068C068C0F38000B0B16FF0040002
:102EA00021680861022020762068806900F4407063
:102EB00018B12046FFF7C4FF05E0204600F0BEF839
:102EC000204600F05BF90020207620680069C0F3FE
:102ED000C000D8B12068C068C0F3C000B0B16FF0C6
:102EE000080021680861042020762068C06900F08D
:102EF000030018B12046FFF7A3FF05E0204600F0CD
:102F00009DF8204600F03AF90020207620680069FC
:102F1000C0F30010D8B12068C068C0F30010B0B191
:102F20006FF0100021680861082020762068C069D1
:102F300000F4407018B12046FFF782FF05E02046FC
:102F400000F07CF8204600F019F900202076206877
:102F5000006900F0010058B12068C06800F001006D
:102F600030B16FF0010021680861204600F02EF9B1
:102F700020680069C0F3C01058B12068C068C0F371
:102F8000C01030B16FF08000216808612046FFF763
:102F90001CFE20680069C0F3801058B12068C0682A
:102FA000C0F3801030B16FF0400021680861204606
:102FB00000F00DF920680069C0F3401058B1206896
:102FC000C068C0F3401030B16FF020002168086184
:102FD0002046FFF7FBFD10BD10B586B0044613492F
:102FE000206888420DD180140190022002900020B8
:102FF000039004900220059001A90D48FEF7A2FF5E
:1030000011E00C49206888420DD14FF410700190F6
:10301000022002900020039004900920059001A94D
:103020000548FEF78FFF06B010BD00000008004005
:10303000000C024000180040001C0240704770B5B0
:1030400004460D46164600BF94F83800012801D109
:10305000022070BD012084F8380000BF022084F8EF
:10306000390036B1042E1BD0082E31D00C2E5ED183
:1030700045E02946206801F067FC2068806940F03F
:103080000800216888612068806920F004002168B8
:10309000886120688069296908432168886147E060
:1030A0002946206801F088FC2068806940F40060AF
:1030B000216888612068806920F4806021688861C7
:1030C00020688069296940EA0120216888612FE031
:1030D0002946206801F0ACFC2068C06940F0080077
:1030E0002168C8612068C06920F004002168C861B7
:1030F0002068C069296908432168C86118E0294629
:10310000206801F0D1FC2068C06940F400602168AB
:10311000C8612068C06920F480602168C8612068A7
:10312000C069296940EA01202168C86100E000BF48
:1031300000BF012084F8390000BF002084F8380067
:1031400000BF00BF85E710B504460CB9012010BDD3
:1031500094F8390028B9002084F83800204600F09F
:103160000CF8022084F83900211D206801F056FB7C
:10317000012084F839000020E9E77047704700001B
:1031800030B504460D4601222946206801F0B8FBFF
:103190000C492068884203D00B492068884201D13D
:1031A000012000E0002028B12068406C40F400407D
:1031B000216848642068006840F0010021680860C8
:1031C000002030BD000001400004014070477047FE
:1031D00008B501680968C1F3C00171B100BF0021E1
:1031E000009101680968009101684968009100BF79
:1031F00000BF01684968014A117008BD59000020EC
:1032000001460022002391F8392091F83A3042EA31
:10321000030070472DE9F0470446206805682068E0
:10322000C668206847694FF00008C14605F00F08DE
:10323000B8F1000F0AD105F0200038B106F02000E7
:1032400020B1204601F098FDBDE8F087B8F1000FED
:103250006DD007F0010018B906F49070002866D010
:1032600005F0010030B106F4807018B1E06B40F059
:103270000100E06305F0040030B107F0010018B16F
:10328000E06B40F00200E06305F0020030B107F0AF
:10329000010018B1E06B40F00400E06305F00800A5
:1032A00030B107F0010018B1E06B40F00800E063B6
:1032B000E06B68B305F0200028B106F0200010B1E3
:1032C000204601F059FD20684069C0F38019E06B89
:1032D00000F0080010B9B9F1000F22D0204601F02B
:1032E00021FD2068406900F04000B0B120684069CD
:1032F00020F0400021684861606B50B11748616B55
:103300000865606BFEF748FB10B1606B016D884784
:103310000CE02046FFF75CFF08E02046FFF758FF6F
:1033200004E02046FFF754FF0020E0638CE705F03F
:10333000800030B106F0800018B1204601F01EFF79
:1033400082E705F0400030B106F0400018B1204699
:1033500001F0F8FC78E700BF76E700006D4C00084C
:1033600010B504460CB9012010BDA06900B100E001
:1033700000BF94F8390028B9002084F838002046AE
:1033800000F028F8242084F839002068C06820F470
:1033900000502168C860204601F03CFD20680069AB
:1033A00020F49040216808612068406920F02A00DC
:1033B000216848612068C06840F400502168C860F6
:1033C0000020E063202084F8390084F83A000020CF
:1033D000CAE7000010B586B00446694920688842F3
:1033E00026D100BF002000906648006840F400200D
:1033F000644908600846006800F40020009000BF9F
:1034000000BF0320019002200290012003900320BE
:1034100004900820059001A95B48FEF793FD002267
:1034200005213420FEF7A3FF3420FEF790FFA4E02F
:1034300056492068884243D100BF0020009051487F
:10344000001D006840F010004E49091D0860084644
:10345000006800F01000009000BF00BFC020019085
:103460000220029000200390032004900720059082
:1034700001A94748FEF766FD4648474908604FF0F6
:1034800000604860002144488160C1604FF4806161
:1034900001610021416181614FF48071C1614FF48C
:1034A0004031016200214162FEF7AAFB18B1C3213D
:1034B0003AA001F025FF00BF3748606384635CE0F9
:1034C0003A492068884233D100BF002000902D483F
:1034D000006840F400302B4908600846006800F49A
:1034E0000030009000BF00BF042001900220029035
:1034F0000390032004900720059001A92248FEF7BD
:1035000021FD08200190022002900020039003205A
:1035100004900720059001A91B48FEF713FD002227
:1035200003212620FEF723FF2620FEF710FF24E0CC
:103530001F492068884220D100BF00200090114818
:10354000001D006840F020000E49091D0860084673
:10355000006800F02000009000BF00BF4FF48440DE
:103560000190022002900020039003200490082084
:10357000059001A90F48FEF7E5FC06B010BD00005C
:10358000004C004040380240000002400010014062
:103590000004024040640240BC0200202E2E2F5343
:1035A00072632F75736172742E63000000440040D3
:1035B000001401400018024077B581B0044615465A
:1035C00094F83A00202850D1029800B115B9012092
:1035D00004B070BD00BF94F83800012801D102206A
:1035E000F6E7012084F8380000BF0298A062A585A4
:1035F0000020E063222084F83A001D48616BC86314
:103600001C48616B08641C48616BC8640020616BD6
:10361000086502AE32682368191D2B46606BFEF701
:1036200065FB00BF002000902068006800902068C3
:103630004068009000BF00BF00BF002084F8380041
:1036400000BF2068C06840F480702168C8602068AE
:10365000406940F00100216848612068406940F0FD
:103660004000216848610020B2E70220B0E7000076
:10367000D14C0008174D0008814C000810B50346D6
:1036800093F83A00202829D101B10AB9012010BDD0
:1036900000BF93F83800012801D10220F7E701208C
:1036A00083F8380000BF99629A85DA850020D863D4
:1036B000222083F83A0000BF002083F8380000BFC2
:1036C0001868406940F001001C6860611868C068B3
:1036D00040F490701C68E0600020D8E70220D6E734
:1036E00010B5044674492068884275D17348407803
:1036F000092819D2DFE800F005192B415771859B85
:10370000B40000206D49487208460078262802D18E
:103710000120487002E0002068494870674800783E
:1037200066494978664A5054C2E0644800782528C2
:1037300003D102206149487002E000205F494870CF
:103740005E4800785D4949785D4A5054B0E04B20AE
:103750005A49087208460078000200B2888008467C
:10376000007A0978084455490872032048700846D1
:1037700000784978524A50549AE0504880884F491E
:103780000978084400B24D4988800846007A0978D3
:1037900008444A490872042048700846007849786D
:1037A000474A505484E0454800782D2805D14348C5
:1037B0008088404200B2414988804048007A3F49B1
:1037C000097808443D490872052048700846007889
:1037D00049783B4A50546BE06BE03848007800026F
:1037E00000B23649C8800846007A0978084433494F
:1037F000087206204870084600784978304A5054CC
:1038000056E02E48C0882D490978084400B22B495B
:10381000C8800846007A09780844284908720720B9
:103820004870084600784978254A505440E02348BB
:1038300000782D2805D12148C088404200B21F4998
:10384000C8801E48007A1D49097808441B4908723F
:1038500008204870084600784978194A505427E0F3
:103860001648007A1549097888420ED11348007825
:10387000134948725220114988704FF47A7301221B
:10388000891C104800F021F80CE000200B498880CA
:10389000C880572088704FF47A730122891C094828
:1038A00000F013F80020054948700120487200BF5D
:1038B00000E000BF10BD0000004400404A040020AA
:1038C000700600203C02002070472DE9F8430446B2
:1038D0000D4616461F464FF0000994F8390020287F
:1038E0005CD105B116B90120BDE8F88300BF94F89A
:1038F0003800012801D10220F6E7012084F83800C1
:1039000000BF0020E063212084F83900FEF72EFC80
:103910008146A684E6842BE0E08C401EE084A0680B
:10392000B0F5805F16D14B460022802120460097DB
:1039300001F058FC08B10320D6E7A846B8F800000B
:10394000C0F3080021684860206908B9AD1C0FE089
:103950006D1C0DE04B46002280212046009701F0AF
:1039600041FC08B10320BFE715F8010B216848604E
:10397000E08C0028D0D14B46002240212046009701
:1039800001F030FC08B10320AEE7202084F83900B4
:1039900000BF002084F8380000BFA5E70220A3E79D
:1039A000704700BFFEE7000010B500200F49086017
:1039B0000F48006820F440700D4908600846006810
:1039C00040F48070086000200A49C1F8900202208B
:1039D00002F070F9012005490860022002F06AF93E
:1039E00000200449C1F8940210BD00009402424234
:1039F00000100240000042420120034908600349D0
:103A0000C1F8900270470000940242420000424216
:103A100010B500200F4908600F48006820F440707E
:103A20000D4908600846006840F480700860012075
:103A30000A49C1F89002022002F03CF90120054930
:103A40000860022002F036F900200449C1F894020F
:103A500010BD0000940242420010024000004242A9
:103A600070B5054600241648006820F440701449DB
:103A70000860084600680860002616E0002011492A
:103A80000860022002F016F901200F49C1F89402E3
:103A90006006040E0B488438006808B1601CC4B28C
:103AA000012002F007F9701CC6B2082EE6DB15B93A
:103AB000FFF7AEFF01E0FFF777FF204670BD000083
:103AC00000100240940242420000424270B5044697
:103AD0001548006820F440701349086008460068E3
:103AE00040F480700860002010490860002517E04D
:103AF000E0090E49091F08606006040E022002F06A
:103B0000D9F801200A49C1F89402022002F0D2F843
:103B1000002006490860022002F0CCF8681CC5B2FB
:103B2000082DE5DB70BD0000001002409402424207
:103B30000000424210B50F48006820F440700D4963
:103B400008600846006840F48070086001200A4957
:103B500008600A49C1F89402042002F0ABF8002082
:103B600005490860042002F0A5F800200349C1F8C7
:103B7000940210BD001002409002424200004242F6
:103B800010B50F48006820F440700D4908600846E1
:103B9000006840F48070086000200A4908600A4903
:103BA000C1F89002042002F085F801200549086060
:103BB0000549C1F89002042002F07CF810BD000015
:103BC00000100240940242420000424210B500241C
:103BD0001348006820F440701149086008460068E6
:103BE000086001200F49086002F064F801200E49C6
:103BF000C1F8940202F05EF807E0601CC4B2FA2C2F
:103C000003DDFFF7BDFF012010BD064880380068C6
:103C10000028F2D10349091D086000BFF4E7000045
:103C200000100240900242420000424210B5284A71
:103C3000911E881E00F0CAF8254A243A911E881E5B
:103C400000F09CF822483438018EB0F84200081A7F
:103C500001B21F4834380186418EB0F84400081A7A
:103C600001B21B4834384186818EB0F84600081AEC
:103C700001B2174834388186B0F9300000EE100ADE
:103C8000B8EEC00ADFED130A80EE201A104834386F
:103C900080ED091AB0F9320000EE100AB8EEC00A41
:103CA000DFED0C0A80EE201A0948343880ED0A1A3C
:103CB000B0F9340000EE100AB8EEC00ADFED050AD4
:103CC00080EE201A0248343880ED0B1A10BD000037
:103CD000FC0700203333834110B50024012025491F
:103CE00008606420FEF752F800202349C1F88002E2
:103CF0006420FEF74BF8FFF77FFE80216B2000F079
:103D000031F96420FEF742F800216B2000F02AF917
:103D1000032000F0E2F8002000F0D7F84FF47A70AA
:103D200000F003F90021382000F01CF900216A207E
:103D300000F018F97021232000F014F980213720B9
:103D400000F010F9752000F069F80446682C0CD1D9
:103D500001216B2000F006F900216C2000F002F92F
:103D60004FF47A7000F0E1F801E0012010BD00206E
:103D7000FCE7000080824242008042422DE9FC4183
:103D800004460D4616466B4606223B21682000F08D
:103D900062F80746BFB99DF801009DF8001040EA9F
:103DA000012000B220809DF803009DF8021040EA37
:103DB000012000B228809DF805009DF8041040EA1B
:103DC000012000B230803846BDE8FC812DE9FC417D
:103DD00004460D4616466B4606224321682000F035
:103DE0003AF80746BFB99DF801009DF8001040EA77
:103DF000012000B220809DF803009DF8021040EAE7
:103E0000012000B228809DF805009DF8041040EACA
:103E1000012000B230803846BDE8FC8170B5044610
:103E2000FFF788FED020FFF751FEFFF7CFFE2046B8
:103E3000FFF74CFEFFF7CAFEFFF77CFED120FFF72D
:103E400045FEFFF7C3FE0020FFF70AFE0546FFF719
:103E500097FE284670BD2DE9F04106460F461446F0
:103E60001D46FFF767FE002141EA4601C8B2FFF791
:103E70002DFEFFF7ABFE20B1FFF782FE0120BDE86B
:103E8000F0813846FFF722FEFFF7A0FEFFF752FE53
:103E9000012101EB4601C8B2FFF718FEFFF796FEBD
:103EA0000DE0012C04D10020FFF7DAFD287003E0BB
:103EB0000120FFF7D5FD2870601EC4B26D1C002CD8
:103EC000EFD1FFF75DFE0020D9E710B50446E0060C
:103ED000010E1C2000F046F810BD10B50446E006A7
:103EE000010E1B2000F03EF810BD70B50446002501
:103EF000FF2C00DB14E0BC2C01DB012510E0622C60
:103F000001DB02250CE02A2C01DB032508E0142C40
:103F100001DB042504E00A2C01DB052500E0062571
:103F200029461A2000F01EF870BD70B50446B4F59D
:103F30007A7F01DD4FF47A74042C00DA04244FF404
:103F40007A7090FBF4F0401EC5B22946192000F0AB
:103F500009F80546264604EBD671C1F34F00FFF77A
:103F6000C4FF70BD70B505460C46FFF7E3FDD020D9
:103F7000FFF7ACFDFFF72AFE18B1FFF701FE0120A5
:103F800070BD2846FFF7A2FDFFF720FE2046FFF791
:103F90009DFDFFF71BFE18B1FFF7F2FD0120EFE7D3
:103FA000FFF7EEFD0020EBE710B50F480F49086062
:103FB0000520486000210D488160C1604FF4003148
:103FC000016149014161012101760021417681763B
:103FD000C176017701214177FDF7A8FB18B1452192
:103FE00003A001F08DF910BD00640040E000002046
:103FF0002E2E2F5372632F63616E2E63000000001C
:1040000008B500BF002000900648006840F480001A
:10401000044908600846006800F48000009000BF72
:1040200000BF08BD3038024000B587B000BF002097
:1040300001905648006840F0400054490860084626
:10404000006800F04000019000BF00BF00BF0020EA
:1040500001900846006840F00200086008460068C9
:1040600000F00200019000BF00BF00BF00200190DF
:104070000846006840F0100008600846006800F03C
:104080001000019000BF00BF00BF00200190084653
:10409000006840F0080008600846006800F008006A
:1040A000019000BF00BF00BF0020019008460068DB
:1040B00040F0200008600846006800F020000190F1
:1040C00000BF00BF00BF002001900846006840F01C
:1040D000800008600846006800F08000019000BF82
:1040E00000BF00BF002001900846006840F00100BA
:1040F00008600846006800F00100019000BF00BFA2
:1041000000224FF400512248FEF72AF80022102125
:104110002048FEF725F80022B0211F48FEF720F8BE
:10412000002244F201011D48FEF71AF84FF4005036
:1041300002900120039000200490059002A91448E9
:10414000FDF700FF10200290012003900020049052
:10415000059002A90F48FDF7F5FEB020029001205E
:10416000039000200490059002A90B48FDF7EAFE99
:1041700044F2010002900120039000200490059079
:1041800002A90648FDF7DEFE07B000BD3038024048
:1041900000180240000402400010024000140240D7
:1041A00010B5002211463A20FEF7E1F83A20FEF75A
:1041B000CEF8002202213620FEF7D9F83620FEF78D
:1041C000C6F8002204214720FEF7D1F84720FEF769
:1041D000BEF810BD00B58BB02448254908605920B1
:1041E000486000212248816040F6C311C16000216F
:1041F0000161FEF71DFD18B185211EA001F080F8B8
:104200004FF48050079007A91948FEF780FD18B1B8
:104210008B2118A001F074F81548FEF794FF18B12F
:10422000902114A001F06CF8602000904FF47A7097
:104230000190002002900490002269460C48FEF78D
:10424000FEFE18B199210BA001F05AF8042269462C
:104250000748FEF7F4FE18B19E2106A001F050F8C1
:104260000348FEF7B9FE0BB000BD00000018004087
:10427000800100202E2E2F5372632F74696D2E63E0
:104280000000000000B58DB025482649086059207F
:10429000486000212348816040F2CF71C160002155
:1042A0000161FEF7C5FC18B141211FA001F028F8FB
:1042B0004FF48050099009A91A48FEF728FD18B15B
:1042C000472119A001F01CF81648FEF73CFF18B171
:1042D0004C2115A001F014F800200790089007A9C0
:1042E0001048FEF774FC18B153210FA001F008F834
:1042F000602000904FF4FA7001900020029004902A
:10430000002269460748FEF79AFE18B15C2106A014
:1043100000F0F6FF0348FEF75FFE0DB000BD0000A1
:1043200000080040080100202E2E2F5372632F74C6
:10433000696D2E63000000001CB50F480F4908602E
:104340005920486000210D48816040F2E731C1608A
:10435000FEF76EFC18B16D2109A000F0D1FF00201E
:104360000090019069460548FEF731FC18B17421B0
:1043700003A000F0C5FF1CBD001000404401002058
:104380002E2E2F5372632F74696D2E630000000070
:1043900010B50C480C4908604FF4E130486000212A
:1043A00009488160C16001610C2141610021816186
:1043B000C161FEF7D5FF18B1462104A000F0A0FFAF
:1043C00010BD0000004C0040BC0100202E2E2F53D9
:1043D00072632F75736172742E63000010B50C4800
:1043E0000C4908600C48486000210A488160C1609F
:1043F00001610C21416100218161C16100221146EE
:10440000FDF758FF18B1592104A000F079FF10BD45
:1044100000100140FC010020A08601002E2E2F5329
:1044200072632F75736172742E63000010B50D48AE
:104430000D4908604FF41650486000210A48816019
:10444000C16001610C21416100218161C1610022D3
:104450001146FDF72FFF18B16C2104A000F050FFAA
:1044600010BD0000004400403C0200202E2E2F53BF
:1044700072632F75736172742E63000010B50D485E
:104480000D4908604FF4E130486000210A4881601E
:10449000C16001610C21416100218161C161002283
:1044A0001146FDF707FF18B17F2104A000F028FF97
:1044B00010BD0000001401407C0200202E2E2F535E
:1044C00072632F75736172742E63000000BFFEE784
:1044D000704780ED000AC0ED010A90F83410C1BBAE
:1044E00090ED031A80ED041A90ED001AD0ED011A38
:1044F00031EE611A80ED031A90ED021AD0ED031A25
:1045000090ED072A01EE821A80ED021A90ED031A4F
:10451000D0ED0A1AF1EE611AB4EEE11AF1EE10FADA
:1045200009DD90ED031AD0ED0A1AB4EEE11AF1EEAE
:1045300010FA00D2704790ED021AD0ED091AB4EECD
:10454000E11AF1EE10FA05DD90ED091A80ED021A7C
:1045500011E025E090ED021AD0ED091AF1EE611A92
:10456000B4EEE11AF1EE10FA05D290ED091AB1EEAF
:10457000411A80ED021A90ED021AD0ED031A90ED67
:10458000062A01EE821AD0ED031A90ED042A71EE8C
:10459000C21A90ED082A01EE821A80ED0B1A4AE049
:1045A00090ED041A80ED051A90ED031A80ED041ABF
:1045B00090ED001AD0ED011A31EE611A80ED031A68
:1045C00090ED031AD0ED0A1AF1EE611AB4EEE11A79
:1045D000F1EE10FA09DD90ED031AD0ED0A1AB4EEEF
:1045E000E11AF1EE10FA00D2A4E790ED031AD0ED33
:1045F000041A31EE611AD0ED061A21EE211AD0ED1F
:10460000031A90ED072A01EE821AD0ED031A90EDFD
:10461000042AF0EE002A42EEC21A90ED052A71EE4D
:10462000821A90ED082A01EE821AD0ED0B1A31EEB3
:10463000211A80ED0B1A90ED0B1AD0ED0C1AB4EE86
:10464000E11AF1EE10FA04DD90ED0C1A80ED0B1A70
:1046500010E090ED0B1AD0ED0C1AF1EE611AB4EEE9
:10466000E11AF1EE10FA05D290ED0C1AB1EE411AF2
:1046700080ED0B1A00BF5DE780ED060AC0ED070A6A
:1046800080ED081A9FED063A80ED023AC0ED091A56
:1046900080ED0A2AC0ED0C2A80F834107047000023
:1046A000000000007047704710B5FDF765FDFEF78C
:1046B00088FA10BD10B592B000BF002000903348BA
:1046C000006840F08050314908600846006800F0FA
:1046D0008050009000BF00BF00BF002000902C4819
:1046E000006840F440402A4908600846006800F429
:1046F0004040009000BF00BF0120069000040790DA
:1047000002200C9041050D9106210E91B4210F91CC
:10471000022110910421119106A8FDF7FFFF20B19D
:1047200040F20F111BA000F0EBFDFDF773FE20B16E
:104730004FF48B7117A000F0E3FD0F2001900220D1
:104740000290002003904FF4A05004904FF480504A
:104750000590052101A8FDF7A3FE20B14FF4927149
:104760000CA000F0CDFDFDF75BFF4FF47A71B0FBBC
:10477000F1F42046FEF70BFA0420FEF7F3F90022CD
:104780001146501EFDF7F3FD12B010BD4038024037
:10479000007000402E2E2F5372632F6D61696E2EB4
:1047A000630000001448006840F47000124908607B
:1047B0001248006840F001001049086000200F49CD
:1047C000083108600D4800680D4908400B49086031
:1047D0000C48091D0860081F006820F48020091F8C
:1047E0000860002005490C3108604FF00060024964
:1047F000803908607047000088ED00E00038024012
:10480000FFFFF6FE1030002410B50348FEF719FB39
:1048100000F0A6F910BD000044010020002202684B
:104820002C4B98420ED0B0F1804F0BD02A4B9842BF
:1048300008D02A4B984205D0294B984202D0294BE8
:10484000984201D1012300E000231BB122F0700245
:104850004B681A431F4B984220D0B0F1804F1DD0B7
:104860001D4B98421AD01D4B984217D01C4B9842B2
:1048700014D01C4B984211D01B4B98420ED01B4BAE
:1048800098420BD01A4B984208D01A4B984205D048
:10489000194B984202D0194B984201D1012300E0F4
:1048A00000231BB122F44072CB681A4302608B686C
:1048B000C3620B688362074B984202D0094B98424F
:1048C00001D1012300E000230BB10B690363012335
:1048D00043617047000001400004004000080040B0
:1048E000000C004000040140004001400044014031
:1048F0000048014000180040001C0040002000401B
:1049000030B50023012404FA01F3046A9C430462D5
:10491000046A02FA01F52C43046230BD30B50C463E
:104920000021816821F47F4142EA03252543294380
:10493000816030BD0A460021816821F0700142F09B
:10494000070319438160704730B50024002200231B
:10495000056A25F001050562026A4368846924F04E
:10496000700424F003040D682C4322F002028D68C9
:104970002A430F4DA84202D00E4DA84201D1012575
:1049800000E000256DB122F00802CD682A4322F034
:10499000040223F4807323F400734D692B438D6963
:1049A0002B43436084614D684563026230BD000063
:1049B000000001400004014030B500240022002323
:1049C000056A25F010050562026A4368846924F4CB
:1049D000E04424F440740D6844EA052422F02002E7
:1049E0008D6842EA0512104DA84202D00F4DA84230
:1049F00001D1012500E0002585B122F08002CD68BB
:104A000042EA051222F0400223F4806323F400639B
:104A10004D6943EA85038D6943EA850343608461F8
:104A20004D688563026230BD000001400004014012
:104A300030B5002400220023056A25F48075056244
:104A4000026A4368C46924F0700424F003040D680A
:104A50002C4322F400728D6842EA0522104DA842D0
:104A600002D0104DA84201D1012500E0002585B1FA
:104A700022F40062CD6842EA052222F4806223F427
:104A8000805323F400534D6943EA05138D6943EACB
:104A900005134360C4614D68C563026230BD000008
:104AA000000001400004014030B500220023002432
:104AB000056A25F480550562036A4468C26922F4D8
:104AC000E04222F440720D6842EA052223F40053CA
:104AD0008D6843EA05330A4DA84202D0094DA84229
:104AE00001D1012500E0002525B124F480444D6961
:104AF00044EA85144460C2614D680564036230BDB8
:104B0000000001400004014030B50B46144600216E
:104B10000022026A056A25F001050562816921F01B
:104B2000F00141EA041122F00A021A438161026293
:104B300030BD30B50B46144600210022056A25F031
:104B4000100505628169026A21F4704141EA04316D
:104B500022F0A00242EA03128161026230BD00002D
:104B600010B501203649086036480088401C354998
:104B70000880FFF75BF83448B0F9320000EE900A85
:104B8000F8EEE00AB0EE600A304801F005FA2E486F
:104B9000B0F93010B0F93400081A00EE900AF8EEBF
:104BA000E00AB0EE600A2A4801F0F6F901F070FB65
:104BB00001F0AEFA00BF00F095FF22480088032103
:104BC00090FBF1F201FB120008B900F00DFF1D4847
:104BD0000088092190FBF1F201FB120008B901F0F5
:104BE00093FC1C48B0F9040000EE100AB8EEC00AAD
:104BF000194880ED000A1748B0F9060000EE100AC7
:104C0000B8EEC00A144880ED010A0E48008814214D
:104C100090FBF1F201FB120018B910210E4801F0CF
:104C200011FB08480088B0F57A7F02DB00200549B7
:104C3000088001F0F5FA00200149086010BD00006D
:104C4000B882424254000020C8070020E00600203D
:104C5000800600204A0400204C06002010B50248BF
:104C6000FEF7D8FA10BD0000BC01002070B5054663
:104C7000AC6B0020E085E0842046FEF7A9FA70BD09
:104C800070B506460025B46B20684069C0F3C015B6
:104C900094F83900212805D125B10020E084204670
:104CA00000F060F820684069C0F3801594F83A007D
:104CB000222805D125B10020E085204600F032F8F9
:104CC000E06B40F01000E0632046FEF781FA70BD13
:104CD00070B50546AC6B2868006800F48070B0B908
:104CE0000020E0852068C06820F480702168C860DA
:104CF0002068406920F0010021684861206840690F
:104D000020F0400021684861202084F83A002046C5
:104D1000FEF7E6FC70BD70B50446A56B2846FEF7AD
:104D2000D3FD70BD0168C96821F490710268D1603B
:104D30000168496921F0010102685161202180F870
:104D40003A10704710B504462068C06820F0400053
:104D50002168C860202084F839002046FEF720FE34
:104D6000002010BD0168C96821F0C0010268D1604F
:104D7000202180F83910704770B5044694F83A0045
:104D8000222844D1A068B0F5805F13D1A56A2069BC
:104D900040B920684068C0F308002880A06A801CE1
:104DA000A06219E020684068C0B22880A06A401C58
:104DB000A06211E0206938B920684068C1B2A26AD7
:104DC000501CA062117007E02068406800F07F016D
:104DD000A26A501CA0621170E08D401E80B2E08576
:104DE00098B92068C06820F490702168C860206875
:104DF000406920F0010021684861202084F83A00D1
:104E00002046FEF76DFC002070BD0020FCE702206C
:104E1000FAE700002DE9F041044600252068056905
:104E200025F44055E0680543206805612068C568A1
:104E300049F20C6085432169A06808436169084311
:104E4000E169084305432068C5602068456925F489
:104E50004075A069054320684561E069B0F5004FE1
:104E60007ED1C4492068884203D0C3492068884263
:104E70005DD1FDF7EBFB00EBC00101EB00106168B9
:104E80004900B0FBF1F06421B0FBF1F00601FDF741
:104E9000DDFB00EBC00101EB001061684900B0FBD5
:104EA000F1F7FDF7D3FB00EBC00101EB00106168E7
:104EB0004900B0FBF1F06421B0FBF1F000EBC00160
:104EC00001EB0010A7EB8000322101EBC000642150
:104ED000B0FBF1F000F0F80006EB4006FDF7B6FB82
:104EE00000EBC00101EB001061684900B0FBF1F775
:104EF000FDF7ACFB00EBC00101EB0010616849005D
:104F0000B0FBF1F06421B0FBF1F000EBC00101EB6C
:104F10000010A7EB8000322101EBC0006421B0FB40
:104F2000F1F000F0070030442168886020E1FDF7CF
:104F30007DFB00EBC00101EB001061684900B0FB94
:104F4000F1F06421B0FBF1F00601FDF76FFB00EB1F
:104F5000C00101EB001061684900B0FBF1F700E00F
:104F600045E0FDF763FB00EBC00101EB0010616859
:104F70004900B0FBF1F06421B0FBF1F000EBC0019F
:104F800001EB0010A7EB8000322101EBC00064218F
:104F9000B0FBF1F000F0F80006EB4006FDF746FB31
:104FA00000EBC00101EB001061684900B0FBF1F7B4
:104FB000FDF73CFB00EBC00101EB0010616849000C
:104FC000B0FBF1F06421B0FBF1F000EBC00101EBAC
:104FD0000010A7EB8000322101EBC0006421B0FB80
:104FE000F1F000F00700304421688860C0E06149BA
:104FF0002068884203D06049206888425CD1FDF770
:1050000025FB00EBC00101EB001061688900B0FBDB
:10501000F1F6FDF71BFB00EBC00101EB001061682E
:105020008900B0FBF1F06421B0FBF1F000EBC001AE
:1050300001EB0010A6EB8000322101EB001064218F
:10504000B0FBF1F000F0F006FDF700FB00EBC00153
:1050500001EB001061688900B0FBF1F06421B0FB46
:10506000F1F006EB0016FDF7F1FA00EBC00101EBE1
:10507000001061688900B0FBF1F7FDF7E7FA00EB7B
:10508000C00101EB001061688900B0FBF1F0642100
:10509000B0FBF1F000EBC00101EB0010A7EB8000CA
:1050A000322101EB00106421B0FBF1F000F00F00A1
:1050B0003044216888605BE0FDF7B8FA00EBC0017E
:1050C00001EB001061688900B0FBF1F6FDF7AEFA64
:1050D00000EBC00101EB001061688900B0FBF1F04A
:1050E0006421B0FBF1F000EBC00101EB0010A6EB76
:1050F0008000322101EB00106421B0FBF1F000F0E0
:10510000F006FDF793FA00EBC00101EB00106168B7
:105110008900B0FBF1F06421B0FBF1F006EB001662
:10512000FDF784FA00EBC00101EB00106168890013
:10513000B0FBF1F7FDF77AFA00EBC00101EB0010CC
:1051400061688900B0FBF1F06421B0FBF1F000EB85
:10515000C00101EB0010A7EB8000322101EB001031
:105160006421B0FBF1F000F00F003044216888604A
:10517000BDE8F0810010014000140140014691F8A3
:10518000390021282CD18868B0F5805F0FD10A6AD8
:105190001088C0F308000B685860086918B9086ADD
:1051A000801C086209E0086A401C086205E00B6A7E
:1051B000581C086218780B685860C88C401E80B272
:1051C000C88458B90868C06820F080000B68D860AF
:1051D0000868C06840F040000B68D8600020704745
:1051E0000220FCE72DE9F04104460D46174698469B
:1051F000069E21E0701CF8B12EB1FCF7B7FFA0EBC2
:105200000800B04218D92068C06820F4D070216826
:10521000C8602068406920F00100216848612020B2
:1052200084F8390084F83A0000BF002084F8380080
:1052300000BF0320BDE8F081206800682840A84234
:1052400001D1012000E00020B842D3D00020F1E7D6
:1052500010B500240C48FDF7DDFF00BF01E0641C21
:1052600000BF0948FDF7CCFF2028F8D100BF00247B
:1052700001E0641C00BF012204490348FEF7FEF967
:105280000028F6D100BF10BD3C0200204A040020D7
:1052900010B50248FDF7BEFF10BD00007C020020E3
:1052A0002DE9F04107460C4615461E464FF40070A6
:1052B0000E49086000208860C86008200861380A2C
:1052C0000B4908704F70200A8870CC70280A08714A
:1052D0004D71300A8871CE71064B0A460349064863
:1052E000FBF710FF00F062FBBDE8F0811C0300201B
:1052F000140000201C000020E000002000BFFEE79A
:1053000000BFFEE703B401984100009850EAC120B5
:1053100018BF04204A0D18BF40F0010040F2FF7290
:10532000B2EB515F08BF40F00200012808BF052022
:1053300002B0704702480068C0F3022070470000C6
:105340000CED00E010B5002804DB0A07130E054A37
:10535000135406E00A07140E034A00F00F031B1F44
:10536000D45410BD00E400E018ED00E0000000009F
:1053700070B59B482DED020B2DED068B079D25F09A
:105380000044A04218DC9748844202DC0AD1069807
:1053900040B19DED060BBDEC068B02B0BDE8704040
:1053A00000F0CEB9002DCCBF9FED8F0B9FED900B81
:1053B000BDEC068B02B070BD8F48A04215DD8F4852
:1053C000A042D8BF4FF0FF3458DD9DED060B51ECE5
:1053D000100BFFF797FF042808BF00F0BDF99DED03
:1053E000060BBDEC068B02B070BD9DED060B51ECBB
:1053F000100B00F06BFDCDE9060181489FED828B1B
:10540000A0423CDD8248A0421FDD00249FED82AB1C
:105410009DED060B53EC1A2B51EC100BFAF713FF12
:105420009DED060B41EC190B53EC1A2B51EC100BB4
:10543000FAF7B0FF53EC182BFAF7A6FF53EC192B31
:10544000FBF71AF8CDE9060149E09DED060B0124B2
:1054500053EC182B51EC100BFAF7F5FE9DED060BF3
:1054600041EC190B53EC182B51EC100BFAF78CFF95
:1054700053EC192BFBF700F8CDE906012FE0684843
:10548000A0421FDD02249FED689B9DED060B53ECAF
:10549000192B51EC100BFAF77DFF53EC182BFAF790
:1054A000D2FE9DED060B41EC180B53EC192B51EC81
:1054B000100BFAF769FF53EC182BFAF7DDFFCDE973
:1054C00006010CE09DED060B032453EC102B9FED21
:1054D000580B51EC100BFAF7CFFFCDE906019DED0B
:1054E000060B53EC102B51EC100BFAF753FF41EC69
:1054F000180B53EC182BFAF74DFF41EC190B4E48E3
:105500000621B0EE490AF0EE690A784400F09CF8F2
:1055100053EC182B51EC100BFAF73CFF41EC180B35
:105520004648B0EE490AF0EE690A0521784400F0D9
:105530008BF853EC192B51EC100BFAF72BFF41ECC5
:10554000100B51EC180B53EC102B002C0EDAFAF761
:105550007AFE9DED061B53EC112BFAF71BFF9DED18
:10556000061B53EC112BFAF712FF35E0FAF76BFE2E
:105570009DED061B53EC112BFAF70CFF41EC100BC1
:105580002F48784400EBC40090ED001B51EC100B49
:1055900053EC112BFAF7F8FE9DED061B53EC112B83
:1055A000FAF7F2FE41EC100B2648784400EBC400F9
:1055B00090ED001B51EC100B53EC112BFAF7E7FEAA
:1055C00041EC100B002DA2BFBDEC068B02B070BDEC
:1055D00051EC100B81F0004141EC100B01E7000091
:1055E000000010440000F07F182D4454FB21F93FC7
:1055F000182D4454FB21F9BF0000DC3F0000203E81
:105600000000F33F00000000000000000000F03F39
:105610000000E63F00000000000000000000004025
:105620000080034000000000000000000000F83F80
:10563000000000000000F0BF12110000C8100000C0
:10564000521000000A10000070B504462DED028BC8
:105650004D1E00EBC500B0EE408AF0EE608A90ED82
:10566000000B35F0060017D053EC182B51EC100B43
:10567000FAF790FE41EC100B6D1E04EBC50090EDA7
:10568000001B51EC100B53EC112BFAF7DCFD41EC35
:10569000100B35F00600E7D1022D36D0042D1CD0BA
:1056A000062D1CBFBDEC028B70BD53EC182B51ECCA
:1056B000100BFAF76FFE94ED0A1B53EC112BFAF75F
:1056C000C2FD53EC182BFAF765FE94ED081B53EC62
:1056D000112BFAF7B8FD41EC100B53EC182B51ECE1
:1056E000100BFAF757FE94ED061B53EC112BFAF74B
:1056F000AAFD53EC182BFAF74DFE94ED040B53EC76
:10570000102BFAF7A0FD41EC100B53EC182B51ECC9
:10571000100BFAF73FFE94ED021B53EC112BFAF736
:1057200092FD53EC182BFAF735FE94ED001B53EC69
:10573000112BFAF788FDBDEC028B41EC100B70BD0C
:1057400010B553EC102B51EC100BFAF77CFD41EC2B
:10575000100B10BD000000009FED050B10B553ECC1
:10576000102B51EC100BFAF715FE41EC100B10BD8D
:10577000000000000000001002E008C8121F08C16D
:10578000002AFAD170477047002001E001C1121FC2
:10579000002AFBD17047000010B52DED0A8B774829
:1057A000808810B97548C08810B17448407A10B923
:1057B000BDEC0A8B10BD7148B0F9060000EE100A6E
:1057C000B8EEC08A6D48B0F906000F2827DA6B4999
:1057D000B1F90600FAF7BFFE41EC1C0B9FED680B18
:1057E00053EC102BFAF7D6FD41EC1B0BB0EE4B0A35
:1057F000F0EE6B0AFFF7BCFDB0EE40AAF0EE60AA37
:105800009FED610B53EC102B51EC1A0BFAF7C2FD14
:1058100041EC190BFAF7F4FE08EE100A26E057499E
:10582000B1F90600FAF797FE41EC1C0B9FED540B03
:1058300053EC102BFAF7AEFD41EC1B0BB0EE4B0A0C
:10584000F0EE6B0AFFF794FDB0EE40AAF0EE60AA0E
:105850009FED4F0B53EC102B51EC1A0BFAF79AFDFE
:1058600041EC190BFAF7CCFE08EE100A4A4890ED0D
:10587000000ADFED4A0A00EEC80A80ED000A3F4840
:10588000B0F904000F2827DA3C49B1F90400FAF70F
:1058900062FE41EC1C0B9FED3A0B53EC102BFAF718
:1058A00079FD41EC1B0BB0EE4B0AF0EE6B0AFFF7F3
:1058B0005FFDB0EE40AAF0EE60AA9FED330B53EC13
:1058C000102B51EC1A0BFAF765FD41EC190BFAF7A6
:1058D00097FE08EE100A26E02849B1F90400FAF70D
:1058E0003AFE41EC1C0B9FED260B53EC102BFAF704
:1058F00051FD41EC1B0BB0EE4B0AF0EE6B0AFFF7CB
:1059000037FDB0EE40AAF0EE60AA9FED210B53ECFC
:10591000102B51EC1A0BFAF73DFD41EC190BFAF77D
:105920006FFE08EE100A1E4890ED000A30EE480A9D
:1059300080ED000A184890ED000ADFED1A0AB4EE77
:10594000E00AF1EE10FA04DB9FED160A80ED000A82
:105950000DE0114890ED000ADFED130AB4EEE00A05
:10596000F1EE10FA03D89FED100A80ED000A002036
:1059700002498880C88000BF1AE700004A0400205E
:105980009B70AFCC5B755D3F000000000030914024
:105990003333333333609440440000200000000070
:1059A00040000020008022450000C844002000BFC5
:1059B00003E00021024A1154401C0828F9DB70471B
:1059C0001400002000200749088048808880C88093
:1059D0000872487248818881C881087548750882B4
:1059E00048827047B207002010B53748008800EEA3
:1059F000100AB8EE400AF0EE400A344890ED000A72
:105A00003348FEF766FD3348008800EE100AB8EE12
:105A1000400A3148D0ED000A30EEC00AB5EEC00AA7
:105A2000F1EE10FA0BDB2B48008800EE100AB8EEFE
:105A3000400A2948D0ED000A30EEC00A0CE02548A3
:105A4000008800EE100AB8EE400A2348D0ED000AA4
:105A500030EEC00AB1EE400ADFED200AB4EEE00AF3
:105A6000F1EE10FA20DD1B48008800EE100AB8EEB7
:105A7000400A1948D0ED000A30EEC00AB5EEC00A5F
:105A8000F1EE10FA01DB012001E04FF0FF30C0EB36
:105A9000403000EE100AB8EEC00A0F48D0ED000A00
:105AA00030EEC00A80ED000A0A48008800EE100AB5
:105AB000B8EE400AF0EE400A074890ED000A0848A8
:105AC000FEF707FD10BD0000200400204400002068
:105AD0008C0400202E04002040000020000080459F
