:020000040800F2
:10000000280A0020C1010008273200085D280008E6
:1000100025320008F90700083D3C000800000000F8
:10002000000000000000000000000000373300085E
:100030009909000800000000353300083933000832
:10004000DB010008DB010008DB010008DB01000820
:10005000DB010008DB010008DB010008DB01000810
:10006000DB010008DB010008DB010008DB01000800
:10007000DB010008DB010008DB010008DB010008F0
:10008000DB010008DB010008DB010008690800084B
:1000900039080008DB010008DB010008DB0100086B
:1000A000DB010008DB010008DB010008DB010008C0
:1000B000DB010008DB010008DB010008DB010008B0
:1000C000DB010008DB010008DB010008DB010008A0
:1000D000DB010008DB010008DD3B0008DB01000854
:1000E000DB010008DB010008DB010008DB01000880
:1000F000DB010008DB010008DB010008DB01000870
:10010000DB010008DB010008DB010008DB0100085F
:10011000A5370008DB01000845340008DB010008B2
:10012000DB010008DB01000811090008DB01000801
:10013000DB010008DB010008DB010008DB0100082F
:10014000DB010008DB010008DB010008DB0100081F
:10015000DB010008DB010008DB010008E93B0008C7
:10016000DB010008DB010008DB010008DB010008FF
:10017000DB010008DB010008DB01000800000000D3
:10018000DB010008DB010008DB010008DB010008DF
:10019000DB010008DB010008DB010008DB010008CF
:1001A0000000000000000000DB010008DFF80CD0B8
:1001B00000F090FA0048004719410008280A002082
:1001C0000648804706480047FEE7FEE7FEE7FEE7F1
:1001D000FEE7FEE7FEE7FEE7FEE7FEE7F133000895
:1001E000AD0100082DE9F05F0546002092469B46D0
:1001F00088460646814640241BE02846414647463D
:10020000224600F0E7F953465A46C01A914110D3EE
:1002100011461846224600F0CEF92D1A67EB010868
:100220004F4622460120002100F0C5F917EB0009D6
:100230004E41201EA4F10104DFDC484631462A4627
:100240004346BDE8F09F2DE9FE4F804681EA03005A
:10025000C00F0C46009021F0004123F00045B8EBA0
:100260000200A94105D24046214690461C460B4655
:10027000024623F00040104347D0270DC7F30A0081
:10028000C3F30A510290401A019040286BDAC3F37D
:10029000130040F4801B0098924620B10023D2EB5B
:1002A000030A63EB0B0B01985946C0F1400250461C
:1002B00000F081F906460D4650465946019A00F075
:1002C00099F910EB08006141002487EA115284EA91
:1002D000E7731A4340D0009A62B3019A012A4FEAA9
:1002E000075215DC001B61EB02014FF0004202EAED
:1002F0000752CDE90042001C41F5801132462B46E1
:1003000000F099F903B0BDE8F08F40462146F9E7C7
:10031000001B61EB0201001C41F5801300185B41DA
:100320002018A2F5001747EB030140EAD570B61973
:100330006D4111E06D084FEA360645EAC0754FEA97
:100340000752001B61EB0201001C41F580114908B6
:100350004FEA30000019514132462B4603B0BDE848
:10036000F04F00F059B90098012240000023D0EB73
:10037000020263EBE073009821464FEAE074B8EBA9
:10038000000061EB0401E9E783F000435BE781F0E3
:10039000004158E72DE9FE4F81EA030404F00044D0
:1003A00021F0004100944FF0000B23F0004350EA8D
:1003B00001045ED052EA03045BD0C3F30A54C1F3D4
:1003C0000A552C44A4F2F3340194A0FB0254C1F367
:1003D000130141F48011C3F3130343F4801301FBB1
:1003E000024400FB034E840A970A44EA815447EA18
:1003F0008357A4FB076802958D0A05FB07854FEA22
:10040000932C04FB0C542705029D4FEA065847EA3B
:100410001637B5EB08056EEB070C870E920E47EA10
:10042000811742EA8312A7FB0201B6EB0B0164EBD2
:1004300000042B0D43EA0C335E1844EB1C50DA46E3
:100440005146E7FB0201C5F313044FEA0B3343EABD
:1004500014534FEA0432019C43EA0603A4F10C044E
:100460000294009CCDE900B400F0E5F803B0BDE8CB
:10047000F08F00200146F9E72DE9F04D81EA0304F1
:1004800004F0004B21F0004514464FF0000A23F021
:10049000004150EA050220D054EA01021DD0C5F304
:1004A0000A570246C5F31303C1F31300C1F30A56FA
:1004B00040F4801543F48013A7EB0608101BD646C2
:1004C00008F2FD3873EB050002D308F1010801E0E2
:1004D00092185B41B8F1000F03DA00200146BDE835
:1004E000F08D00204FF48011064684460EE0171B65
:1004F00073EB050705D3121B63EB050306434CEAB8
:10050000010C49084FEA300092185B4150EA01079C
:10051000EDD152EA030012D082EA040083EA050119
:10052000084305D0101BAB4106D20122002306E090
:1005300000224FF0004302E06FF0010253101AEB6B
:1005400006004CEB085110EB0A0041EB0B01BDE833
:10055000F04D00F061B80EB5C10F80EAE0700844BC
:10056000CA07002140F233438DE80E000A460B46CD
:1005700000F061F803B000BD70B5C1F30A5201F09C
:1005800000450024C1F3130140F2FF3341F4801110
:100590009A4201DA002070BD40F233439A42A2F23F
:1005A000334203DC524200F015F800E090402C4347
:1005B000F1D0404270BD202A04DB203A00FA02F15B
:1005C000002070479140C2F1200320FA03F3194341
:1005D00090407047202A04DB203A21FA02F00021E3
:1005E000704721FA02F3D040C2F120029140084343
:1005F00019467047202A06DBCB17203A41FA02F051
:1006000043EAE07306E041FA02F3D040C2F120026F
:10061000914008431946704710B5141E73F1000449
:1006200008DA401C41F1000192185B411A4301D1E4
:1006300020F0010010BD2DE9F04D92469B4611B10E
:10064000B1FA81F202E0B0FA80F220329046FFF770
:10065000B2FF04460F4640EA0A0041EA0B01534646
:100660005A46084313D0114653EA010019D0C8F185
:1006700040025046FFF7AEFF05460E46504659462B
:100680004246FFF798FF084305D0012004E02046CA
:100690003946BDE8F08D0020054346EAE0762C435C
:1006A00037430A986305E40AA0EB08000022FD0A1C
:1006B00044EA47540A3002D500200146E9E7010523
:1006C00010196941DDE9084500196941BDE8F04D9F
:1006D000A2E70000064C074D06E0E06840F0010389
:1006E00094E8070098471034AC42F6D3FFF762FD58
:1006F000A0420008C042000810B500219FED302A3A
:10070000DFED301AB1EE041AFFEE000A9FED2E0A5B
:100710002E4802F0FDFDDFED302A9FED2D3A2B48EB
:100720000021B0EE432ADFED2B1AB0EE621AF0EE94
:10073000620A9FED2A0A343802F0EAFDDFED293A19
:10074000224800219FED262AF0EE631AB9EE0C1A1A
:10075000F0EE620A9FED240A683002F0D9FD1B48D2
:100760000021B0EE432AF0EE631AB0EE621AF0EE0A
:10077000620ABEEE000A343002F0CAFD134C0023B8
:10078000DFED1A3A9FED1A4A9FED1A3A9C3400BFEA
:1007900003EB830000EBC30004EB80000121B0EE0B
:1007A000632AF0EE441AB0EE621AF0EE430AB1EE9C
:1007B000040A02F0ADFD5B1C032BE9DD10BD000057
:1007C00000401C4600803B4500008CC224040020F1
:1007D00000409C450000FA44000000009A99993EB0
:1007E00000803B4600007A440000344200007A4614
:1007F0000000FA458FC2F53CFEE7000000B58BB063
:1008000000200121CDE90601039008910490009099
:100810000E2101900290099105906946054800F06B
:1008200035F90221034800F0B8F8024800F0F8FB5F
:100830000BB000BD4000002010B5084B084A002155
:10084000084800F0AAF9054A0549064800F012F8E0
:10085000BDE81040034800F01DBA00000000002071
:100860009402002040000020014800F013BA00006C
:100870004000002010B509682248A1F201214FF480
:100880008053062913D2DFE801F003071318252F40
:10089000118849BA018014E0118849BA81865188CB
:1008A00049BAC186918849BA01879179418710BDBB
:1008B000118849BA20F8681F03E0118849BA20F866
:1008C0009C1F518849BA4180918849BA81809179A9
:1008D000C18010BD108841BA0B4808E09942F8D990
:1008E000A1F50051418010BD108841BA07489942D6
:1008F0000180548864BA8480928852BAC280EDD252
:1009000089B2EFE7D8020020B6030020A803002038
:10091000014800F0CBBB00001C0200200168182336
:10092000CAB2103AB2FBF3F2054B6FF30901032A86
:100930009B5CC36500D9091D8165084670470000AE
:100940000042000810B5014600208B698A6A4FF00A
:10095000C07453B1B3F5005F15D072B1012A0CD049
:10096000022A0AD0032A09D104E01AB1012A06D0CA
:10097000022A03D1C96AC90100D5012010BDC96A84
:10098000A142FAD010BD002AF7D0012AF2D0022AE3
:10099000F3D0032AF3D010BD704790F82020012A2D
:1009A00009D090F82020022A05D0416A41F4802124
:1009B000416201207047006842690A434261002099
:1009C0007047F0B590F82040012C07D090F82040F7
:1009D000022C03D0416A41F4802153E00468A568E9
:1009E0006D0105D4A5682D0102D4A568ED0046D59A
:1009F000A4680125C4F30164A5401D608D684FF40F
:100A0000C0739DB1CE6835434E6845EAC605066899
:100A100003EB0417F5514FF4C275076805EB041595
:100A20000E697E51097D012905D009E00E88CD6847
:100A300045EA4655EBE701684E5946F480764E513B
:100A40001179D2F805504FF4C67641EA05210568C0
:100A500006EB0416A9511178D2F801204FF4C475A1
:100A600041EA0221026805EB04155151006803EBCD
:100A70000411425842F0010242500020F0BD416A88
:100A800041F4001141620120F0BD000010B590F862
:100A90002020012A09D090F82020022A05D0416A9E
:100AA00041F480214162012010BD3A48D0F8002273
:100AB00042F00102C0F80022D0F8002222F47C5259
:100AC000C0F80022D0F800224B6A42EA0322C0F8A4
:100AD00000220B7D01229A40D0F81C329343C0F8CB
:100AE0001C32CB69B3B9D0F80C329343C0F80C3246
:100AF0008C894B6864F31F434C6900EBC404C4F851
:100B000040320C890B6864F31F434C6900EBC4044A
:100B1000C4F84432CB69012B16D1D0F80C32134300
:100B2000C0F80C320C884B6864F31F434C6900EB2F
:100B3000C404C4F840320C89CB6864F31F434C6989
:100B400000EBC404C4F844328B69002BD0F80432A3
:100B50000ED01343C0F804320B69002BD0F81432C6
:100B600008D01343C0F81432096A012904D008E000
:100B70009343EFE79343F5E7D0F81C121143C0F815
:100B80001C12D0F8001221F00101C0F80012002060
:100B900010BD000000640040704730B590F8204060
:100BA000012C07D090F82040022C03D0416A41F478
:100BB000802109E011B1012909D00CE00468E46842
:100BC00007E0416A41F400114162012030BD046830
:100BD0002469A407F5D04FF4D874056804EB011418
:100BE0002D5915F00405956005682D5942D0ED0882
:100BF000556005682C59C4F34004D4604FF4DA748E
:100C0000056804EB01142D5905F00F051561056801
:100C10002D59C5F30725956105682C59240C54619D
:100C20004FF4DC72046802EB0112A4581C700468D3
:100C3000A458240A5C700468A458240C9C700468AE
:100C4000A258120EDA704FF4DE72046802EB011241
:100C5000A4581C710468A458240A5C710468A45840
:100C6000240C9C710468A258120EDA7129B1012972
:100C700009D00DE06D0D1560BBE70068C16841F05B
:100C80002001C16004E00068016941F020010161B8
:100C9000002030BD2DE9F05F05460068002446695C
:100CA000D0F804908768D0F80CB0D0F810A0D0F835
:100CB0001880F10748D0F90714D001218160B807E6
:100CC00003D5284600F0D9F90CE0780702D54FF497
:100CD000006407E0380702D54FF4805402E028464C
:100CE00000F0CAF9F80516D529684FF480708860BD
:100CF000B80503D5284600F0C2F90CE0780502D506
:100D000044F4005407E0380502D544F4804402E07E
:100D1000284600F0B3F9F80316D529684FF480305F
:100D20008860B80303D5284600F0ABF90CE07803DF
:100D300002D544F4004407E0380302D544F480347B
:100D400002E0284600F09CF9300707D55FEACB6047
:100D500004D52968102044F40074C86070074FF06F
:100D6000080707D55FEA0B7004D52868C7602846D6
:100D700000F050F9B00706D52868C068800702D097
:100D8000284600F048F9700607D55FEACA6004D526
:100D90002968102044F480640861B00607D55FEA32
:100DA0000A7004D528680761284600F035F9F00676
:100DB00006D528680069800702D0284600F02DF982
:100DC000B00308D55FEAC96005D5296810204860DE
:100DD000284600F023F9F00307D55FEA097004D52F
:100DE00028684760284600F04DF9300446D55FEA90
:100DF000497040D5F00504D55FEAC87001D044F0D1
:100E00000104B00504D55FEA887001D544F00204FE
:100E1000700504D55FEA487001D544F0040430053C
:100E200029D518F0700F26D008F07000402815D092
:100E300006DC102809D020280AD0302816D10AE074
:100E400050280ED0602811D10EE044F008040DE0C7
:100E500044F010040AE044F0200407E044F04004A9
:100E600004E044F0800401E044F48074286881695F
:100E700021F070018161296804204860002C05D0B0
:100E8000686A204368622846FFF786FEBDE8F09F47
:100E900070B5040003D094F8200010B104E00120E4
:100EA00070BD204600F082F82068016821F0020140
:100EB000016000F033FB0546052604E000F02EFB40
:100EC000401B0A2811D8206840688007F6D42068A3
:100ED000016841F00101016000F020FB05460BE0D4
:100EE00000F01CFB401B0A2806D9606A40F4003061
:100EF000606284F82060D2E720684068C007EFD0C5
:100F0000207E0128206801683DD021F08001016029
:100F1000607E01282068016838D021F0400101601E
:100F2000A07E01282068016833D021F020010160F3
:100F3000E07E0128206801682ED041F01001016098
:100F4000207F01282068016829D021F00801016074
:100F5000607F01282068016824D021F0040101602D
:100F6000D4E902010843D4E904121143084361683B
:100F7000491E08432168C86100206062012084F88E
:100F80002000002070BD41F08001C0E741F0400129
:100F9000C5E741F02001CAE721F01001CFE741F099
:100FA0000801D4E741F00401D9E7000000B500686A
:100FB000154987B0884225D114480021026842F0C3
:100FC000007202600068022200F0007005900320A9
:100FD000CDE90210CDE900020920049069460C48D1
:100FE00000F0B0F900221146132000F073FB13202B
:100FF00000F065FB00220121142000F06BFB14209F
:1010000000F05DFB07B000BD0064004040380240C6
:10101000000C0240704770477047704770470000EF
:1010200070B5044690F82000012804D0606A40F4AE
:101030000020606218E0022084F820002068016827
:1010400021F00101016000F069FA05460EE000BFE1
:1010500000F064FA401B0A2808D9606A40F40030A6
:101060006062052084F82000012070BD206840687F
:10107000C007EDD1606270BD704770477047704720
:1010800070477047704790F83510022903D08021CF
:10109000416501207047052180F83510006801681E
:1010A00021F0010101600020704700002DE9F843A4
:1010B00004464FF00009CDF8009063484FF41651F4
:1010C000A56D0068B0FBF1F72E6894F85C1008205D
:1010D00000FA01F131420FD021680A6852070BD59E
:1010E0000A6822F004020A6094F85C108840A86044
:1010F000606D40F00100606594F85C104FF00108ED
:1011000008FA01F0304208D021684969090604D57F
:10111000A860606D40F00200606594F85C100420E7
:101120008840304208D021680968890704D5A86042
:10113000606D40F00400606594F85C1010208840F9
:10114000304218D021680968090714D5A8602068C2
:101150000168490304D50068000308D5A16C07E0C5
:101160000168C90503D4016821F008010160216C00
:1011700009B12046884794F85C102020884030420E
:1011800031D021680968C9062DD5A86094F83500CA
:1011900005282068016806D0490347D50068000388
:1011A0001DD4616C1CE021F01601016020684169CA
:1011B00021F080014161206C08B9A06C20B1206849
:1011C000016821F00801016094F85C103F2088401C
:1011D000A86084F8349084F83580216D1FE0E16BBD
:1011E00009B120468847606D00282BD0606DC0078C
:1011F00014D0052084F835002068016821F0010131
:1012000001600098401C0090B84203D82068006834
:10121000C007F6D184F8349084F83580E16C002959
:1012200010D001B02046BDE8F04308470168C90569
:10123000D5D4016821F01001016084F8349084F85D
:101240003580CCE7BDE8F883080000202DE9F041A7
:10125000044600F063F906465CB1002584F834507A
:10126000022084F835002068016821F00101016046
:101270000DE00120BDE8F08100F050F9801B052849
:1012800005D920206065032084F83500F2E7206846
:101290000068C007F0D12268116820480140D4E9F5
:1012A00001031843D4E903363343184363691843F1
:1012B000A3691843E3691843236A18430843616A22
:1012C000042903D1D4E90B131943084310602068A3
:1012D0004069666A20F0070130460E430127042862
:1012E0000CD1A06A0643E06A40B12046FFF72AFB12
:1012F00020B14020606584F83570BAE72068466107
:101300002046FFF70BFB94F85C203F219140816061
:10131000656584F835700020ACE700003F8010F070
:1013200070B5044600F0FAF80546601C02D0044887
:101330000078044400F0F2F8401BA042FAD370BDDC
:10134000340000202DE9F84FDFF890B100224FF073
:1013500001084FF0030A4FF00F090BF1040E00BF14
:101360000B6808FA02F42340A3426ED14D68022DA7
:1013700001D0122D0ED1D50800EB850CDCF82050E1
:101380005607F70E09FA07F6B5430E69BE402E431D
:10139000CCF82060066855000F790AFA05FC07F0C2
:1013A000030726EA0C06AF40374307604E68012E5C
:1013B00005D0022E03D0112E01D0122E0ED1876837
:1013C000CE6827EA0C07AE403E4386604668A643D7
:1013D0000C79C4F30014944034434460C4688E68AC
:1013E00024EA0C04AE402643C6604C68E4006FD586
:1013F0003B4C256845F480452560246822F00305B0
:1014000004F480440094374C2E19D6F80848950708
:101410002F0F09FA07F5AC43334DA84201D100253F
:101420002EE0324DA84201D1012529E0304DA842DD
:1014300001D1022524E02F4DA84201D103251FE050
:101440002D4DA84202D104251AE041E02B4DA842BF
:1014500001D1052514E02A4DA84201D106250FE04F
:10146000284DA84201D107250AE0274DA84201D105
:10147000082505E0254DA84201D1092500E00A25EF
:10148000BD402543C6F80858DBF800405D464E686D
:101490009C43F60300D51C432C60DEF800407546E3
:1014A0004E689C43B60300D51C432C600B4D083599
:1014B0002C684E689C43F60200D51C432C60074DF7
:1014C0000C352C684E689C43B60200D51C432C603A
:1014D000521C102AFFF444AFBDE8F88F003C0140D5
:1014E0004438024000300140000002400004024045
:1014F00000080240000C02400010024000140240AC
:1015000000180240001C024000200240002402405B
:101510000AB1816170470904FBE700000148806857
:1015200070470000340000200248816802781144AE
:1015300081607047340000200B4810B5016841F409
:1015400000710160016841F480610160016841F44B
:1015500080710160032000F0DDF8002000F006F843
:1015600000F024F8002010BD003C024070B50D4D85
:1015700004464FF47A712878B1FBF0F00A49096803
:10158000B1FBF0F000F09BFB48B9102C07D2002211
:101590002146501E00F09EF800206C6070BD0120B6
:1015A00070BD000034000020080000201F4808B56E
:1015B000016841F480410160006800F480400090BF
:1015C0001A48001F016841F080510160006800F076
:1015D00080500090032000F09DF8002211466FF02B
:1015E0000B0000F077F8002211466FF00A0000F0BF
:1015F00071F8002211466FF0090000F06BF800222C
:101600001146501F00F066F800221146101F00F02E
:1016100061F800221146901E00F05CF80022BDE83F
:1016200008401146501E00F055B8000044380240F2
:101630002DE9F04116460F46040004D094F8390015
:10164000002518B107E00120BDE8F08184F838508A
:10165000204600F075FE242084F839002068C16817
:1016600021F40051C160204602F0FEF820680169B3
:1016700021F4904101612068416921F02A01416112
:101680002068016921F00F01016120680169394377
:1016900001612068C16821F40061C1602068C168EF
:1016A0003143C1602068C16841F40051C160E56305
:1016B000202084F8390084F83A000020C4E700F0C4
:1016C0001F02012191404009800000F1E020C0F894
:1016D00000117047F0B40E4B1B680C46C3F3022395
:1016E000C3F10705042D00D90425191D072901D2CE
:1016F000002300E0DB1E012606FA05F1491E214009
:1017000099409E40761E16403143F0BC01F08CBDDE
:101710000CED00E0064900F0070208684FF6FF03F1
:10172000184040EA0220034A104308607047000056
:101730000CED00E00000FA052DE9F84317480168B8
:1017400041F0805101600068154F00F08050012683
:1017500000903E64FFF7E2FE05464FF47A78114CA4
:1017600005E000BFFFF7DAFE401B40450DD860687A
:10177000C003F7D57E64FFF7D1FE0546464607E075
:10178000FFF7CCFE401BB04202D90320BDE8F8832E
:1017900060688003F4D50020F8E70000403802407C
:1017A00000000E42007000402DE9F0470E46050093
:1017B00065D0DFF81481D8F80000F7B200F00F0010
:1017C000B04207D288F80070D8F8000000F00F008F
:1017D000B04254D128683D4C810712D5400703D54B
:1017E000206840F4E05020602878000703D5206886
:1017F00040F4604020602068A96820F0F0000843B1
:1018000020602878C0072DD0304968680839012841
:1018100012D0022813D0032811D0096889070029A3
:101820002DDA216821F0030101432160FFF776FEE4
:10183000814641F2883A0EE009688903EFE70968BA
:101840008901ECE7FFF76AFEA0EB0901514502D9D7
:101850000320BDE8F0872068696800F00C00B0EB59
:10186000810FEFD1D8F80010404601F00F01B142CE
:1018700007D90770006800F00F00B04201D00120C6
:10188000E7E72878400705D52068E96820F4E050AC
:10189000084320602878000706D52068296920F4CD
:1018A000604040EAC100206000F03CF82168084A2E
:1018B000C1F30311515CC840064908600020FFF7DE
:1018C00055FE0020C5E70000003C024008380240F9
:1018D000E841000808000020014800687047000047
:1018E000080000200448054900680968044AC1F35B
:1018F0008221515CC840704708000020083802402F
:10190000F84100080448054900680968044AC1F321
:101910004231515CC840704708000020083802403E
:10192000F8410008154810B5006810F00C02144882
:1019300013D01449042A0FD0082A0ED10F4C241FAB
:101940002268236802F03F025B0207D52068C0F3DB
:101950008810A0FB010106E0084610BD2168C1F314
:101960008811A1FB00010023FEF73CFC2168C1F3B4
:101970000141491C4900B0FBF1F010BD083802409C
:101980000024F400001BB7002DE9F84F050076D0C5
:101990002878DFF8F8B2BE4CC00749D0DBF8001059
:1019A0005846C1F38101012908D00068C0F38100C5
:1019B00002280AD1201D0068400206D52068800355
:1019C00036D568680028E2D032E06868B0F5803F1C
:1019D00010D0B0F5A02F206810D020F48030206007
:1019E000206820F4802020606868A0B1FFF796FD91
:1019F00006460CE0206840F48030F4E740F4802094
:101A00002060F7E7FFF78AFD801B642873D8206801
:101A10008003F7D50CE0FFF781FD064605E000BF27
:101A2000FFF77CFD801B6428F0D820688003F7D482
:101A30002878DFF8608280074FF000093ED5DBF898
:101A40000010584611F00C0F09D00068C0F3810057
:101A500002280BD18D48001F0068400206D4206880
:101A6000800715D5E868012809D111E0E868B8B108
:101A70000120C8F80000FFF751FD064605E002E12D
:101A8000FFF74CFD801B0228C0D820688007F7D5DF
:101A90002068296920F0F80040EAC10020600DE0CC
:101AA000C8F80090FFF73AFD064604E0FFF736FD60
:101AB000801B02281FD820688007F7D428780007E9
:101AC00022D5724E744869696C3671B1012101608A
:101AD000FFF724FD074604E0FFF720FDC01B0228A6
:101AE00009D830688007F7D50EE0C0F80090FFF7FE
:101AF00015FD074605E083E0FFF710FDC01B022837
:101B00007ED830688007F7D42878400768D5DFF89A
:101B10007CA100270AF1380ADAF80000C0000BD4D3
:101B2000DAF8001041F08051CAF80010DAF800002D
:101B3000012700F080500090584E3068C00510D446
:101B4000306840F480703060FFF7E8FC009005E0FA
:101B5000FFF7E4FC0099401A022851D83068C0050C
:101B6000F6D54A4EA868683601280FD00528306897
:101B700010D020F001003060306820F004003060A8
:101B8000A868B8B1FFF7CAFC00900FE0306840F0D9
:101B90000100F4E740F004003060F7E7FFF7BEFC17
:101BA0000099411A41F28830814264D83068800738
:101BB000F4D50EE0FFF7B2FC009007E0FFF7AEFCB3
:101BC0000099411A41F28830814254D83068800728
:101BD000F4D42FB1DAF8001021F08051CAF80010C7
:101BE000A869C0B3DBF80010C1F3810102294AD013
:101BF0000228484607D0C8F86000FFF78FFC00E0D5
:101C000039E005463AE04746C8F86000FFF786FC31
:101C1000064604E0FFF782FC801B02282BD82068D0
:101C20008001F7D4D5E907010843A96A1C4A49088D
:101C300002EB01416A6A41EA8211084395F82C10CF
:101C400040EA01611148001F016001203866FFF77A
:101C500065FC054605E014E0FFF760FC401B022828
:101C600009D820688001F7D50BE000BFFFF756FCCC
:101C7000401B022802D90320BDE8F88F20688001AC
:101C8000F4D40020F8E70120F6E70000083802400D
:101C90000038024000004742800E4742007000407A
:101CA0000000FFFF4FF0E0210428086903D020F076
:101CB00004000861704740F00400FAE7704710B56F
:101CC000401EB0F1807F01D3012010BD4FF0E02411
:101CD00060610F21601701F0A7FA0020A0610720C2
:101CE0002061002010BD10B5FFF7E8FF10BD704760
:101CF000704730B590F83820012A20D0012280F8B2
:101D00003820022380F8393003685C6824F07004BE
:101D10005C6003685C680D682C435C6003689C68C9
:101D200024F080049C6003689C6849680C439C60B4
:101D300080F83920002180F83810084630BD022094
:101D400030BD10B5040003D094F8390010B107E09D
:101D5000012010BD002084F83800204600F00CF867
:101D6000022084F83900211D206801F075FB012054
:101D700084F83900002010BD08B5124A01681248E5
:101D8000914207D1016841F004010160006800F050
:101D9000040009E00D4A914208D1016841F01001A8
:101DA0000160006800F01000009008BD084A9142F0
:101DB000FBD1016841F040010160006800F0400083
:101DC000F2E70000000800404038024000100040E8
:101DD000001800400168CA6842F00102CA60006849
:101DE000016841F0010101600020704770B50446B0
:101DF00090F83800012817D0012584F838500220C7
:101E000084F839002068826822F0770222F47F4249
:101E100082600868502837D00DDC202859D005DCB6
:101E200088B3102841D151E0022070BD302853D032
:101E300040283AD13FE060282ED070280BD0B0F572
:101E4000805F03D0B0F5005F2FD110E0206881687B
:101E500021F0070115E0CB68D1E90121206801F0EC
:101E60005BFB2168886840F0770088601DE0CB68E4
:101E7000D1E90121206801F04FFB2068816841F41D
:101E80008041816011E01EE0CA684968206801F065
:101E90000BFC5021206806E0CA684968206801F000
:101EA00014FC6021206801F041FB84F839500020C7
:101EB00084F8380070BDCA684968206801F0F4FBF6
:101EC00040212068EFE700212068ECE7102120681E
:101ED000E9E720212068E6E730212068E3E7704742
:101EE00070B50446006801694FF00005C9438907D1
:101EF00015D4C168C943890711D4E91E01610120C5
:101F00002076206880698007204602D0FFF7E7FF2F
:101F100004E000F0C3F8204600F045F9257620687B
:101F20000169C943490717D4C168C943490713D494
:101F30006FF004010161022020762068806910F4AE
:101F4000407F204602D0FFF7CAFF04E000F0A6F869
:101F5000204600F028F9257620680169C943090761
:101F600016D4C168C943090712D46FF00801016192
:101F7000042020762068C0698007204602D0FFF741
:101F8000AEFF04E000F08AF8204600F00CF9257658
:101F900020680169C943C90617D4C168C943C90685
:101FA00013D46FF010010161082020762068C06909
:101FB00010F4407F204602D0FFF791FF04E000F0CC
:101FC0006DF8204600F0EFF8257620680169C943D6
:101FD000C90708D1C168C943C90704D1891E016175
:101FE000204600F0E1F820680169C943090609D4D8
:101FF000C168C943090605D46FF08001016120461C
:10200000FFF775FE20680169C943490609D4C16814
:10201000C943490605D46FF040010161204600F034
:10202000C4F820680169C94389060BD4C168C94353
:10203000890607D46FF0200101612046BDE8704099
:10204000FFF756BE70BD000000B5104B02680021BE
:10205000022085B09A4208D1C2020092CDE9010166
:10206000CDE9031069460A480CE00A4B9A420BD1AD
:102070004FF410720092CDE901010920CDE903105F
:1020800069460548FFF75EF905B000BD000800404D
:10209000000C024000180040001C0240704770B560
:1020A000044690F838000D4601280DD0012684F82A
:1020B0003860022084F8390042B1042A18D0082A76
:1020C0002AD00C2A4DD139E0022070BD206801F0E1
:1020D00035FA2068816941F00801816120688169D1
:1020E00021F004018161206881692A69114311E0AE
:1020F000206801F04FFA2068816941F40061816134
:102100002068816921F480618161206881692A6980
:1021100041EA0221816124E0206801F06DFA206823
:10212000C16941F00801C1612068C16921F0040161
:10213000C1612068C1692A69114311E0206801F07A
:102140008BFA2068C16941F40061C1612068C169EE
:1021500021F48061C1612068C1692A6941EA0221D4
:10216000C16184F83960002084F8380070BD10B572
:10217000040003D094F8390010B107E0012010BD2D
:10218000002084F83800204600F00CF8022084F883
:102190003900211D206801F05FF9012084F8390021
:1021A000002010BD704770477047704708B5006841
:1021B0000168C943090705D4016841680091406876
:1021C0000149487008BD00002000002070B5026879
:1021D00004461068D168536910F00F0F51D003F016
:1021E000010501F4907635435DD0C20705D0CA05DC
:1021F00003D5E26B42F00102E263420705D5DA073C
:1022000003D0E26B42F00202E263820705D5DA07EF
:1022100003D0E26B42F00402E263020705D5DA075D
:1022200003D0E26B42F00802E263E26B002A34D092
:10223000800604D5880602D5204601F0CFFA206832
:102240004069E16BC0F3801001F0080101432046B2
:1022500024D001F0B5FA2068416949061AD54169D0
:1022600021F040014161606BA0B11B490165606BC9
:10227000FEF709FF002810D0606B016DBDE87040CB
:10228000084783060FD58B060DD52046BDE8704064
:1022900001F0A4BA2046FFF789FF70BDFFF786FF63
:1022A0000020E06370BD030606D50B0604D520466A
:1022B000BDE8704001F02EBC4006F3D54806F1D5CC
:1022C000D168204621F04001D160202184F83910E6
:1022D00000F0C3FA70BD0000B137000870B504000B
:1022E00004D094F83900002510B106E0012070BD3B
:1022F00084F83850204600F023F8242084F8390070
:102300002068C16821F40051C160204601F0ACFA98
:102310002068016921F4904101612068416921F040
:102320002A0141612068C16841F40051C160E56340
:10233000202084F8390084F83A00002070BD0000A5
:102340002DE9F043074602684F4800244F49032512
:102350000226DFF83CC187B04FF00808824218D14E
:10236000086840F400200860086802AA00F4002011
:102370000590CDE90056012082E8210169466046BA
:10238000FEF7E0FF002205213420FFF7A3F93420F7
:102390005FE03E483F4B001D4FF007099A4230D1A5
:1023A000016841F010010160006802AA00F010000D
:1023B0000590C020CDE9000682E830026946364823
:1023C000FEF7C0FF364D354828604FF00060C5E984
:1023D00001044014C5E9034080106C61C5E9064062
:1023E0004FF44030C5E908042846FEF72FFF18B126
:1023F000C3212CA001F023FC7D63AF6307B0BDE8CF
:10240000F0832C4B9A4227D10868274640F40030CD
:1024100008600868CDE9026500F4003005900420EA
:10242000CDE90006694664466046CDF81090FEF797
:1024300089FFCDE90275CDE9008669462046CDF8D1
:102440001090FEF77FFF002201212620FFF742F9BE
:102450002620FFF734F9D1E717498A42CED1016827
:1024600041F020010160006802AA00F02000059000
:102470004FF48440CDE9000682E8300169460F48F8
:10248000FEF760FFBAE70000004C00404038024011
:10249000000002400010014000040240406402407D
:1024A0001C0200202E2E2F5372632F7573617274DD
:1024B0002E63000000440040001401400018024058
:1024C0002DE9F05FA349DFF890A200252DED048BE4
:1024D000006888427CD1A14CA14A234694F801C0EF
:1024E000187893F80C9001020FB2B3F9046009EB6D
:1024F0000001B3F906304FF0010BC9B2BCF1090F6E
:102500000CD2DFE80CF0050F161E252E343B4400DC
:10251000262801D184F801B061785054BDEC048BB9
:10252000BDE8F09F252801D06570F5E702216170B4
:10253000F2E7A78000F14B01217303216170D07095
:10254000ECE73318A3802173042161701071E5E773
:102550002D2801D17342A380217305216170507130
:10256000DCE7E7802173062161709071D6E70344B0
:10257000E380217307216170D071CFE72D2801D14D
:102580005B42E3802173082161701072C6E74FF44B
:102590007A73814576D150725220A0700122A11C1D
:1025A000704800F0FDF87048007A012873D1564653
:1025B0009AF80000DFF8B481DFF8B4916D4FDFF8CE
:1025C000B8A101284AD1B4F90600FDF7C4FF00E024
:1025D00063E09FED6A9B53EC192BFDF7DBFE41ECAA
:1025E000100B01F045FB9FED671B51EC100B53ECFA
:1025F000112BFDF7CFFE41EC180BB8F90200FDF7E7
:10260000AAFF53EC182BFDF71EFEFDF7B5FFA9F846
:102610000000B4F90400FDF79EFF53EC192BFDF701
:10262000B9FE41EC100B01F023FB9FED581B51EC60
:10263000100B53EC112BFDF7ADFE41EC180B86EDA2
:10264000028BB7F90200FDF786FF53EC182BFDF75C
:102650009BFEFDF791FFAAF800003570B7F9021054
:10266000BAF90000081A1D303B2814D2B8F902103C
:10267000B9F90000081A6330C7280CD286F800B0F8
:1026800009E0FFE7A580E5805720A0700122A11C8A
:10269000344800F085F8657040E73E498842FBD039
:1026A0003D498842F8D13D480278817D02F07F02A1
:1026B0000244517001784A0602D14278242AEBD1B3
:1026C000491C017001F07F010829417D827D02D003
:1026D0001144417522E7914239D11F4A0021921CD1
:1026E00043181B795354491C0429F9DB8178642968
:1026F00020D0692910D0702929D18269DAF8021016
:102700009161C1782D2922D1816991ED060AB1EE3E
:10271000400A81ED060A1AE08169DAF80220CA61EE
:10272000C2782D2A13D191ED070AB1EE400A81ED4E
:10273000070A0CE08169DAF802200A62C2782D2AC1
:1027400005D191ED080AB1EE400A81ED080A457500
:102750000570E3E60044004020000020C403002090
:10276000A00500209C010020C2020020A803002038
:1027700018000020B60300201A0000200135B56CB7
:10278000AD2F623F6666666666608F4033333333D3
:102790003360944000140140004C0040D4030020FA
:1027A0002DE9F843044690F839001F4616460D46B9
:1027B000202850D1A5B19EB194F8380001284AD004
:1027C000012084F838004FF00008C4F83C80212034
:1027D00084F83900FEF7A2FEA6848146E68426E04E
:1027E0000120BDE8F883E08C401EE084A0684B46E1
:1027F000B0F5805F4FF000024FF080012046009757
:1028000003D001F0B8F9E8B90DE001F0B4F9C8B9A6
:1028100028882168C0F308004860206908B16D1C51
:1028200005E0AD1C03E0216815F8010B4860E08C61
:102830000028D8D14B46002240212046009701F0C5
:102840009AF908B10320CCE7202084F8390084F8F5
:1028500038800020C5E70220C3E77047FEE700008C
:1028600070B50D4C0025C4F894520C48016821F451
:1028700040710160016841F480710160C4F89052B8
:10288000022004F5247401F021FC01206060022084
:1028900001F01CFC656070BD000042420010024067
:1028A00003480121C0F89412C0F89012704700004C
:1028B0000000424270B50D4C0025C4F894520C48FB
:1028C000016821F440710160016841F48071016088
:1028D0000126C4F89062022004F5247401F0F6FB8E
:1028E0006660022001F0F2FB656070BD00004242AC
:1028F000001002402DE9F047814616480024016887
:1029000021F44071016001680160134E254627469D
:102910004FF00108C6F89472022001F0D7FBC6F808
:1029200094826006040ED6F8100208B1641CE4B26A
:10293000012001F0CBFB6D1CEDB2082DEAD3B9F1FB
:10294000000F04D0FFF78CFF2046BDE8F087FFF7AB
:10295000B1FFF9E700100240000042422DE9F041CA
:1029600006461448016821F440710160016841F491
:1029700080710160104C0027C4F894723D464FF0FE
:102980000108F009C4F890027006060E022001F05A
:102990009DFBC4F89482022001F098FBC4F8947265
:1029A000022001F093FB6D1CEDB2082DE9D3BDE8C8
:1029B000F0810000001002400000424270B50D4856
:1029C000016821F440710160016841F48071016087
:1029D000094C0120C4F89002C4F89402042004F5C4
:1029E000247401F073FB00252560042001F06EFBC8
:1029F000656070BD00100240000042420E4810B5F4
:102A0000016821F440710160016841F48071016046
:102A10000A4C0020C4F89402C4F89002042004F583
:102A2000247401F053FB012060602060BDE8104079
:102A3000042001F04BBB00000010024000004242A5
:102A400070B512480024016821F4407101600168EA
:102A500001600F4D0126C5F89062304601F036FB4B
:102A6000C5F89462012001F031FB07E0641CE4B278
:102A7000FA2C03D9FFF7C2FF012070BDD5F8100270
:102A80000028F3D1C5F8940270BD00000010024088
:102A9000000042421C4A10B5911E881E00F0C2F888
:102AA000194A243A911E881E00F0A3F816483438BB
:102AB00030F8301F428A891A0AB200EE102A0280CA
:102AC0004188F8EEC00A9FED110A838A80EE801AD1
:102AD000C91A09B2418000EE901A8388C48AF8EEC0
:102AE000E00A1B1B1BB2838000ED031A80EE801AE4
:102AF00000EE903AF8EEE00A00ED021A80EE801A3D
:102B000000ED011A10BD0000E005002033338341C1
:102B10002DE9F05FDFF85C80142400273E463D4637
:102B200008F1340B08F1320A08F1300910E05A4676
:102B30005146484600F076F8B8F93010B8F934003C
:102B40000F44B8F9321005440E44642001F0B0FA85
:102B5000641EECD2142197FBF1F2404620F8422F7C
:102B600096FBF1F295FBF1F14280A8F84610BDE822
:102B7000F09F0000AC05002010B5FFF791FE80210A
:102B80006B2000F0F7F86420FEF7CAFB00216B20F1
:102B900000F0F0F8032000F0B6F8002000F0AEF8E6
:102BA0004FF47A74204600F0CEF80021382000F06F
:102BB000E1F800216A2000F0DDF87021232000F008
:102BC000D9F88021372000F0D5F8752000F043F8BF
:102BD000682801D0012010BD01216B2000F0CAF847
:102BE00000216C2000F0C6F8204600F0ACF8002070
:102BF00010BD7CB514460D4606466B4606223B21A9
:102C0000682000F045F800280BD1BDF8001049BA43
:102C10003180BDF8021049BA2980BDF8041049BAC4
:102C200021807CBD7CB514460D4606466B460622C7
:102C30004321682000F02CF800280BD1BDF80010CB
:102C400049BA3180BDF8021049BA2980BDF8041094
:102C500049BA21807CBD10B50446FFF7AFFED020F5
:102C6000FFF77CFEFFF7ECFE2046FFF777FEFFF74D
:102C7000E7FEFFF7A3FED120FFF770FEFFF7E0FEAF
:102C80000020FFF737FE0446FFF7B8FE204610BDD0
:102C90002DE9F0411D4614460F460646FFF78EFE0D
:102CA0007006000EFFF75AFEFFF7CAFE20B1FFF7CD
:102CB000A5FE0120BDE8F0813846FFF74FFEFFF783
:102CC000BFFEFFF77BFE012000EB4600C0B2FFF71E
:102CD00045FEFFF7B5FE09E0012C0DD05FF00100C5
:102CE000FFF708FE641E05F8010BE4B2002CF3D1D7
:102CF000FFF784FE0020DDE70020F1E7C006010EAB
:102D00001C2000F037B8C006010E1B2000F032B8BE
:102D10000021FF2814D2BC2801D3012110E0622831
:102D200001D302210CE02A2801D3032108E0142852
:102D300001D3042104E00A2801D3052100E0062183
:102D40001A2000F017B810B504464FF47A70844288
:102D500001D9044602E0042C00D20424B0FBF4F0B4
:102D6000401EC1B2192000F005F86008BDE810400F
:102D7000FFF7CEBF70B50C460546FFF71FFED0200B
:102D8000FFF7ECFDFFF75CFE50B92846FFF7E6FDC4
:102D9000FFF756FE2046FFF7E1FDFFF751FE18B1A1
:102DA000FFF72CFE012070BDFFF728FE002070BD4C
:102DB000104810B50E4901600521416000214FF413
:102DC00000328160C0E903125201426101220276A1
:102DD00041768176C17601774277FEF759F800286F
:102DE00005D0BDE81040452103A000F028BF10BD6C
:102DF00000640040400000202E2E2F5372632F638A
:102E0000616E2E6300000000054808B5016841F4BA
:102E100080010160006800F48000009008BD00009F
:102E2000303802402DE9F0473F4886B00024016861
:102E300041F040010160016801F040010591016825
:102E400041F002010160016801F002010591016891
:102E500041F010010160016801F010010591016865
:102E600041F008010160016801F008010591016865
:102E700041F020010160016801F020010591016825
:102E800041F080010160016801F080010591016855
:102E900041F0010101600068244F00F001004FF48F
:102EA00000550590002229463846FEF731FBDFF831
:102EB0008080002210214046FEF72AFBDFF8749044
:102EC0000022B0214846FEF723FBDFF86CA044F255
:102ED0000106002231465046FEF71AFB00950125F7
:102EE000CDE90154694638460394FEF72BFA1020C9
:102EF0000090CDE90154694640460394FEF722FA5A
:102F0000B0200090CDE90154694648460394FEF78D
:102F100019FA0096CDE90154694650460394FEF72C
:102F200011FA06B0BDE8F0873038024000180240C0
:102F300000040240001002400014024010B5244872
:102F40008CB02249016059210024C0E9011440F6E7
:102F5000C311C0E90314FEF7F4FE18B185211DA0CA
:102F600000F06DFE4FF48050079007A91848FEF757
:102F70003DFF18B18B2117A000F061FE1448FFF748
:102F8000F6F818B1902113A000F059FE60200090CF
:102F90004FF47A70CDE90104002269460C4804948C
:102FA000FFF77DF818B199210AA000F048FE04222D
:102FB00069460748FFF773F818B19E2105A000F095
:102FC0003EFE0348FFF740F80CB010BD001800406B
:102FD000E00000202E2E2F5372632F74696D2E6334
:102FE0000000000010B525488EB02349016059212A
:102FF0000024C0E9011440F2CF71C0E90314FEF7C8
:10300000A0FE18B141211EA000F019FE4FF480501F
:10301000079007A91948FEF7E9FE18B1472118A043
:1030200000F00DFE1548FFF7A2F818B14C2114A0CE
:1030300000F005FE0B940BA910480C94FEF759FE06
:1030400018B153210EA000F0FAFD602000904FF45B
:10305000FA70CDE901040022694608480494FFF79C
:103060001EF818B15C2106A000F0E9FD0348FEF748
:10307000EBFF0EB010BD000000080040680000200B
:103080002E2E2F5372632F74696D2E630000000083
:103090001CB510480E49002401605921C0E90114F3
:1030A00040F2E731C160FEF74CFE18B16D210AA075
:1030B00000F0C5FD0094694606480194FEF719FE2C
:1030C000002803D0742104A000F0B9FD1CBD00004D
:1030D00000100040A40000202E2E2F5372632F7486
:1030E000696D2E63000000000D4810B50B490160AA
:1030F0004FF4E1314160002181600C22C160C0E9E0
:1031000004128161C161FFF7E9F8002805D0BDE82C
:103110001040462103A000F092BD10BD004C0040BD
:103120001C0100202E2E2F5372632F757361727451
:103130002E6300000D4810B50B4901600C49416039
:10314000002181600C22C160C0E9041281610A463D
:10315000C161FEF76DFA002805D0BDE81040592185
:1031600004A000F06CBD10BD001001405C01002007
:10317000A08601002E2E2F5372632F757361727417
:103180002E6300000E4810B50C4901604FF4E13188
:103190004160002181600C22C160C0E9041281619C
:1031A0000A46C161FEF744FA002805D0BDE8104088
:1031B0006C2104A000F043BD10BD0000004400409D
:1031C0009C0100202E2E2F5372632F757361727431
:1031D0002E6300000E4810B50C4901604FF4E13138
:1031E0004160002181600C22C160C0E9041281614C
:1031F0000A46C161FEF71CFA002805D0BDE8104060
:103200007F2104A000F01BBD10BD00000014014090
:10321000DC0100202E2E2F5372632F7573617274A0
:103220002E630000FEE770470907090E002806DA42
:1032300000F00F0000F1E02080F8141D704700F14D
:10324000E02080F800147047D0ED000A90ED010AEC
:1032500090F83010D0ED072A30EEC00A90ED062A23
:10326000D0ED081AD0ED030A69B330EE603A90ED64
:10327000041A00F10C0123EE022A81EC030A00EE8D
:10328000222AF0EE002A00EEE20A30EE010A00EEF9
:10329000212A90ED0A0A32EE000A80ED0A0A00BFE8
:1032A000D0ED0A0A90ED0B0AF4EEC00AF1EE10FA26
:1032B00006DCB1EE400AF4EEC00AF1EE10FA01D2DB
:1032C00080ED0A0A7047C0ED040A80ED030A90ED14
:1032D000021A00EE221A80ED021AD0ED092AB4EE8D
:1032E000E21AF1EE10FA06DCF1EE622AB4EEE21A0E
:1032F000F1EE10FA01D2C0ED022A90ED021A00EEB2
:10330000021A30EE600A00EE211A80ED0A1AC7E7B1
:1033100000F1180282EC030A9FED050A80ED020A13
:10332000C0ED091A80ED0B2A80F8301070470000BC
:10333000000000007047704710B5FEF7F5F8BDE8D3
:103340001040FEF7D0BC000030B5274893B00025F0
:10335000016841F080510160006800F080501190D8
:103360002248016841F4404101600068022400F4F1
:103370004040119001200090000401908001CDE9AF
:10338000064006200890B420CDE9090404200B90E3
:103390006846FEF7F9FA00B1FEE7FEF7CDF900B195
:1033A000FEE70CA90F2081E831004FF4A0500F90E8
:1033B0004FF48050109005210CA8FEF7F5F900B1EC
:1033C000FEE7FEF789FA4FF47A71B0FBF1F0FEF7F1
:1033D00076FC0420FEF766FC00221146501EFEF724
:1033E00079F913B030BD0000403802400070004051
:1033F0001048016841F4700101600F48016841F014
:10340000010101600C4A00210832116002680B4B77
:103410001A400260031D0A4A1A60026822F48022E0
:10342000026005480C300160024958068039086086
:103430007047000088ED00E000380240FFFFF6FE14
:103440001030002410B500F053F9BDE810400148D9
:10345000FEF746BDA4000020F0B50268234B244DC2
:10346000244E254F254C4FF0804C984209D06045A2
:1034700007D0A84205D0B04203D0B84201D0A04244
:1034800004D122F0700E4A6842EA0E0298421BD024
:10349000604519D0A84217D0B04215D0B84213D019
:1034A000A04211D0164DA8420ED0164DA8420BD006
:1034B000154DA84208D0154DA84205D0144DA8427C
:1034C00002D0144DA84203D122F44075CA682A43A1
:1034D00002608A68C2620A688262984201D0A04291
:1034E00001D10969016301214161F0BD0000014082
:1034F0000004004000080040000C004000040140AF
:1035000000400140004401400048014000180040D4
:10351000001C00400020004010B5846842EA0322ED
:1035200024F47F440A432243826010BD826822F063
:1035300070020A4342F007018160704730B5026AA9
:1035400022F001020262026A436884690D6824F075
:103550007304254322F002048A6822430B4CA042E4
:1035600002D00B4CA0420BD122F00804CA6823F40D
:10357000407322434C6922F004021C438B692343AD
:103580004360856149684163026230BD00000140CB
:103590000004014030B5026A22F010020262026AA1
:1035A000436884690D6824F4E64444EA05248D6880
:1035B00022F0200242EA05120D4DA84202D00D4D24
:1035C000A8420ED1CD6822F0800242EA05124D6970
:1035D00023F4406343EA85038D6922F0400243EA05
:1035E00085034360846149688163026230BD0000E5
:1035F000000001400004014030B5026A22F48072EC
:103600000262036A4268C46923F4007324F07305FC
:103610000C682C438D6843EA05230D4DA84202D067
:103620000C4DA8420ED1CD6823F4006343EA052374
:103630004D6922F4405242EA05128D6923F48063F9
:1036400042EA05124260C4614968C163036230BD49
:10365000000001400004014030B5026A22F48052AB
:103660000262046A4268C3690D6823F4E64343EAD0
:1036700005238D6824F4005444EA0534084DA8421B
:1036800002D0084DA84204D14D6922F4804242EA9A
:1036900085124260C36149680164046230BD000064
:1036A000000001400004014010B5036A046A24F0E0
:1036B00001040462846924F0F00444EA021423F053
:1036C0000A020A438461026210BD10B5036A23F046
:1036D000100303628369046A23F4704343EA0232ED
:1036E00024F0A00343EA01118261016210BD0000D1
:1036F0002DE9F041254E0120C6F8B802244D288856
:10370000401C2880FFF7C6F928880921B0FBF1F298
:1037100001FB12001F4F204CD0B9B7F9020000EE98
:10372000100A2046B8EEC00A84ED010A9FED1B0A7C
:1037300084ED000AFFF788FD94ED0A0A00231A467B
:10374000BDEEC00A194610EE100A00B200F052FA9F
:10375000134894ED020A80ED000AB7F9021000EE5A
:10376000101A1021B8EEC00A80ED010A94ED0A0A81
:1037700080ED020A00F014FD29880020B1F57A7F5F
:1037800000D32880C6F8B802BDE8F081008042422C
:103790001C000020D8020020C00400200000FA44D1
:1037A000900500200148FEF711BD00001C0100201B
:1037B00010B5806B0021C185C184FEF7F7FC10BDF8
:1037C0000168CA6822F49072CA6001684A6922F0EE
:1037D00001024A61202180F83A10704710B590F834
:1037E0003A10222901D0022010BD8168B1F5805F16
:1037F00011D00169002901681FD0496801F07F03D9
:10380000816A4A1C82620B70C18D491E0904090C31
:10381000C18518D026E00269816A002A02685268D0
:1038200005D0D2B20A80816A491C8162ECE7C2F3FA
:1038300008020A80816A891CF7E74A68816A4B1C82
:1038400083620A70E0E70168CA6822F49072CA6075
:1038500001684A6922F001024A61202180F83A1089
:10386000FEF72EFE002010BD2DE9F0410446006851
:10387000016921F44052E168114301612168C8687F
:1038800049F20C6290432369A268E5691A436369AF
:103890002B431A430243CA602168486920F44072EE
:1038A000A06910434861E1696425B1F5004F97486C
:1038B000974A21684FF032083FD0914201D08142AF
:1038C0007CD1FEF71FF800EBC00101EB001061682E
:1038D0008900B0FBF1F6FEF715F800EBC00101EB33
:1038E000001061688900B0FBF1F0B0FBF5F06FF0FB
:1038F0001801484306EB800108EB0110B0FBF5F01E
:1039000000F0F006FDF7FEFF00EBC00101EB001038
:1039100061688900B0FBF1F0B0FBF5F006EB001632
:10392000FDF7F0FF00EBC00101EB001061688900BA
:10393000B0FBF1F7FDF7E6FFD2E0914201D0814202
:103940003DD1FDF7DFFF00EBC00101EB0010616826
:103950004900B0FBF1F0B0FBF5F00601FDF7D2FF36
:1039600000EBC00101EB001061684900B0FBF1F70A
:10397000FDF7C8FF00EBC00101EB001061684900D2
:10398000B0FBF1F0B0FBF5F06FF01801484307EB26
:10399000800108EBC100B0FBF5F000F0F80006EB89
:1039A0004006FDF7AFFF00EBC00101EB00106168BE
:1039B0004900B0FBF1F7FDF7A5FF3CE055E0FDF74E
:1039C00091FF00EBC00101EB001061684900B0FB02
:1039D000F1F0B0FBF5F00601FDF784FF00EBC0014C
:1039E00001EB001061684900B0FBF1F7FDF77AFFC9
:1039F00000EBC00101EB001061684900B0FBF1F081
:103A0000B0FBF5F06FF01801484307EB800108EBBD
:103A1000C100B0FBF5F000F0F80006EB4006FDF742
:103A200061FF00EBC00101EB001061684900B0FBD1
:103A3000F1F7FDF757FF00EBC00101EB00106168E3
:103A40004900B0FBF1F0B0FBF5F06FF0180148430E
:103A500007EB800108EBC100B0FBF5F000F00700B8
:103A6000216830448860BDE8F081FDF73BFF00EB42
:103A7000C00101EB001061688900B0FBF1F6FDF7B1
:103A800031FF00EBC00101EB001061688900B0FB61
:103A9000F1F0B0FBF5F06FF01801484306EB800140
:103AA00008EB0110B0FBF5F000F0F006FDF71AFF8F
:103AB00000EBC00101EB001061688900B0FBF1F080
:103AC000B0FBF5F006EB0016FDF70CFF00EBC001B4
:103AD00001EB001061688900B0FBF1F7FDF702FF10
:103AE00000EBC00101EB001061688900B0FBF1F050
:103AF000B0FBF5F06FF01801484307EB800108EBCD
:103B00000110B0FBF5F000F00F00A9E70014014030
:103B10000010014090F83910212901D0022070478F
:103B20008168B1F5805F016A0BD04A1C02620268AD
:103B300009785160C18C491E0904090CC1840ED05A
:103B400017E009880268C1F3080151600169002982
:103B5000016A02D0491C0162ECE7891CFBE701689D
:103B6000CA6822F08002CA600068C16841F0400162
:103B7000C160002070472DE9F041984617460E4677
:103B80000446069D1DE0681C1BD02DB1FDF7C6FC48
:103B9000A0EB0800A84214D92068C16821F4D071B4
:103BA000C1602068416921F001014161202084F851
:103BB000390084F83A00002084F838000320BDE87A
:103BC000F0812068006836EA000004D00020B84286
:103BD000D9D00020F3E70120F9E700000148FEF703
:103BE000F5BA00009C0100200148FEF7EFBA000082
:103BF000DC01002030B40E4C4FF400752560002528
:103C0000A560E560082525610A4C050A25706070ED
:103C1000080AA070E170100A20716271180AA07180
:103C2000E371231F30BC1A1D01490348FCF7C9BECC
:103C30007C0200201000002040000020FEE7FEE78C
:103C400003B401984100009850EAC12018BF042035
:103C50004A0D18BF40F0010040F2FF72B2EB515F15
:103C600008BF40F00200012808BF052002B07047DD
:103C700070B59B482DED020B2DED068B079D25F0B1
:103C80000044A04218DC9748844202DC0AD106981E
:103C900040B19DED060BBDEC068B02B0BDE8704057
:103CA00000F0CEB9002DCCBF9FED8F0B9FED900B98
:103CB000BDEC068B02B070BD8F48A04215DD8F4869
:103CC000A042D8BF4FF0FF3458DD9DED060B51ECFC
:103CD000100BFFF7B5FF042808BF00F0BDF99DEDFC
:103CE000060BBDEC068B02B070BD9DED060B51ECD2
:103CF000100B00F005FACDE9060181489FED828B9B
:103D0000A0423CDD8248A0421FDD00249FED82AB33
:103D10009DED060B53EC1A2B51EC100BFCF793FAAC
:103D20009DED060B41EC190B53EC1A2B51EC100BCB
:103D3000FCF730FB53EC182BFCF726FB53EC192B4C
:103D4000FCF79AFBCDE9060149E09DED060B012445
:103D500053EC182B51EC100BFCF775FA9DED060B8C
:103D600041EC190B53EC182B51EC100BFCF70CFB2E
:103D700053EC192BFCF780FBCDE906012FE06848D6
:103D8000A0421FDD02249FED689B9DED060B53ECC6
:103D9000192B51EC100BFCF7FDFA53EC182BFCF728
:103DA00052FA9DED060B41EC180B53EC192B51EC1C
:103DB000100BFCF7E9FA53EC182BFCF75DFBCDE98F
:103DC00006010CE09DED060B032453EC102B9FED38
:103DD000580B51EC100BFCF74FFBCDE906019DEDA4
:103DE000060B53EC102B51EC100BFCF7D3FA41EC03
:103DF000180B53EC182BFCF7CDFA41EC190B4E487D
:103E00000621B0EE490AF0EE690A784400F09CF809
:103E100053EC182B51EC100BFCF7BCFA41EC180BCF
:103E20004648B0EE490AF0EE690A0521784400F0F0
:103E30008BF853EC192B51EC100BFCF7ABFA41EC5F
:103E4000100B51EC180B53EC102B002C0EDAFCF776
:103E5000FAF99DED061B53EC112BFCF79BFA9DED37
:103E6000061B53EC112BFCF792FA35E0FCF7EBF94B
:103E70009DED061B53EC112BFCF78CFA41EC100B5B
:103E80002F48784400EBC40090ED001B51EC100B60
:103E900053EC112BFCF778FA9DED061B53EC112B1C
:103EA000FCF772FA41EC100B2648784400EBC40092
:103EB00090ED001B51EC100B53EC112BFCF767FA43
:103EC00041EC100B002DA2BFBDEC068B02B070BD03
:103ED00051EC100B81F0004141EC100B01E70000A8
:103EE000000010440000F07F182D4454FB21F93FDE
:103EF000182D4454FB21F9BF0000DC3F0000203E98
:103F00000000F33F00000000000000000000F03F50
:103F10000000E63F0000000000000000000000403C
:103F20000080034000000000000000000000F83F97
:103F3000000000000000F0BF620400001804000050
:103F4000A20300005A03000070B504462DED028B59
:103F50004D1E00EBC500B0EE408AF0EE608A90ED99
:103F6000000B35F0060017D053EC182B51EC100B5A
:103F7000FCF710FA41EC100B6D1E04EBC50090ED40
:103F8000001B51EC100B53EC112BFCF75CF941ECCE
:103F9000100B35F00600E7D1022D36D0042D1CD0D1
:103FA000062D1CBFBDEC028B70BD53EC182B51ECE1
:103FB000100BFCF7EFF994ED0A1B53EC112BFCF7F7
:103FC00042F953EC182BFCF7E5F994ED081B53EC80
:103FD000112BFCF738F941EC100B53EC182B51EC7A
:103FE000100BFCF7D7F994ED061B53EC112BFCF7E3
:103FF0002AF953EC182BFCF7CDF994ED040B53EC94
:10400000102BFCF720F941EC100B53EC182B51EC62
:10401000100BFCF7BFF994ED021B53EC112BFCF7CE
:1040200012F953EC182BFCF7B5F994ED001B53EC87
:10403000112BFCF708F9BDEC028B41EC100B70BDA5
:1040400010B553EC102B51EC100BFCF7FCF841ECC5
:10405000100B10BD000000009FED050B10B553ECD8
:10406000102B51EC100BFCF795F941EC100B10BD27
:10407000000000000000001002E008C8121F08C184
:10408000002AFAD170477047002001E001C1121FD9
:10409000002AFBD17047000003490120C1F8B80293
:1040A0000249C1F89C02704700804242000042422F
:1040B00070B5054600244FF47A7603E0304600F0F0
:1040C00005F8641CAC42F9D370BD000070B54FF028
:1040D000E024002265690949A36909784843A16978
:1040E0009942FCD002D2A3EB010302E0A5EB01064A
:1040F00033441A440B468242F1D370BD3000002095
:1041000082B0CDE9000121F0004001909DED000B4F
:1041100002B051EC100B7047FDF70EFAFFF714F9DF
:10412000FEF780FEFEF770FEFEF742FEFEF75AFF36
:10413000FEF7AEFFFEF702FFFEF7D6FFFEF7FAFF2F
:10414000FFF748F8FFF71EF8002211463A20FDF766
:10415000C1FA3A20FDF7B3FA002202213620FDF71A
:10416000B9FA3620FDF7ABFA002204214720FDF70B
:10417000B1FA4720FDF7A3FAFCF7BEFA4FF4FA6054
:10418000FDF7CEF80548FDF725FEFCF737FBFEF7F7
:10419000F3FCFEF7BDFCFFF77FFFFEE7A400002065
:1041A0007CB504460DA00D46006800900CA041F2BD
:1041B0008836006801903346022269460948FEF7B6
:1041C000EFFAAAB2334621460648FEF7E9FA33462B
:1041D000022201A90348FEF7E3FA7CBD03FC0000BC
:1041E000FC0300001C010020000000000000000093
:1041F000010203040607080900000000010203048D
:1042000000061016000610164FBB610567ACDD3FB7
:10421000182D4454FB21E93F9BF681D20B73EF3FED
:10422000182D4454FB21F93FE2652F227F2B7A3C65
:10423000075C143326A6813CBDCBF07A8807703C1E
:10424000075C143326A6913CC4EB98999999C9BF91
:10425000711623FEC671BCBF6D9A74AFF2B0B3BFC6
:104260009AFDDE522DDEADBF2F6C6A2C44B4A2BF86
:104270000D5555555555D53FFF8300922449C23FF2
:104280006E204CC5CD45B73F513DD0A0660DB13F26
:10429000EB0D76244B7BA93F11DA22E33AAD903F38
:1042A000C0420008000000204000000078400008E4
:1042B0000043000840000020E80900008840000892
:1042C00000000000000000000024F40000000000D6
:1042D00000000000000000000000000000000000DE
:1042E00001000000000000000000000000000000CD
:1042F00000000000010000001000000000000000AD
:04000005080001AD41
:00000001FF
